:100000000C9403010C942F010C942F010C942F01DC
:100010000C942F010C942F010C942F010C942F01A0
:100020000C942F010C942F010C942F010C942F0190
:100030000C942F010C942F010C942F010C942F0180
:100040000C942F010C942F010C942F010C942F0170
:100050000C942F010C942F010C942F010C94F3019C
:100060000C942F010C9477050C9457060C942F01D7
:100070000C942F010C942F010C942F010C942F0140
:100080000C942F010C942F010C942F010C942F0130
:100090000C94AF050C9496060C942F010C942F0130
:1000A0000C942F010C942F010C942F010C942F0110
:1000B0000C942F010C942F010C942F010C942F0100
:1000C0000C942F010C942F010C942F010C94E70534
:1000D0000C94D5060C942F010C941F060C94140755
:1000E0000C942F0100002100240027002A002D007D
:1000F0003000330001010000040107010A01000083
:100100002200250028002B002E00310034000201BF
:100110000000050108010B0100002000230026005B
:1001200029002C002F00320000010000030106010D
:10013000090105050505070508080808020202026D
:100140000A0A080804040404010101010101010173
:100150000303030303030303040707070C0C0C0C3E
:100160000C0C0C0C02020202060606060606060627
:100170000B0B0B0B0B0B0B0B0102102020080810B4
:100180002040102040800201020108040201010207
:1001900004081020408080402010080402018004E0
:1001A000020180402010080402010804020101023B
:1001B0000408102040800102040810204080000044
:1001C000090A02080B0C0D070603040100000000D9
:1001D000000000000000000000000000000000001F
:1001E0000000000000000000000011100F000000DF
:1001F00000000000000000000000000000000000FF
:1002000000000000E40811241FBECFEFD1E2DEBFE2
:10021000CDBF00E00CBF12E0A0E0B2E0E6EFF5E1F8
:1002200000E00BBF02C007900D92A235B107D9F7CD
:1002300014E0A2E5B2E001C01D92A73FB107E1F7CB
:1002400012E0C6E0D2E004C02297FE010E94F50A47
:10025000C430D107C9F70E94E2010C946D0A0C94D6
:1002600000008BE794E040E855E260E070E00E9417
:10027000530788ED94E040E855E260E070E00E94AA
:10028000530789E060E00E94F60289E061E00E9485
:10029000A9030895AF92BF92CF92DF92EF92FF929F
:1002A0000F931F93CF93DF935C01C2E0D0E081E016
:1002B000C82ED12CE12CF12C87E00E940C0480FF89
:1002C0000CC0D701C6010C2E04C0880F991FAA1FAD
:1002D000BB1F0A94D2F7080F191F62E370E080E099
:1002E00090E00E943B028FEFCF3ED80711F021979C
:1002F000E3CF0E945D0A64E670E00E94A30A800FCB
:10030000911FB5010E94A30A9C012F5F3F4FC901B5
:10031000DF91CF911F910F91FF90EF90DF90CF90E1
:10032000BF90AF900895CF93DF938BE794E060E0A8
:1003300072E00E94640560ED77E080E090E00E944A
:100340003B028DE061E00E94F6028DE00E94DC033A
:10035000892BD9F48BE794E066E272E00E94640591
:1003600082E090E00E944A01EC018130910521F485
:1003700088ED94E062E006C08230910591F488ED4A
:1003800094E061E00E94AB080CC088ED94E00E940C
:100390003F0818161906CCF788ED94E00E94700803
:1003A000EC018BE794E06EE272E00E9461058BE75E
:1003B00094E0BE014AE050E00E944205CE01DF9188
:1003C000CF9108950E9494020E9431010E949301EE
:1003D0008BE794E00E94D90788ED94E00E94D9074A
:1003E00080E090E008951F920F920FB60F921124B3
:1003F0002F933F938F939F93AF93BF938091560218
:1004000090915702A0915802B091590230915A022E
:100410000196A11DB11D232F2D5F2D3720F02D57E3
:100420000196A11DB11D20935A028093560290930C
:100430005702A0935802B0935902809152029091B2
:100440005302A0915402B09155020196A11DB11D15
:100450008093520290935302A0935402B09355029A
:10046000BF91AF919F918F913F912F910F900FBEB0
:100470000F901F9018959B01AC017FB7F894809165
:10048000520290915302A0915402B091550266B568
:10049000A89B05C06F3F19F00196A11DB11D7FBF3C
:1004A000BA2FA92F982F8827860F911DA11DB11D46
:1004B00062E0880F991FAA1FBB1F6A95D1F7BC0184
:1004C0002DC0FFB7F8948091520290915302A091F1
:1004D0005402B0915502E6B5A89B05C0EF3F19F054
:1004E0000196A11DB11DFFBFBA2FA92F982F8827F4
:1004F0008E0F911DA11DB11DE2E0880F991FAA1F4B
:10050000BB1FEA95D1F7861B970B885E9340C8F214
:10051000215030404040504068517C4F21153105FA
:100520004105510571F60895789484B5826084BDC3
:1005300084B5816084BD85B5826085BD85B58160E7
:1005400085BDEEE6F0E0808181608083E1E8F0E047
:100550001082808182608083808181608083E0E876
:10056000F0E0808181608083E1EBF0E08081846055
:100570008083E0EBF0E0808181608083E1E9F0E05E
:10058000808182608083808181608083E0E9F0E007
:10059000808181608083E1EAF0E0808182608083F5
:1005A000808181608083E0EAF0E0808181608083E7
:1005B000E1E2F1E0808182608083808181608083DC
:1005C000E0E2F1E0808181608083EAE7F0E0808111
:1005D0008460808380818260808380818160808369
:1005E0008081806880831092C1000895CF93DF934B
:1005F000482F50E0CA0188589E4FFC0134914E5C50
:100600005E4FFA018491882369F190E0880F991F69
:10061000FC01EC51FF4FA591B491FC01E250FF4F5A
:10062000C591D491662351F42FB7F8948C91932FF0
:10063000909589238C93888189230BC0623061F463
:100640002FB7F8948C91932F909589238C93888160
:10065000832B88832FBF06C09FB7F8948C91832B80
:100660008C939FBFDF91CF910895893009F449C0E1
:100670008A30A0F4843051F1853040F4823079F131
:10068000833000F5813009F063C026C0873079F1EE
:10069000883098F5863009F05BC025C08D3009F4AC
:1006A00042C08E3028F48B30B1F18C30C0F52DC0B3
:1006B000803109F442C0813109F445C08F3009F01E
:1006C00047C037C0809180008F7703C08091800041
:1006D0008F7D80938000089584B58F7702C084B5A4
:1006E0008F7D84BD08958091B0008F7703C0809185
:1006F000B0008F7D8093B0000895809190008F7737
:1007000007C0809190008F7D03C080919000877F0B
:100710008093900008958091A0008F7707C080910A
:10072000A0008F7D03C08091A000877F8093A000F0
:100730000895809120018F7703C0809120018F7DE3
:1007400080932001089580912001877F809320016C
:100750000895FF920F931F93F62E482F50E0CA0181
:1007600082549E4FFC012491CA0188589E4FFC017F
:1007700014914E5C5E4FFA0104910023C9F02223CC
:1007800019F0822F0E943503E02FF0E0EE0FFF1FDB
:10079000E250FF4FA591B4919FB7F894FF2021F448
:1007A0008C911095812302C08C91812B8C939FBFDB
:1007B0001F910F91FF9008950F931F93482F50E0C2
:1007C000CA0182549E4FFC012491CA0188589E4F51
:1007D000FC0104914E5C5E4FFA011491112319F44F
:1007E00020E030E015C0222319F0822F0E9435034B
:1007F000812F90E0880F991F885E9E4FFC01A59184
:10080000B4918C9120E030E0802311F021E030E0C1
:10081000C9011F910F910895382F863308F0365380
:1008200020917B00832F86958695869590E0817038
:10083000907043E0880F991F4A95E1F7277F282B96
:1008400020937B003770809140028295880F880F3B
:10085000807C832B80937C0080917A0080648093DD
:100860007A0080917A0086FDFCCF2091780040913B
:100870007900942F80E030E0282B392BC9010895AE
:10088000CF92DF92EF92FF920F931F93CF93DF935C
:100890007C016B018A01C0E0D0E00FC0D6016D91F0
:1008A0006D01D701ED91FC910190F081E02DC70120
:1008B0001995C80FD91F015010400115110571F786
:1008C000CE01DF91CF911F910F91FF90EF90DF90BC
:1008D000CF900895EF92FF920F931F938C01DC014C
:1008E000ED91FC910190F081E02D6DE019957C0176
:1008F000D801ED91FC910190F081E02DC8016AE0F2
:1009000019959C012E0D3F1DC9011F910F91FF905C
:10091000EF900895CF93DF93DB010D900020E9F76E
:100920001197A61BB70BEC01E881F9810280F381D6
:10093000E02DAD011995DF91CF9108954F925F920F
:100940007F928F929F92AF92BF92CF92DF92EF925F
:10095000FF920F931F93DF93CF93CDB7DEB7A1978D
:100960000FB6F894DEBF0FBECDBF2C01742ECB01A5
:10097000223008F42AE019A231E2C32ED12CCC0E89
:10098000DD1E822E9924AA24BB24672D752FA50174
:1009900094010E94B60A79018A01C801B701A50134
:1009A00094010E94700A472D461B0894C108D10883
:1009B0004A3014F4405D01C0495CF6014083E11403
:1009C000F1040105110521F07E2C5F2DC801DDCF5A
:1009D000C201B6010E948A04A1960FB6F894DEBF48
:1009E0000FBECDBFCF91DF911F910F91FF90EF9080
:1009F000DF90CF90BF90AF909F908F907F905F904F
:100A00004F900895CF92DF92EF92FF920F931F9332
:100A1000CF93DF93EC016A017B012115310541F48D
:100A2000E881F9810190F081E02D642F19951FC0B4
:100A30002A303105D1F477FF17C0E881F9810190A0
:100A4000F081E02D6DE219958C0144275527BA01FC
:100A50004C195D096E097F09CE012AE00E949E04AF
:100A60009801280F391F04C02AE00E949E049C01AF
:100A7000C901DF91CF911F910F91FF90EF90DF900F
:100A8000CF900895CF92DF92EF92FF920F931F9332
:100A90006C017B019A010027F7FC0095102FB8012B
:100AA000A7010E9402058C01C6010E946A04080F7A
:100AB000191FC8011F910F91FF90EF90DF90CF9009
:100AC00008950E948A040895EF92FF920F931F9356
:100AD0007C010E948A048C01C7010E946A04080FED
:100AE000191FC8011F910F91FF90EF9008951F9259
:100AF0000F920FB60F920BB60F9211242F933F93C4
:100B00004F938F939F93EF93FF934091C600209153
:100B10009B0230919C022F5F3F4F2F73307080916A
:100B20009D0290919E022817390759F0E0919B028F
:100B3000F0919C02E55AFD4F408330939C02209334
:100B40009B02FF91EF919F918F914F913F912F9138
:100B50000F900BBE0F900FBE0F901F9018951F9215
:100B60000F920FB60F920BB60F9211242F933F9353
:100B70004F938F939F93EF93FF934091CE002091DB
:100B80002303309124032F5F3F4F2F7330708091E8
:100B90002503909126032817390759F0E091230384
:100BA000F0912403ED51FD4F4083309324032093B3
:100BB0002303FF91EF919F918F914F913F912F913F
:100BC0000F900BBE0F900FBE0F901F9018951F92A5
:100BD0000F920FB60F920BB60F9211242F933F93E3
:100BE0004F938F939F93EF93FF934091D600209163
:100BF000AB033091AC032F5F3F4F2F733070809168
:100C0000AD039091AE032817390759F0E091AB037B
:100C1000F091AC03E559FC4F40833093AC03209333
:100C2000AB03FF91EF919F918F914F913F912F9146
:100C30000F900BBE0F900FBE0F901F9018951F9234
:100C40000F920FB60F920BB60F9211242F933F9372
:100C50004F938F939F93EF93FF9340913601209191
:100C60003304309134042F5F3F4F2F7330708091E5
:100C70003504909136042817390759F0E091330470
:100C8000F0913404ED50FC4F4083309334042093B2
:100C90003304FF91EF919F918F914F913F912F914D
:100CA0000F900BBE0F900FBE0F901F9018951F92C4
:100CB0000F920FB60F920BB60F9211242F933F9302
:100CC0008F939F93EF93FF932091DF023091E00287
:100CD0008091E1029091E2022817390731F4809166
:100CE000C1008F7D8093C10014C0E091E102F091BA
:100CF000E202E156FD4F20818091E1029091E202F3
:100D000001968F7390709093E2028093E10220939A
:100D1000C600FF91EF919F918F913F912F910F907E
:100D20000BBE0F900FBE0F901F9018951F920F9241
:100D30000FB60F920BB60F9211242F933F938F9300
:100D40009F93EF93FF932091670330916803809105
:100D5000690390916A032817390731F48091C9001B
:100D60008F7D8093C90014C0E0916903F0916A03FC
:100D7000E95DFC4F20818091690390916A0301969F
:100D80008F73907090936A03809369032093CE00D1
:100D9000FF91EF919F918F913F912F910F900BBEFB
:100DA0000F900FBE0F901F9018951F920F920FB6C5
:100DB0000F920BB60F9211242F933F938F939F9313
:100DC000EF93FF932091EF033091F0038091F103B3
:100DD0009091F2032817390731F48091D1008F7D6B
:100DE0008093D10014C0E091F103F091F203E1553A
:100DF000FC4F20818091F1039091F20301968F7353
:100E000090709093F2038093F1032093D600FF91AA
:100E1000EF919F918F913F912F910F900BBE0F906B
:100E20000FBE0F901F9018951F920F920FB60F9242
:100E30000BB60F9211242F933F938F939F93EF93B1
:100E4000FF932091770430917804809179049091F8
:100E50007A042817390731F4809131018F7D80930E
:100E6000310114C0E0917904F0917A04E95CFB4F00
:100E700020818091790490917A0401968F7390700B
:100E800090937A048093790420933601FF91EF9137
:100E90009F918F913F912F910F900BBE0F900FBE9E
:100EA0000F901F901895AF92BF92DF92EF92FF9232
:100EB0000F931F93CF93DF93EC017A018B01DD2415
:100EC000403081EE580780E0680780E0780711F035
:100ED000DD24D39491E0A92EB12CEC89FD89DD208D
:100EE00069F0C5010E8C02C0880F991F0A94E2F7C1
:100EF000808360E079E08DE390E005C0108260E8D7
:100F000074E88EE190E0A80197010E94B60A215092
:100F1000304040405040569547953795279580E1A1
:100F20002030380720F0DD2011F0DD24D6CFE8890D
:100F3000F9893083EA89FB892083EE89FF89408122
:100F400021E030E0C9010A8C02C0880F991F0A9481
:100F5000E2F7482B4083EE89FF894081C9010B8C61
:100F600002C0880F991F0A94E2F7482B4083EE894C
:100F7000FF894081C9010C8C02C0880F991F0A9417
:100F8000E2F7482B4083EE89FF8980810D8C02C0F7
:100F9000220F331F0A94E2F7209528232083DF9144
:100FA000CF911F910F91FF90EF90DF90BF90AF9086
:100FB0000895CF93DF93DC011E968D919C911F972E
:100FC000EC01C05CDF4FFC01EE5BFF4F28813981F3
:100FD0008081918128173907C9F75696ED91FC91C8
:100FE0005797408121E030E0C9015A960C905A97FA
:100FF00002C0880F991F0A94E2F7809584238083AA
:101000005696ED91FC9157974081C9015B960C90E3
:101010005B9702C0880F991F0A94E2F7809584239A
:1010200080835696ED91FC9157974081C9015C965B
:101030000C905C9702C0880F991F0A94E2F7809584
:10104000842380835696ED91FC91579780815D961D
:101050000C905D9702C0220F331F0A94E2F720958F
:10106000282320831C96ED91FC911D97EE5BFF4F8A
:101070008081918192938293DF91CF910895DC01D9
:101080001C96ED91FC911D97E05CFF4F21913191F1
:1010900080819181281B390B2F733070C90108950D
:1010A000DC011C96ED91FC911D97E05CFF4F2081C7
:1010B0003181E054F040DF01AE5BBF4F8D919C91D8
:1010C00011972817390719F42FEF3FEF07C08D91BB
:1010D0009C91E80FF91F8081282F30E0C901089505
:1010E000DC011C96ED91FC911D97E05CFF4F208187
:1010F0003181E054F040DF01AE5BBF4F8D919C9198
:1011000011972817390719F42FEF3FEF10C08D9171
:101110009C911197E80FF91F20818D919C91119757
:1011200001968F73907011969C938E9330E0C90155
:101130000895FC0186859785DC01A05CBF4FFC010A
:10114000EE5BFF4F2D913C91119780819181281783
:101150003907C1F70895CF93DF93EC01EE85FF8542
:10116000E05CFF4F20813181E054F0402F5F3F4F22
:101170002F733070DF01AE5BBF4F8D919C91119743
:1011800028173907D1F3E05CFF4F80819181E0544B
:10119000F040E80FF91F6083EE85FF85E05CFF4FAC
:1011A00031832083EE89FF89208181E090E00D8CDE
:1011B00002C0880F991F0A94E2F7282B208381E050
:1011C00090E0DF91CF9108951F9310927E041092CA
:1011D0007D0428EE33E040E050E020937F0430931C
:1011E0008004409381045093820465E472E070931C
:1011F0007C0460937B048BE592E090938804809359
:1012000087048FE992E090938A048093890485ECA7
:1012100090E090938C0480938B0484EC90E0909306
:101220008E0480938D0480EC90E0909390048093E2
:101230008F0481EC90E0909392048093910486EC6B
:1012400090E0909394048093930414E01093950499
:10125000B3E0B0939604A7E0A0939704F5E0F09371
:101260009804E1E0E093990410929D0410929C048C
:1012700020939E0430939F044093A0045093A104B4
:1012800070939B0460939A0483EE92E09093A7047A
:101290008093A60487E293E09093A9048093A80426
:1012A0008DEC90E09093AB048093AA048CEC90E0DA
:1012B0009093AD048093AC0488EC90E09093AF04DD
:1012C0008093AE0489EC90E09093B1048093B004D5
:1012D0008EEC90E09093B3048093B2041093B40426
:1012E000B093B504A093B604F093B704E093B804A8
:1012F0001092BC041092BB042093BD043093BE0432
:101300004093BF045093C0047093BA046093B9042F
:101310008BE693E09093C6048093C5048FEA93E034
:101320009093C8048093C70485ED90E09093CA041D
:101330008093C90484ED90E09093CC048093CB0417
:1013400080ED90E09093CE048093CD0481ED90E009
:101350009093D0048093CF0486ED90E09093D204D4
:101360008093D1041093D304B093D404A093D504F4
:10137000F093D604E093D7041092DB041092DA04C1
:101380002093DC043093DD044093DE045093DF04AB
:101390007093D9046093D80483EF93E09093E504AD
:1013A0008093E40487E394E09093E7048093E60459
:1013B00085E391E09093E9048093E80484E391E06D
:1013C0009093EB048093EA0480E391E09093ED0422
:1013D0008093EC0481E391E09093EF048093EE041A
:1013E00086E391E09093F1048093F0041093F2046B
:1013F000B093F304A093F404F093F504E093F6049F
:101400001F910895AF92BF92CF92DF92EF92FF9219
:101410000F931F93CF93DF93EC01A880B980CA800C
:10142000DB80A114B104C104D10441F484E2A82EEC
:1014300089EDB82E8BE5C82E87E0D82EC601B50100
:101440002DE133EF41E050E00E94D80A27EA31E471
:1014500040E050E00E94700A7B018C01C601B5019A
:101460002DE133EF41E050E00E94D80ACA01B901F2
:101470002CEE34EF4FEF5FEF0E94700A6E0D7F1D70
:10148000801F911F97FF04C06150704080409048BA
:10149000688379838A839B839B013F77C901DF91AE
:1014A000CF911F910F91FF90EF90DF90CF90BF9061
:1014B000AF9008950E94020A08958CE392E00E9482
:1014C000020A0895A0E0B0E080933C0290933D02B0
:1014D000A0933E02B0933F020895F8940C94F90A49
:1014E000629FD001739FF001829FE00DF11D649F08
:1014F000E00DF11D929FF00D839FF00D749FF00D94
:10150000659FF00D9927729FB00DE11DF91F639F34
:10151000B00DE11DF91FBD01CF0111240895AA1BD3
:10152000BB1B51E107C0AA1FBB1FA617B70710F0CE
:10153000A61BB70B881F991F5A95A9F78095909500
:10154000BC01CD01089597FB092E07260AD077FD2F
:1015500004D0E5DF06D000201AF4709561957F4F26
:101560000895F6F7909581959F4F0895A1E21A2E60
:10157000AA1BBB1BFD010DC0AA1FBB1FEE1FFF1F37
:10158000A217B307E407F50720F0A21BB30BE40B87
:10159000F50B661F771F881F991F1A9469F76095CE
:1015A0007095809590959B01AC01BD01CF01089588
:1015B00097FB092E05260ED057FD04D0D7DF0AD0A1
:1015C000001C38F450954095309521953F4F4F4F72
:1015D0005F4F0895F6F790958095709561957F4FD0
:1015E0008F4F9F4F0895EE0FFF1F0590F491E02D50
:0615F0001994F894FFCFEE
:1015F60052616E646F6D6C79206465636964696EAF
:10160600672077686F2077696C6C20676F20666942
:101616007273742E2E00436C69656E7421004D79C9
:10162600204F726465722069733A20000100000041
:101636000100000000AB0840043F087008500899FC
:0216460008009A
:00000001FF
