:100000000C94FE030C942A040C942A040C942A04E5
:100010000C942A040C942A040C942A040C942A04A8
:100020000C942A040C942A040C942A040C942A0498
:100030000C942A040C942A040C942A040C942A0488
:100040000C942A040C942A040C942A040C942A0478
:100050000C942A040C942A040C942A040C94BC19C1
:100060000C942A040C94E31B0C94C31C0C942A04D7
:100070000C942A040C942A040C942A040C942A0448
:100080000C942A040C942A040C942A040C942A0438
:100090000C941B1C0C94021D0C942A040C942A042E
:1000A0000C942A040C942A040C942A040C942A0418
:1000B0000C942A040C942A040C942A040C942A0408
:1000C0000C942A040C942A040C942A040C94531CB7
:1000D0000C94411D0C942A040C948B1C0C94801DD0
:1000E0000C942A0400002100240027002A002D007F
:1000F0003000330001010000040107010A01000083
:100100002200250028002B002E00310034000201BF
:100110000000050108010B0100002000230026005B
:1001200029002C002F00320000010000030106010D
:10013000090105050505070508080808020202026D
:100140000A0A080804040404010101010101010173
:100150000303030303030303040707070C0C0C0C3E
:100160000C0C0C0C02020202060606060606060627
:100170000B0B0B0B0B0B0B0B0102102020080810B4
:100180002040102040800201020108040201010207
:1001900004081020408080402010080402018004E0
:1001A000020180402010080402010804020101023B
:1001B0000408102040800102040810204080000044
:1001C000090A02080B0C0D070603040100000000D9
:1001D000000000000000000000000000000000001F
:1001E0000000000000000000000011100F000000DF
:1001F00000000000000000000000000000000000FF
:100200000000000000000000003E5B4F5B3E3E6BC4
:100210004F6B3E1C3E7C3E1C183C7E3C181C577DA0
:10022000571C1C5E7F5E1C00183C1800FFE7C3E7EC
:10023000FF0018241800FFE7DBE7FF30483A060EFE
:100240002629792926407F050507407F05253F5A45
:100250003CE73C5A7F3E1C1C08081C1C3E7F1422B5
:100260007F22145F5F005F5F06097F017F00668960
:10027000956A606060606094A2FFA29408047E04A6
:100280000810207E201008082A1C08081C2A0808CC
:100290001E101010100C1E0C1E0C30383E3830068C
:1002A0000E3E0E06000000000000005F0000000788
:1002B000000700147F147F14242A7F2A12231308B6
:1002C000646236495620500008070300001C224192
:1002D000000041221C002A1C7F1C2A08083E080836
:1002E00000807030000808080808000060600020E6
:1002F000100804023E5149453E00427F40007249C9
:100300004949462141494D331814127F102745456C
:1003100045393C4A49493141211109073649494982
:1003200036464949291E00001400000040340000F0
:100330000008142241141414141400412214080259
:10034000015909063E415D594E7C1211127C7F49CC
:100350004949363E414141227F4141413E7F494921
:1003600049417F090909013E414151737F0808084D
:100370007F00417F41002040413F017F081422411E
:100380007F404040407F021C027F7F0408107F3E78
:100390004141413E7F090909063E4151215E7F09E5
:1003A000192946264949493203017F01033F40404C
:1003B000403F1F2040201F3F4038403F6314081437
:1003C0006303047804036159494D43007F4141416F
:1003D0000204081020004141417F04020102044050
:1003E00040404040000307080020545478407F28D4
:1003F0004444383844444428384444287F385454CA
:10040000541800087E090218A4A49C787F080404EC
:100410007800447D40002040403D007F102844008B
:1004200000417F40007C047804787C08040478381C
:1004300044444438FC1824241818242418FC7C084C
:10044000040408485454542404043F44243C4040C9
:10045000207C1C2040201C3C4030403C442810287C
:10046000444C9090907C4464544C440008364100C5
:100470000000770000004136080002010204023C3F
:100480002623263C1EA1A161123A4040207A38540E
:100490005455592155557941215454784121555489
:1004A000784020545579400C1E52721239555555DA
:1004B00059395454545939555454580000457C41C5
:1004C0000002457D420001457C40F0292429F0F0DE
:1004D000282528F07C545545002054547C547C0A2F
:1004E000097F4932494949323248484832324A48FC
:1004F00048303A4141217A3A42402078009DA0A0FC
:100500007D39444444393D4040403D3C24FF24244F
:10051000487E4943662B2FFC2F2BFF0929F620C06C
:10052000887E090320545479410000447D413048BD
:10053000484A32384040227A007A0A0A727D0D1900
:10054000317D2629292F28262929292630484D4062
:1005500020380808080808080808382F10C8ACBA5E
:100560002F102834FA00007B000008142A142222DD
:10057000142A1408AA005500AAAA55AA55AA0000D0
:1005800000FF00101010FF00141414FF001010FFE3
:1005900000FF1010F010F0141414FC001414F700F5
:1005A000FF0000FF00FF1414F404FC141417101FC4
:1005B00010101F101F1414141F00101010F0000052
:1005C00000001F101010101F10101010F01000006D
:1005D00000FF101010101010101010FF100000007D
:1005E000FF140000FF00FF00001F10170000FC04B4
:1005F000F414141710171414F404F40000FF00F797
:1006000014141414141414F700F7141414171410F9
:10061000101F101F141414F4141010F010F0000028
:100620001F101F0000001F14000000FC140000F049
:1006300010F01010FF10FF141414FF141010101FEE
:1006400000000000F010FFFFFFFFFFF0F0F0F0F0FF
:10065000FFFFFF0000000000FFFF0F0F0F0F0F381C
:10066000444438447C2A2A3E147E02020606027E56
:10067000027E0263554941633844443C04407E2075
:100680001E2006027E020299A5E7A5991C2A492A86
:100690001C4C7201724C304A4D4D30304878483015
:1006A000BC625A463D3E494949007E0101017E2A0D
:1006B0002A2A2A2A44445F444440514A4440404440
:1006C0004A51400000FF0103E080FF000008086B72
:1006D0006B083612362436060F090F06000018186C
:1006E0000000001010003040FF0101001F01011E3A
:1006F00000191D1712003C3C3C3C00000000000F9C
:100700000180961180FFB103012C2DB203012C2D25
:10071000B306012C2D012C2DB40107C003A20284C5
:10072000C101C5C2020A00C3028A2AC4028AEEC5F8
:10073000010E20003601C83A0105022A0400020019
:10074000812B04000100A0022A040000007F2B047A
:100750000000009F04E010021C07123732292D29E7
:10076000252B3900010310E110031D07062E2C294B
:100770002D2E2E373F0000021013800A29806412AC
:100780000180321180FF3A81050AB1830006030A15
:10079000360108B6021502B40100C08202700AC117
:1007A0000105C2020102C5823C380AFC021115E0B3
:1007B0001009160920211B131917151E2B040502F9
:1007C0000EE1900B14081E221D181E1B1A242B0666
:1007D00006020F0A2A04000200812B040002008195
:1007E00013800A2980FF7C3C3E5E2B3D3F2F5B5DE2
:1007F0003B2C2A225C009F05EA1EEF2A11241FBE13
:10080000CFEFD1E2DEBFCDBF00E00CBF17E0A0E02C
:10081000B2E0ECE0F4E800E00BBF02C007900D92FC
:10082000AC33B107D9F71DE0ACE3B7E001C01D92CE
:10083000A031B107E1F717E0CCEFD7E004C0229771
:10084000FE010E940042C63FD107C9F70E94F1177E
:100850000C94DA3F0C9400002F923F924F925F92DB
:100860006F927F928F929F92AF92BF92CF92DF92C0
:10087000EF92FF920F931F93CF93DF931B012C01F5
:1008800037014801CA01B901A80197010E94C1417D
:10089000AC01CB01DA015C016D01EE24FF2487017C
:1008A000C0E0D0E0D201C1010C2E04C0B695A795DE
:1008B000979587950A94D2F780FF0FC0EA0CFB1C2E
:1008C0000C1D1D1DC801B701A40193010E94C14167
:1008D000AC01CB01DA017C018D012196C032D1053A
:1008E00081F0AA0CBB1CCC1CDD1CC601B501A40107
:1008F00093010E94C141AC01CB01DA015C016D01A1
:10090000D1CFB701C801DF91CF911F910F91FF9017
:10091000EF90DF90CF90BF90AF909F908F907F909F
:100920006F905F904F903F902F9008952F923F923D
:100930004F925F926F927F928F929F92AF92BF92EF
:10094000CF92DF92EF92FF920F931F93DF93CF939B
:1009500000D000D0CDB7DEB75B016C0129833A83AC
:100960004B835C833701480161E070E080E090E0F8
:10097000A80197010E94C141562E472E382E292EDC
:10098000C601B501A80197010E94C141B62EC72E2C
:10099000D82EA92E1E821D8289819A81AB81BC81AD
:1009A0000D8004C0B695A795979587950A94D2F7C0
:1009B00080FF10C0652D742D832D922D2B2D3C2D85
:1009C0004D2D5A2D840173010E942C04562E472E62
:1009D000382E292E6B2D7C2D8D2D9A2D2B2D3C2DD7
:1009E0004D2D5A2D840173010E942C04B62EC72E62
:1009F000D82EA92E8D819E8101969E838D8380970E
:100A000059F6652D742D832D922D26960FB6F894E8
:100A1000DEBF0FBECDBFCF91DF911F910F91FF9031
:100A2000EF90DF90CF90BF90AF909F908F907F908E
:100A30006F905F904F903F902F900895EF92FF92AC
:100A40000F931F93DF93CF93CDB7DEB7A8970FB661
:100A5000F894DEBF0FBECDBFDE011196E7EDF6E0E4
:100A60008AE001900D928150E1F7DE011B96EDECDA
:100A7000F6E08AE001900D928150E1F7DE01559693
:100A8000E3ECF6E08AE001900D928150E1F7DE019F
:100A90005F96E9EBF6E08AE001900D928150E1F774
:100AA00080913E0790913F070197E1F520E030E00B
:100AB0007E010894E11CF11C8E01055F1F4FBE01F1
:100AC0006B5E7F4FAE01415E5F4FD901AC57B94FAE
:100AD000F701E20FF31F808191818D939C93D901DF
:100AE000A257B94FF801E20FF31F808191818D93D6
:100AF0009C93D901A856B94FFB01E20FF31F8081E7
:100B000091818D939C93D901AE55B94FFA01E20FB3
:100B1000F31F808191818D939C932E5F3F4F2A30EC
:100B2000310599F6A8960FB6F894DEBF0FBECDBF7B
:100B3000CF91DF911F910F91FF90EF9008958BED72
:100B400097E066E047E028E00E9493290895CF935C
:100B5000DF93EC018BED97E06FEF7FEF40E050E02B
:100B60000E94B5258BED97E061E00E94A9258BEDF1
:100B700097E065E070E046E850E00E94A3258BED29
:100B800097E060E072E00E9455218BED97E063E210
:100B900070E042E950E00E94A3258BED97E065E10B
:100BA00072E00E9455218BED97E06BE470E042E922
:100BB00050E00E94A3258BED97E069E172E00E946E
:100BC0005521C130D105A9F48BED97E060E070E0CC
:100BD0004FEF5FEF0E94B5258BED97E063E270E089
:100BE00042E950E00E94A3258BED97E065E172E0B9
:100BF00016C02297B1F48BED97E060E070E04FEF04
:100C00005FEF0E94B5258BED97E06BE470E042E961
:100C100050E00E94A3258BED97E069E172E00E940D
:100C20005521DF91CF9108956F927F928F929F927D
:100C3000AF92BF92CF92DF92EF92FF920F931F93EA
:100C4000CF93DF938BED97E06AE170E046E750E0E9
:100C500028E130E004E710E0B8E1EB2EF12CA8E742
:100C6000CA2ED12CF4E0AF2EFDEFBF2E0E9414232C
:100C70008BED97E06EE670E046E750E020E730E06D
:100C8000E0E7EE2EF12C0E941423B2E06B2E712CC3
:100C9000A1E08A2E912C80E00E948819EC0182E06C
:100CA000C732D8070CF474C070923D0760923C07BD
:100CB0008BED97E066E270E042E750E00E94A325EA
:100CC0008BED97E06FEF7FEF40E050E00E94B5259D
:100CD0008BED97E06FE272E00E9455218BED97E07B
:100CE00060E270E044E850E00E94A3258BED97E0BD
:100CF00060E070E04FEF5FEF0E94B5258BED97E06D
:100D00006AE372E00E9455218BED97E06AE170E0A2
:100D100046E750E028E130E004E710E0F8E1EF2E8C
:100D2000F12CE8E7CE2ED12CAA24BB240E94142358
:100D30008BED97E06EE670E046E750E020E730E0AC
:100D4000B0E7EB2EF12C0E9414238BED97E06AE1C3
:100D500070E048E850E028E130E006E810E0A8E163
:100D6000EA2EF12CFAE8CF2ED12CE4E0AE2EEDEFF6
:100D7000BE2E0E9414238BED97E06EE670E048E8EB
:100D800050E020E730E0B0E7EB2EF12C0E94142376
:100D9000CA5ED1400CF074C08BED97E060E270E069
:100DA00044E850E00E94A3258BED97E06FEF7FEFC2
:100DB00040E050E00E94B5258BED97E06AE372E0D9
:100DC0000E9455218BED97E066E270E042E750E02B
:100DD0000E94A3258BED97E060E070E04FEF5FEF9E
:100DE0000E94B5258BED97E06FE272E00E945521DD
:100DF00090923D0780923C078BED97E06AE170E0AE
:100E000046E750E028E130E004E710E0A8E1EA2EF0
:100E1000F12CF8E7CF2ED12CE4E0AE2EEDEFBE2E74
:100E20000E9414238BED97E06EE670E046E750E0F9
:100E300020E730E0B0E7EB2EF12C0E9414238BED7D
:100E400097E06AE170E048E850E028E130E006E829
:100E500010E0A8E1EA2EF12CFAE8CF2ED12CAA243A
:100E6000BB240E9414238BED97E06EE670E048E807
:100E700050E020E730E0E0E7EE2EF12C0E94142352
:100E800089E00E94B31B892B09F005CF80E090E038
:100E9000DF91CF911F910F91FF90EF90DF90CF9056
:100EA000BF90AF909F908F907F906F9008958F929A
:100EB0009F92AF92BF92CF92DF92EF92FF920F93E9
:100EC0001F9381E090E090933D0780933C07ABED4A
:100ED0008A2EA7E09A2EC40160E070E00E94A62747
:100EE0008EE796E0B40140E050E020E030E000E022
:100EF00010E0EE24FF24F0E8CF2ED12CE0EAAE2E55
:100F0000B12C0E943A18C4016FEF40E020E00E942B
:100F10003928BC01C4010E94AF25C40160E00E94D1
:100F2000BB25C40162E00E94A925C4016FEF7FEFD9
:100F30000E94AF25C40161E00E94A925C40166E2B8
:100F400070E042E750E00E94A3250FE212E0C401E6
:100F5000B8010E945521C40160E270E044E850E00D
:100F60000E94A325C4016AE372E00E945521C401D6
:100F700066E270E042E750E00E94A325C40160E011
:100F800070E04FEF5FEF0E94B525C401B8010E94E9
:100F900055210E94140680E090E01F910F91FF9070
:100FA000EF90DF90CF90BF90AF909F908F9008957B
:100FB0008BED97E060E070E00E94A6278BED97E054
:100FC00062E00E94A9258091D4079091D5070197EE
:100FD00069F48BED97E069E170E041E450E00E9434
:100FE000A3258BED97E067E472E00CC08BED97E0F2
:100FF00064E170E041E450E00E94A3258BED97E0AE
:101000006FE472E00E9455218BED97E061E00E9451
:10101000A9258BED97E06AE070E04EE650E00E9473
:10102000A3258BED97E068E572E00E9455218BEDDA
:1010300097E068E270E048E750E00E94A3258BED5E
:1010400097E06BE672E00E9455211092D50710924E
:10105000D40710923D0710923C0789E00E94B31B11
:10106000892BD9F708958BED97E060E070E00E943E
:10107000A6278BED97E06FE070E048E250E00E9419
:10108000A3258BED97E061E00E94A9258BED97E009
:101090006FEF7FEF0E94AF258BED97E065E772E081
:1010A0000E9455218BED97E064E170E048E350E049
:1010B0000E94A3258BED97E067E872E00E9455211E
:1010C0008DE061E00E94CD1A8DE00E94B31B892B58
:1010D00081F58BED97E06FE070E04CE550E00E9409
:1010E000A3258BED97E066E972E00E9455218BED18
:1010F00097E064E170E04CE650E00E94A3258BEDA0
:1011000097E067EA72E00E9455218BED97E062E379
:1011100070E04AE750E00E94A3258BED97E067EB73
:1011200072E00E94552189E00E94B31B892BD9F7F8
:1011300008958BED97E068E070E04AE550E00E948A
:10114000A3258BED97E06DEB72E00E945821089586
:101150008BED97E060E070E00E94A6278BED97E0B2
:1011600061E070E041E050E00E94A3258BED97E044
:101170006FEF7FEF0E94AF258BED97E063ED72E09C
:101180000E9455218BED97E061E070E042E850E06D
:101190000E94A3258BED97E060EE77E00E94AF25DB
:1011A0008BED97E065EE72E00E9455218BED97E0A4
:1011B00061E070E04CE850E00E94A3258BED97E0E1
:1011C0006AEF72E00E94552189E00E94B31B892BCF
:1011D000D9F710923D0710923C070895CF93DF9303
:1011E000EC018BED97E06FEF7FEF40E050E00E9465
:1011F000B5258BED97E061E00E94A9258BED97E086
:1012000068E070E042E950E00E94A3258BED97E092
:101210006CE172E00E9455218BED97E06AE270E08C
:1012200042E950E00E94A3258BED97E061E272E075
:101230000E9455218BED97E060E570E042E950E0B7
:101240000E94A3258BED97E067E272E00E94552192
:10125000C130D105A9F48BED97E068E070E042E978
:1012600050E00E94A3258BED97E060E070E04FEF27
:101270005FEF0E94B5258BED97E06CE172E02EC028
:10128000C230D105A9F48BED97E060E070E04FEF3C
:101290005FEF0E94B5258BED97E06AE270E042E9CE
:1012A00050E00E94A3258BED97E061E272E016C04A
:1012B0002397B1F48BED97E060E070E04FEF5FEFC4
:1012C0000E94B5258BED97E060E570E042E950E0C3
:1012D0000E94A3258BED97E067E272E00E94552102
:1012E0006AEF70E080E090E00E94121ADF91CF91E7
:1012F0000895AF92BF92CF92DF92EF92FF920F9339
:101300001F93CF93DF93EE24FF248701CFE1D0E03A
:10131000B1E0AB2EB12CC12CD12C81E00E948819F8
:1013200080FF0EC0D601C5010C2E04C0880F991F86
:10133000AA1FBB1F0A94D2F7E80EF91E0A1F1B1F33
:1013400062E370E080E090E00E94121A21978FEF34
:10135000CF3FD80711F7B701C801DF91CF911F9197
:101360000F91FF90EF90DF90CF90BF90AF900895D6
:101370000F931F930BED17E0C80160E070E00E942F
:10138000A627C80169E170E042E350E00E94A3256E
:10139000C80162E00E94A925C8016EE173E00E94C5
:1013A0005521C8016CE370E04BE450E00E94A32596
:1013B000C80163E00E94A9256091D2077091D3070C
:1013C000C8014AE050E00E942321C80161E00E9468
:1013D000A92568EE73E080E090E00E94121A1F9148
:1013E0000F910895EF92FF920F931F93CF93DF9386
:1013F000EC0104E816E08EE8E82E86E0F82EF8010D
:1014000080819181C817D90769F58BED97E068E273
:1014100070E042E950E00E94A3258BED97E067E27F
:1014200073E00E94552180E39AE06FE273E00E942E
:10143000552180E39AE0BE014AE050E00E9423215A
:1014400080E39AE063E473E00E945521F801608133
:10145000718180E39AE04AE050E00E943621F70172
:10146000C081D1810E5F1F4F82E090E0E80EF91E2F
:1014700096E00E38190719F618E9E12E16E0F12E5C
:1014800002EA16E0F70180819181C817D90769F552
:101490008BED97E068E270E042E950E00E94A325FE
:1014A0008BED97E068E473E00E94552180E39AE0B9
:1014B00062E573E00E94552180E39AE0BE014AE0B4
:1014C00050E00E94232180E39AE063E473E00E94ED
:1014D0005521F8016081718180E39AE04AE050E093
:1014E0000E943621F801C081D18182E090E0E80EAF
:1014F000F91E0E5F1F4F92EAE91696E0F90611F603
:10150000CE01DF91CF911F910F91FF90EF90089541
:1015100011C08DE89AE00E94761EBC0180E39AE03B
:101520004AE050E00E94232161E070E080E090E01A
:101530000E94121A8DE89AE00E94451E181619069C
:1015400044F308954F925F926F927F928F929F9291
:10155000AF92BF92CF92DF92EF92FF920F931F93C1
:101560005DE8452E5AE0552EC2010E94761E3C01D0
:10157000C2010E94761E7C01C2010E94761E5C019F
:10158000C2010E94761E0027F7FC0095102F102F35
:101590000F2DFE2CEE24CC24B7FCC094DC2C65016E
:1015A000BB24AA24EA28FB280C291D29882477FCBF
:1015B0008094982CE628F72808291929AA2797FD4E
:1015C000A095BA2FB82FAA2799278827E82AF92AA1
:1015D0000A2B1B2BB701C8011F910F91FF90EF90B1
:1015E000DF90CF90BF90AF909F908F907F906F9043
:1015F0005F904F900895EF92FF920F931F938BEDA2
:1016000097E060E070E044E850E020E830E000EA75
:1016100010E0EE24FF240E94C1271F910F91FF903C
:10162000EF9008950F931F93CF93DF930E94FB0ACF
:1016300081E090E00E94A705C1E0D0E089E00E942F
:10164000B31B8C0181E00E94881922E08732920747
:101650004CF0219721F482E090E00E94A705C2E0BF
:10166000D0E00CC08A5E91404CF4C230D10531F418
:1016700081E090E00E94A705C1E0D0E0012BF1F6E7
:10168000219719F481E08093D907DF91CF911F91C1
:101690000F9108950F931F93CF93DF9364EF71E041
:1016A00080E090E00E94121A0E94FB0A8BED97E006
:1016B00062E070E044E850E00E94A3258BED97E0E3
:1016C00068E673E00E9455218BED97E06CE370E0D3
:1016D00042E950E00E94A325609170067091710666
:1016E0008BED97E04AE050E00E942321C1E0D0E07A
:1016F00089E00E94B31B8C0181E00E94881922E0DE
:101700008732920754F0C630D1054CF5219680916E
:1017100070069091710601960CC08A5E91402CF57E
:10172000C130D105E1F0219780917006909171064A
:10173000019790937106809370068BED97E06CE3B0
:1017400070E042E950E00E94A3256091700670911C
:1017500071068BED97E04AE050E00E94232168EC8F
:1017600070E080E090E00E94121A012B09F0C0CFD7
:1017700081E08093DA07DF91CF911F910F91089557
:10178000CF93DF93EC018BED97E06FEF7FEF40E0BD
:1017900050E00E94B5250E94FB0A8BED97E061E0C6
:1017A0000E94A9258BED97E063E270E046E850E0E7
:1017B0000E94A3258BED97E065E873E00E94552118
:1017C000C130D105D9F48BED97E06EE170E042E9CC
:1017D00050E00E94A3258BED97E062E973E00E9440
:1017E00055218BED97E06FE570E042E950E00E94F3
:1017F000A3256091AC067091AD061DC0C230D10525
:1018000009F58BED97E06EE170E042E950E00E944F
:10181000A3258BED97E06BE973E00E9455218BEDDA
:1018200097E06FE570E042E950E00E94A3256091E7
:10183000AE067091AF068BED97E04AE050E00E9453
:1018400023212EC0C330D105D9F48BED97E064E19C
:1018500070E042E950E00E94A3258BED97E065EA35
:1018600073E00E9455218BED97E06FE570E042E94F
:1018700050E00E94A3256091B0067091B106DBCFC5
:10188000249771F48BED97E065E070E042E950E059
:101890000E94A3258BED97E062EB73E00E94552137
:1018A000DF91CF9108950F931F93CF93DF930E9401
:1018B000FB0A81E090E00E94C00BC1E0D0E089E02B
:1018C0000E94B31B8C0181E00E94881922E08732BC
:1018D00092072CF0C430D10564F4219607C08A5ECB
:1018E00091403CF4C130D10521F02197CE010E94F6
:1018F000C00B012B21F7C130D10599F48091AC06C2
:101900009091AD0618161906D4F601979093AD067E
:101910008093AC068CE090E090936F0680936E0607
:1019200012C0C230D105D1F48091AE069091AF06BD
:101930001816190624F601979093AF068093AE0609
:1019400081E08093D80764EF71E080E090E00E942E
:10195000121A0E94FB0A20E030E01FC0C330D105FC
:1019600081F48091B0069091B106181619060CF01A
:10197000A6CF01979093B1068093B0060E944A0BC0
:10198000E2CFC430D10509F09ACF64EF71E080E076
:1019900090E00E94121A21E030E0C901DF91CF915E
:1019A0001F910F9108950F931F93CF93DF930E9480
:1019B000FB0A81E090E00E94EE08C1E0D0E089E0FF
:1019C0000E94B31B8C0181E00E94881922E08732BB
:1019D00092072CF0C330D10564F4219607C08A5ECB
:1019E00091403CF4C130D10521F02197CE010E94F5
:1019F000EE08012B21F7C130D105D1F0C230D1055D
:101A000039F40E94530C892BD1F60E94FB0A10C0B6
:101A1000C330D105A1F60E94120B0E94FB0A8091EF
:101A2000D907882329F483E090E00E94EE08C7CF0D
:101A3000DF91CF911F910F9108956F927F928F92B6
:101A40009F92AF92BF92CF92DF92EF92FF920F934D
:101A50001F93CF93DF933B018A018130910561F49D
:101A60008BED97E06FEF40E02FEF0E943928982E22
:101A7000892EC4E0D0E010C0029719F0C0E0D0E099
:101A80000BC08BED97E060E040E020E00E94392839
:101A9000982E892ECCEFDFEF80913E0790913F0783
:101AA000009791F4F8013197EE0FFF1FDF01A05C62
:101AB000B84F0D911C910C0F1D1FE857F84FE08097
:101AC000F18082E796E013C00197B9F5F8013197EC
:101AD000EE0FFF1FDF01A05CB84F0D911C910C0FA2
:101AE0001D1FE857F84FE080F18088E796E06BED26
:101AF00077E0A8019701F5E0CF2ED12CE5E0AE2EDE
:101B0000B12C0E943A18F3013197EE0FFF1FDF014D
:101B1000A05CB84F8D919C91C80FD91FE857F84F22
:101B2000408151818BED97E0BE0125E030E005E07A
:101B300010E0E92CF82C0E94C127DF91CF911F9172
:101B40000F91FF90EF90DF90CF90BF90AF909F905C
:101B50008F907F906F9008958DE89AE00E94761E96
:101B60009093D1078093D0070D976CF081E090E0BF
:101B70009093D5078093D40784E090E090933D073D
:101B800080933C0708950E94FB0A8BED97E06AE082
:101B900070E044E850E00E94A3258BED97E066ECEE
:101BA00073E00E9455218BED97E06EE670E044E80B
:101BB00050E00E94A3256091D0077091D1078BED72
:101BC00097E04AE050E00E94232180E39AE067ED2D
:101BD00073E00E9455216091D0077091D10780E396
:101BE0009AE04AE050E00E94362140916806509108
:101BF000690650936D0640936C068091D0079091D2
:101C0000D107840F951F90936906809368062091F1
:101C1000D6073091D7072817390724F4309369067F
:101C200020936806609168067091690682E090E0F2
:101C30000E941D0D60ED77E080E090E00E94121A96
:101C4000809168069091690690936D0680936C066A
:101C50000E94F209BC019093690680936806409146
:101C60006C0650916D0682E090E00E941D0D80E3AD
:101C70009AE069EE73E00E945521609168067091C8
:101C8000690680E39AE04AE050E00E94362181E054
:101C900090E09093D3078093D20780E39AE06DEFB2
:101CA00073E00E9458218091680690916906909394
:101CB0006D0680936C060895AF92BF92CF92DF922B
:101CC000EF92FF920F931F9380913E0790913F07F1
:101CD000892BD1F482E796E06BED77E040E050E0AD
:101CE00020E030E000E010E0EE24FF24B0E8CB2E4E
:101CF000D12CABE6AA2EB12C0E943A188EE190E0CE
:101D00009093D7078093D60780913E0790913F0725
:101D10000197D1F488E796E06BED77E040E050E082
:101D200020E030E000E010E0EE24FF24F0E8CF2EC9
:101D3000D12CE2E8AE2EB12C0E943A1884E290E059
:101D40009093D7078093D60781E090E061E070E040
:101D500041E050E00E941D0D82E090E061E070E003
:101D600041E050E00E941D0D1F910F91FF90EF90F8
:101D7000DF90CF90BF90AF900895CF92DF92EF9217
:101D8000FF920F931F937B018C013DE8C32E3AE035
:101D9000D32EC6016E2D0E94B11E5527412F302F24
:101DA0002F2DC601622F0E94B11E9801442755278E
:101DB000C601622F0E94B11EE12EFF2400271127C9
:101DC000C6016E2D0E94B11E1F910F91FF90EF90E2
:101DD000DF90CF9008956F927F928F929F92AF92F3
:101DE000BF92CF92DF92EF92FF920F931F93CF9308
:101DF000DF938BED97E068E270E040E950E00E94ED
:101E0000A3258BED97E06FEF7FEF40E050E00E945D
:101E1000B5258BED97E060E174E00E9455218BEDD4
:101E200097E060E570E040E950E00E94A3258BED6B
:101E300097E06FEF7FEF40E050E00E94B5258BED1B
:101E400097E068E174E00E9455218BED97E06CE12A
:101E500070E044E950E020E230E002E910E0A0E266
:101E6000EA2EF12CF6E9CF2ED12CE4E0AE2EEDEFE8
:101E7000BE2E0E9414238BED97E062E670E044E9E9
:101E800050E02EE530E0BEE5EB2EF12C0E9414234D
:101E9000C1E0D0E0A1E06A2E712C8824992481E071
:101EA0000E94881922E087329207F4F18BED97E0C7
:101EB00062E670E044E950E02EE530E002E910E02F
:101EC000FEE5EF2EF12CE6E9CE2ED12CB0EEAB2EB6
:101ED000B7E0BB2E0E941423C330D10591F08BEDE7
:101EE00097E069E770E04EE350E029E730E00AE36D
:101EF00010E0ADE7EA2EF12CFCE3CF2ED12C0E94AE
:101F00001423C615D70509F09CC0C330D1050CF0C9
:101F100097C080913E0790913F07019690933F07AD
:101F200080933E07219641C0825C91400CF03FC0F7
:101F30008BED97E06CE170E044E950E020E230E0A6
:101F400002E910E0E0E2EE2EF12CB6E9CB2ED12C26
:101F5000A0EEAA2EA7E0BA2E0E941423C330D1050A
:101F600091F08BED97E060E070E04CE350E024E00E
:101F700030E00AE310E0F4E0EF2EF12CEEE3CE2E99
:101F8000D12C0E941423C615D70509F05AC0C130C0
:101F9000D10509F455C080913E0790913F07019704
:101FA00090933F0780933E0721973E014FC08BEDF2
:101FB00097E06CE170E044E950E020E230E002E9B3
:101FC00010E0B0E2EB2EF12CA6E9CA2ED12CF4E001
:101FD000AF2EFDEFBF2E0E9414238BED97E062E63B
:101FE00070E044E950E02EE530E0EEE5EE2EF12C15
:101FF0000E941423C330D10521F18BED97E060E0FE
:1020000070E04CE350E024E030E00AE310E0B4E09C
:10201000EB2EF12CAEE3CA2ED12C0E9414238BEDB3
:1020200097E069E770E04EE350E029E730E0FDE734
:10203000EF2EF12CECE3CE2ED12C0E94142301C004
:102040003E0181E08816910409F0E5C0C130D10558
:10205000F9F48BED97E060E570E040E950E00E9414
:10206000A3258BED97E06FEF7FEF40E050E00E94FB
:10207000B5258BED97E068E174E00E94552182E779
:1020800096E06BED77E040E050E020E030E022C0E9
:10209000C230D10509F066C08BED97E060E570E0D5
:1020A00040E950E00E94A3258BED97E06FEF7FEFB2
:1020B00040E050E00E94B5258BED97E06AE174E0C6
:1020C0000E94552188E796E06BED77E040E050E014
:1020D00027E130E00AE010E0B4E0EB2EF12CABE6B3
:1020E000CA2ED12CFBE6AF2EB12C0E943A188BEDF4
:1020F00097E060E040E02FEF0E9439287C018BEDF3
:1021000097E068E070E042E050E02FE630E00FE654
:1021100010E00E9435228BED97E060E070E04CE328
:1021200050E024E030E00AE310E0E4E0EE2EF12C91
:10213000BEE3CB2ED12CA4E0AA2EADEFBA2E0E9486
:1021400014238BED97E069E770E04EE350E029E758
:1021500030E0FDE7EF2EF12CECE3CE2ED12C0E94E7
:10216000142357C0C330D10521F041E0842E912CB7
:1021700052C08BED97E060E570E040E950E00E94CE
:10218000A3258BED97E06FEF7FEF40E050E00E94DA
:10219000B5258BED97E06CE174E00E9455218BED45
:1021A00097E060E070E040E050E020E830E002E8D6
:1021B00010E0EE24FF240E94C1278BED97E06AE037
:1021C00070E04CE350E00E94A3258BED97E062E0C5
:1021D0000E94A9258BED97E06FEF7FEF0E94AF255E
:1021E0008BED97E06EE174E00E9455218BED97E056
:1021F0006AE070E04CE450E00E94A3258BED97E08C
:1022000068E274E00E9455218BED97E061E00E9446
:10221000A9258824992489E00E94B31B892B09F001
:102220003ECE239739F083E090E090933D07809372
:102230003C0704C010923D0710923C07DF91CF91FC
:102240001F910F91FF90EF90DF90CF90BF90AF90D4
:102250009F908F907F906F9008958F929F92AF92F2
:10226000BF92CF92DF92EF92FF920F931F93BBED3D
:102270008B2EB7E09B2EC40160E070E00E94A62781
:10228000C4016EE170E046E850E00E94A325C4015D
:102290006FEF7FEF0E94AF25C40162E374E00E94FC
:1022A000552182E796E0B40140E050E020E030E0C4
:1022B0000AE010E0A4E0EA2EF12CFBE6CF2ED12CB0
:1022C000EBE6AE2EB12C0E943A18C40160E040E06B
:1022D0002FEF0E9439287C01C40168E070E042E0E1
:1022E00050E02FE630E00FE610E00E943522C401F6
:1022F00060E070E04CE350E024E030E00AE310E0FE
:10230000B4E0EB2EF12CAEE3CA2ED12CF4E0AF2ECC
:10231000FDEFBF2E0E941423C40169E770E04EE375
:1023200050E029E730E0EDE7EE2EF12CBCE3CB2EB8
:10233000D12C0E9414230E94EB0E1F910F91FF904D
:10234000EF90DF90CF90BF90AF909F908F900895C7
:102350002F923F924F925F926F927F928F929F92B5
:10236000AF92BF92CF92DF92EF92FF920F931F93A3
:10237000DF93CF93CDB7DEB72C970FB6F894DEBFBF
:102380000FBECDBF80913E0790913F07009759F453
:1023900004E010E02BE630E038872F8385E090E002
:1023A0009E838D8317C0019779F405E010E0E2E881
:1023B000F0E0F887EF8326E030E03E832D8381E074
:1023C00090E09C838B8308C000E010E018861F8299
:1023D0001E821D821C821B8280E39AE060E474E00E
:1023E0000E945821ED81FE81EE0FFF1FFA87E987D9
:1023F00023E030E0201B310B3A832983180156E09B
:10240000852E912C8AEF9FEF880E991EC101817055
:102410009070EB81FC818E0F9F1F29813A812901E9
:10242000662457FC6094762CF401EE0FFF1FFC87A6
:10243000EB8726E030E0820E931E019709F08AC0F8
:102440008F8198856D817E810E94AE41CB01289E4F
:10245000B001299E700D389E700D1124882777FDDC
:102460008095982F0E949C400E94D7405B016C0190
:102470008F81988569857A850E94AE41882777FD8E
:102480008095982F0E949C400E94D7407B018C0130
:10249000C301B2010E949C409B01AC01C801B7017D
:1024A0000E9404409B01AC01C601B5010E94054099
:1024B0000E9469405B0130E4432E37E0532EEB85E8
:1024C000FC854E0E5F1E28E8622E27E0722E6E0EEF
:1024D0007F1E29E630E03C872B879DEFC92E9FEFBA
:1024E000D92EEB85FC85BF01882777FD8095982F35
:1024F0000E949C400E94D7407B018C01B601882736
:1025000077FD8095982F0E949C409B01AC0160E074
:1025100070E080E291E40E9404409B01AC01C8019C
:10252000B7010E9405400E946940F20161937193D6
:102530002F01F301A192B1923F012B853C852551DA
:1025400030403C872B870894C11CD11C2B5E3F4F29
:1025500041F686C08F8198856D817E810E94AE4153
:10256000FB012E9EB0012F9E700D3E9E700D11241A
:10257000882777FD8095982F0E949C400E94D74025
:102580005B016C018F81988569857A850E94AE41D7
:10259000882777FD8095982F0E949C400E94D74005
:1025A0007B018C01C301B2010E949C409B01AC01E4
:1025B000C801B7010E9404409B01AC01C601B501EE
:1025C0000E9405400E9469405B0180E4482E87E03C
:1025D000582E2B853C85420E531E08E8602E07E0DE
:1025E000702E620E731E1C861B8612E0C12ED12C2B
:1025F000EB85FC85BF01882777FD8095982F0E9489
:102600009C400E94D7407B018C01B601882777FD52
:102610008095982F0E949C409B01AC0160E070E087
:1026200080E291E40E9404409B01AC01C801B70123
:102630000E9405400E946940F201619371932F014D
:10264000F301A192B1923F012B853C852B5E3F4F58
:102650003C872B870894C108D1082E37310541F6F5
:1026600008942108310886E090E0880E991EE981DF
:10267000FA813196FA83E983FFEF2F16FFEF3F06C9
:1026800009F0C0CE2C960FB6F894DEBF0FBECDBFBA
:10269000CF91DF911F910F91FF90EF90DF90CF903E
:1026A000BF90AF909F908F907F906F905F904F9072
:1026B0003F902F900895AF92BF92CF92DF92EF920A
:1026C000FF920F931F93CF93DF935C01C2E0D0E0A2
:1026D00071E0C72ED12CE12CF12C87E00E948819E3
:1026E00080FF0CC0D701C6010C2E04C0880F991FB3
:1026F000AA1FBB1F0A94D2F7080F191F62E370E0EC
:1027000080E090E00E94121A8FEFCF3ED80711F0C0
:102710002197E3CF0E94CA3F64E670E00E94AE4179
:10272000800F911FB5010E94AE419C012F5F3F4F6A
:10273000C901DF91CF911F910F91FF90EF90DF9032
:10274000CF90BF90AF900895EF92FF920F931F9399
:1027500080916E0690916F060E945B139C0190938E
:10276000D1078093D00786E090E090936F06809326
:102770006E068091D807882341F0220F331F3093D3
:10278000D1072093D0071092D8078091DA078823C9
:1027900041F080917006909171069093D1078093DB
:1027A000D0078BED97E060E070E044E850E020E86F
:1027B00030E000EA10E0EE24FF240E94C1278BEDF8
:1027C00097E06FEF7FEF40E050E00E94B5258BED82
:1027D00097E069E170E044E850E00E94A3258BEDAA
:1027E00097E062E474E00E9455218BED97E064E687
:1027F00070E044E850E00E94A3256091D0077091FA
:10280000D1078BED97E04AE050E00E9423218DE84C
:102810009AE06091D0070E94B11E80E39AE06EE4D6
:1028200074E00E9455216091D0077091D10780E338
:102830009AE04AE050E00E943621209166063091ED
:10284000670630936B0620936A068091D0079091BB
:10285000D107820F931F909367068093660620919D
:10286000D6073091D7072817390724F43093670625
:102870002093660680E39AE069E574E00E945521A2
:10288000609166067091670680E39AE04AE050E046
:102890000E94362180E39AE067E674E00E945521A9
:1028A00060916A0670916B0680E39AE04AE050E01E
:1028B0000E943621609166067091670640916A0613
:1028C00050916B0681E090E00E941D0D60ED77E075
:1028D00080E090E00E94121A80916606909167064F
:1028E00090936B0680936A060E94F20990936706A4
:1028F0008093660680E39AE069E574E00E945521C2
:10290000609166067091670680E39AE04AE050E0C5
:102910000E94362180E39AE067E674E00E94552128
:1029200060916A0670916B0680E39AE04AE050E09D
:102930000E943621609166067091670640916A0692
:1029400050916B0681E090E00E941D0D80E39AE0BB
:1029500062E774E00E9455216091660670916706F7
:1029600080E39AE04AE050E00E94362180916606BA
:102970009091670690936B0680936A0682E090E0E0
:102980009093D3078093D2071F910F91FF90EF9000
:102990000895CF93DF9380E39AE060E874E00E94AB
:1029A000582168EE73E080E090E00E94121A8DE0FA
:1029B00061E00E94CD1A8DE00E94B31B892BD9F4EF
:1029C00080E39AE066EA74E00E94582182E090E099
:1029D0000E945B13EC018130910521F48DE89AE0AF
:1029E00062E006C08230910591F48DE89AE061E0E2
:1029F0000E94B11E0CC08DE89AE00E94451E181678
:102A00001906CCF78DE89AE00E94761EEC01CE0103
:102A1000DF91CF9108958F929F92AF92BF92CF9204
:102A2000DF92EF92FF921F93CF93DF93182F4A010B
:102A30005B010E94041A6B017C01C80CD91CEA1CC2
:102A4000FB1CC12FD0E08DE89AE00E94451E8C1738
:102A50009D0784F4B7FC07C00E94041A6C157D051D
:102A60008E059F0538F461E070E080E090E00E9400
:102A7000121AE9CF8DE89AE00E94451E20E08C17DB
:102A80009D070CF021E0822FDF91CF911F91FF90E5
:102A9000EF90DF90CF90BF90AF909F908F90089570
:102AA000AF92BF92CF92DF92EF92FF920F931F935C
:102AB000CF93DF937B018C01C1E0D0E0C130D10521
:102AC00099F481E04FEF5FEF6FEF7FEF0E940B15FE
:102AD0008823A1F38DE89AE00E94761E8334910545
:102AE00069F7C2E0D0E0EACFC230D105C9F481E095
:102AF00048EE53E060E070E00E940B158823E1F29D
:102B00000E94A20A5B016C018DE89AE061E40E94D8
:102B1000B11EC801B7010E94BD0EC3E0D0E0CECF08
:102B2000C330D10509F05EC081E048EE53E060E0BB
:102B300070E00E940B15882309F454C004C083344C
:102B400011F4C2E0D0E08DE89AE00E94451E18160C
:102B500019060CF0B3CFC330D10509F0AFCF8DE823
:102B60009AE00E94761E813451F7C6E0D0E0EBCFA8
:102B700084E048EE53E060E070E00E940B1588238B
:102B800009F49ACF0E94A20A5B016C01C801B70147
:102B90000E94BD0EC5E0D0E091CFC530D10531F522
:102BA00081E048EE53E060E070E00E940B1588235E
:102BB00009F482CF8DE89AE00E94451E7FCF80E322
:102BC0009AE06EEA74E00E945821B501C601DF91D7
:102BD000CF911F910F91FF90EF90DF90CF90BF901A
:102BE000AF900895C430D105C1F6C2CF269709F041
:102BF00063CFE5CFAF92BF92CF92DF92EF92FF9279
:102C00000F931F937B018C0181E090E0813091054F
:102C100091F480E39AE06CEB74E00E9458218DE817
:102C20009AE063E40E94B11EC801B7010E94BD0E84
:102C300082E090E0EBCF029769F581E048EE53E047
:102C400060E070E00E940B158823F1F28DE89AE0B5
:102C50000E94761E81349105B9F680E39AE062EC19
:102C600074E00E94582184E048EE53E060E070E098
:102C70000E940B15882341F20E94A20AD62EC72E6D
:102C8000B82EA92E8DE89AE061E40E94B11E83E07F
:102C900090E0BCCF6D2D7C2D8B2D9A2D1F910F9127
:102CA000FF90EF90DF90CF90BF90AF900895AF92DC
:102CB000BF92CF92DF92EF92FF920F931F9380E328
:102CC0009AE066EC74E00E94582180E39AE068ED97
:102CD00074E00E9458210E9479095B016C0180E335
:102CE0009AE06DEF74E00E94582167EA71E480E099
:102CF00090E0A6019501AFEFEA2EAFEFFA2EAFEF0D
:102D00000A2FAFE71A2F0E9496047B018C018DE0F9
:102D100061E00E94CD1A8DE00E94B31B892B59F40B
:102D200080E39AE068E275E00E945821C801B7018B
:102D30000E94FA150AC080E39AE063E575E00E94FC
:102D40005821C801B7010E945015A6019501FFEF57
:102D5000EF2EFFEFFF2EFFEF0F2FFFE71F2F0E9439
:102D6000960480E39AE06DEF73E00E94582111C051
:102D70008DE89AE00E94761EBC0180E39AE04AE06A
:102D800050E00E94232161E070E080E090E00E942A
:102D9000121A8DE89AE00E94451E1816190644F38F
:102DA00080E39AE06EE775E00E94582180E39AE0A4
:102DB0006DE875E00E94582180E090E01F910F912E
:102DC000FF90EF90DF90CF90BF90AF9008950E945A
:102DD00033080E94880A0E9457160E94C9149093D3
:102DE000D3078093D2070E94A8110E941E050E945B
:102DF000B8090E945C0E0E94880A0E94880A80918D
:102E0000D2079091D307019709F05CC060ED77E09D
:102E100080E090E00E94121A0E94FB0A0E94D30CEC
:102E20008091D907882349F082E090E09093D507FC
:102E30008093D4071092D907ABC00E94A4132091AD
:102E400066063091670680913E0790913F07009794
:102E500019F42E3131052CF4019759F4243231053F
:102E600044F08091D2079091D3079093D507809337
:102E7000D4078091D4079091D507892B09F180E37D
:102E80009AE069EB75E00E9455216091D20770913C
:102E9000D30780E39AE04AE050E00E94232180E3D8
:102EA0009AE060EC75E00E9455216091D407709122
:102EB000D50780E39AE04AE050E00E94362168C0DE
:102EC0000E94880A8091D2079091D307029709F057
:102ED00094CF0E94FB0A80E39AE06AEC75E00E94BE
:102EE00055216091D2077091D30780E39AE04AE0C0
:102EF00050E00E94362180E39AE064ED75E00E9484
:102F000058218BED97E06FEF7FEF40E050E00E949B
:102F1000B5258BED97E061E00E94BB258BED97E036
:102F200060E070E044E850E00E94A3258BED97E05C
:102F300064ED75E00E9458210E94880A8DE89AE0AD
:102F40000E94451E18161906CCF70E94AC0D209160
:102F500068063091690680913E0790913F0700977F
:102F600019F42E3131052CF4019759F4243231052E
:102F700044F08091D2079091D3079093D507809326
:102F8000D4078091D4079091D507892B09F433CFCA
:102F900084E090E090933D0780933C0780E090E0D0
:102FA000089580913C0790913D07009719F40E9485
:102FB0005707F7CF8130910519F40E942D11F1CFF9
:102FC0008230910519F40E94A808EBCF8330910557
:102FD00019F40E94E716E5CF049719F70E94D80765
:102FE000E0CF0F930E946B1A80E39AE040E855E22D
:102FF00060E070E00E94BF1D8DE89AE040E855E275
:1030000060E070E00E94BF1D8BED97E062E00E94DF
:10301000652980E39AE064EF75E00E9455218CEA0F
:103020009AE065E04FEF2FEF0FEF0E94662D8823A7
:1030300051F480E39AE06CE076E00E94582180E051
:1030400090E00F91089580E39AE064E176E00E94B9
:10305000582189E060E00E94CD1A89E061E00E9479
:10306000801B8BED97E060E070E00E94A6270E9435
:10307000D117FDCF2F923F924F925F926F927F9226
:103080008F929F92AF92BF92CF92DF92EF92FF9278
:103090000F931F93DF93CF93CDB7DEB7C654D040C5
:1030A0000FB6F894DEBF0FBECDBF98AF8FAB7AAF2F
:1030B00069AF5CAF4BAF4901F02E1601BEAEADAEAD
:1030C0008DB79EB721969FAF8EAF2197CE01019607
:1030D0000E94B429AFA9B8AD4D915C91CE014C9638
:1030E0006CEA7AE021E00E94342C8E8D9F8D9C83C7
:1030F0008B8388A199A1AAA1BBA18D839E83AF8355
:10310000B8878CA19DA1AEA1BFA189879A87AB8703
:10311000BC87DE011D96FE01B8968DE001900D92F0
:103120008150E1F78DA99EA99B8F8A8F2E0108946B
:10313000411C511CC2010E94042A182FCE014C963A
:103140000E94C7291123A1F480E39AE065E376E0A9
:103150000E945521EFA9F8AD6081718180E39AE06A
:103160000E94552180E39AE067E20E945320A9C0A3
:103170002F2D2150220D0E2D0150FDAD0F0F89ADC9
:103180009AAD6F2D4E2D0E9450263101660C771C92
:103190005401CC24DD2488249924C201542C492EC6
:1031A000ABADBCADCD01A0E0B0E027968CAF9DAF3C
:1031B000AEAFBFAF279778C0FDB6EEB62296FFAE92
:1031C00022972396EFAE23978DB79EB7861997095E
:1031D0000FB6F8949EBF0FBE8DBF0DB71EB70F5F21
:1031E0001F4FAFA9B8AD12962D913C91139740E0B7
:1031F00050E0C601B5010E947B41AB01BC0127969E
:103200008CAD9DADAEADBFAD2797480F591F6A1F5E
:103210007B1F440F551F661F771F852D942D0E941D
:10322000232A852D942DB801A3010E94352A8615E5
:10323000970519F4EE24FF2420C080E39AE066E4A9
:1032400076E00E945821852D942D0E94112A8F2D01
:103250009E2D9C010FB6F8943EBF0FBE2DBF31C00E
:10326000D8017C9111966C9189AD9AAD0E949426FB
:103270000894E11CF11C0E5F1F4FE214F30480F36D
:1032800022968FAD229723969FAD23979C010FB670
:10329000F8943EBF0FBE2DBF0894811C911C08946A
:1032A000A11CB11CC11CD11CEDADFEAD8E169F063C
:1032B00008F482CF852D942D0E94112A852D942DFE
:1032C00002C0CE0101960E94C72921968EAD9FAD06
:1032D00021970FB6F8949EBF0FBE8DBFCA5BDF4F1C
:1032E0000FB6F894DEBF0FBECDBFCF91DF911F9117
:1032F0000F91FF90EF90DF90CF90BF90AF909F9095
:103300008F907F906F905F904F903F902F90089597
:10331000382F863308F0365320917B00832F869513
:103320008695869590E08170907043E0880F991F94
:103330004A95E1F7277F282B20937B0037708091F7
:10334000B4068295880F880F807C832B80937C0045
:1033500080917A00806480937A0080917A0086FD63
:10336000FCCF2091780040917900942F80E030E0EC
:10337000282B392BC90108951F920F920FB60F9277
:1033800011242F933F938F939F93AF93BF9380917B
:103390000B0890910C08A0910D08B0910E08309187
:1033A0000F080196A11DB11D232F2D5F2D3720F091
:1033B0002D570196A11DB11D20930F0880930B0876
:1033C00090930C08A0930D08B0930E088091070805
:1033D00090910808A0910908B0910A080196A11DD2
:1033E000B11D8093070890930808A0930908B09333
:1033F0000A08BF91AF919F918F913F912F910F90AC
:103400000FBE0F901F9018958FB7F89420910B085E
:1034100030910C0840910D0850910E088FBFB901F2
:10342000CA0108959B01AC017FB7F8948091070809
:1034300090910808A0910908B0910A0866B5A89B68
:1034400005C06F3F19F00196A11DB11D7FBFBA2FB6
:10345000A92F982F8827860F911DA11DB11D62E00D
:10346000880F991FAA1FBB1F6A95D1F7BC012DC0F9
:10347000FFB7F8948091070890910808A091090877
:10348000B0910A08E6B5A89B05C0EF3F19F0019678
:10349000A11DB11DFFBFBA2FA92F982F88278E0F0E
:1034A000911DA11DB11DE2E0880F991FAA1FBB1F2E
:1034B000EA95D1F7861B970B885E9340C8F221509E
:1034C00030404040504068517C4F21153105410546
:1034D000510571F60895789484B5826084BD84B5F1
:1034E000816084BD85B5826085BD85B5816085BDFF
:1034F000EEE6F0E0808181608083E1E8F0E0108218
:10350000808182608083808181608083E0E8F0E058
:10351000808181608083E1EBF0E080818460808342
:10352000E0EBF0E0808181608083E1E9F0E0808180
:1035300082608083808181608083E0E9F0E0808127
:1035400081608083E1EAF0E0808182608083808115
:1035500081608083E0EAF0E0808181608083E1E245
:10356000F1E0808182608083808181608083E0E2FD
:10357000F1E0808181608083EAE7F0E0808184600F
:10358000808380818260808380818160808380816C
:10359000806880831092C1000895CF93DF93482FF5
:1035A00050E0CA0188589E4FFC0134914E5C5E4F3A
:1035B000FA018491882369F190E0880F991FFC013A
:1035C000EC51FF4FA591B491FC01E250FF4FC59122
:1035D000D491662351F42FB7F8948C91932F909542
:1035E00089238C93888189230BC0623061F42FB7C3
:1035F000F8948C91932F909589238C938881832BB9
:1036000088832FBF06C09FB7F8948C91832B8C932F
:103610009FBFDF91CF910895893009F449C08A3066
:10362000A0F4843051F1853040F4823079F1833058
:1036300000F5813009F063C026C0873079F1883009
:1036400098F5863009F05BC025C08D3009F442C082
:103650008E3028F48B30B1F18C30C0F52DC0803124
:1036600009F442C0813109F445C08F3009F047C0E8
:1036700037C0809180008F7703C0809180008F7D5C
:1036800080938000089584B58F7702C084B58F7DC4
:1036900084BD08958091B0008F7703C08091B00001
:1036A0008F7D8093B0000895809190008F7707C040
:1036B000809190008F7D03C080919000877F8093E0
:1036C000900008958091A0008F7707C08091A0009E
:1036D0008F7D03C08091A000877F8093A000089514
:1036E000809120018F7703C0809120018F7D80938E
:1036F0002001089580912001877F80932001089503
:10370000FF920F931F93F62E482F50E0CA01825468
:103710009E4FFC012491CA0188589E4FFC011491D0
:103720004E5C5E4FFA0104910023C9F0222319F088
:10373000822F0E940C1BE02FF0E0EE0FFF1FE250E3
:10374000FF4FA591B4919FB7F894FF2021F48C917D
:103750001095812302C08C91812B8C939FBF1F9168
:103760000F91FF9008950F931F93482F50E0CA01C7
:1037700082549E4FFC012491CA0188589E4FFC013F
:1037800004914E5C5E4FFA011491112319F420E06C
:1037900030E015C0222319F0822F0E940C1B812FCC
:1037A00090E0880F991F885E9E4FFC01A591B4910F
:1037B0008C9120E030E0802311F021E030E0C9015D
:1037C0001F910F9108951F920F920FB60F920BB693
:1037D0000F9211242F933F934F938F939F93EF93C7
:1037E000FF934091C60020915008309151082F5FFF
:1037F0003F4F2F73307080915208909153082817D3
:10380000390759F0E0915008F0915108E05FF74F07
:1038100040833093510820935008FF91EF919F917E
:103820008F914F913F912F910F900BBE0F900FBE34
:103830000F901F9018951F920F920FB60F920BB614
:103840000F9211242F933F934F938F939F93EF9356
:10385000FF934091CE002091D8083091D9082F5F76
:103860003F4F2F7330708091DA089091DB08281752
:10387000390759F0E091D808F091D908E856F74F88
:1038800040833093D9082093D808FF91EF919F91FE
:103890008F914F913F912F910F900BBE0F900FBEC4
:1038A0000F901F9018951F920F920FB60F920BB6A4
:1038B0000F9211242F933F934F938F939F93EF93E6
:1038C000FF934091D60020916009309161092F5FEC
:1038D0003F4F2F73307080916209909163092817D0
:1038E000390759F0E0916009F0916109E05EF64F07
:1038F00040833093610920936009FF91EF919F917C
:103900008F914F913F912F910F900BBE0F900FBE53
:103910000F901F9018951F920F920FB60F920BB633
:103920000F9211242F933F934F938F939F93EF9375
:10393000FF93409136012091E8093091E9092F5F0A
:103940003F4F2F7330708091EA099091EB0928174F
:10395000390759F0E091E809F091E909E855F64F87
:1039600040833093E9092093E809FF91EF919F91FB
:103970008F914F913F912F910F900BBE0F900FBEE3
:103980000F901F9018951F920F920FB60F920BB6C3
:103990000F9211242F933F938F939F93EF93FF9355
:1039A00020919408309195088091960890919708FD
:1039B0002817390731F48091C1008F7D8093C100B1
:1039C00014C0E0919608F0919708EC5AF74F2081C7
:1039D000809196089091970801968F7390709093BC
:1039E0009708809396082093C600FF91EF919F91CE
:1039F0008F913F912F910F900BBE0F900FBE0F90A4
:103A00001F9018951F920F920FB60F920BB60F9240
:103A100011242F933F938F939F93EF93FF932091C4
:103A20001C0930911D0980911E0990911F092817CA
:103A3000390731F48091C9008F7D8093C90014C08B
:103A4000E0911E09F0911F09E452F74F2081809107
:103A50001E0990911F0901968F73907090931F0912
:103A600080931E092093CE00FF91EF919F918F913B
:103A70003F912F910F900BBE0F900FBE0F901F9094
:103A800018951F920F920FB60F920BB60F9211243A
:103A90002F933F938F939F93EF93FF932091A409CC
:103AA0003091A5098091A6099091A7092817390797
:103AB00031F48091D1008F7D8093D10014C0E091CA
:103AC000A609F091A709EC59F64F20818091A6092B
:103AD0009091A70901968F7390709093A709809396
:103AE000A6092093D600FF91EF919F918F913F916E
:103AF0002F910F900BBE0F900FBE0F901F90189537
:103B00001F920F920FB60F920BB60F9211242F93A4
:103B10003F938F939F93EF93FF9320912C0A3091C3
:103B20002D0A80912E0A90912F0A2817390731F417
:103B3000809131018F7D8093310114C0E0912E0A74
:103B4000F0912F0AE451F64F208180912E0A909136
:103B50002F0A01968F73907090932F0A80932E0AEC
:103B600020933601FF91EF919F918F913F912F917B
:103B70000F900BBE0F900FBE0F901F901895AF9235
:103B8000BF92DF92EF92FF920F931F93CF93DF9339
:103B9000EC017A018B01DD24403081EE580780E092
:103BA000680780E0780711F0DD24D39491E0A92E16
:103BB000B12CEC89FD89DD2069F0C5010E8C02C0B5
:103BC000880F991F0A94E2F7808360E079E08DE323
:103BD00090E005C0108260E874E88EE190E0A801F2
:103BE00097010E94C14121503040404050405695BD
:103BF00047953795279580E12030380720F0DD2064
:103C000011F0DD24D6CFE889F9893083EA89FB8970
:103C10002083EE89FF89408121E030E0C9010A8CD0
:103C200002C0880F991F0A94E2F7482B4083EE895F
:103C3000FF894081C9010B8C02C0880F991F0A942B
:103C4000E2F7482B4083EE89FF894081C9010C8C43
:103C500002C0880F991F0A94E2F7482B4083EE892F
:103C6000FF8980810D8C02C0220F331F0A94E2F776
:103C7000209528232083DF91CF911F910F91FF90F2
:103C8000EF90DF90BF90AF900895DC011C96ED910E
:103C9000FC911D97E05CFF4F2191319180819181D2
:103CA000281B390B2F733070C9010895DC011C9655
:103CB000ED91FC911D97E05CFF4F20813181E05434
:103CC000F040DF01AE5BBF4F8D919C91119728179B
:103CD000390719F42FEF3FEF07C08D919C91E80F42
:103CE000F91F8081282F30E0C9010895DC011C965E
:103CF000ED91FC911D97E05CFF4F20813181E054F4
:103D0000F040DF01AE5BBF4F8D919C91119728175A
:103D1000390719F42FEF3FEF10C08D919C91119747
:103D2000E80FF91F20818D919C91119701968F7357
:103D3000907011969C938E9330E0C9010895FC0118
:103D400086859785DC01A05CBF4FFC01EE5BFF4FD1
:103D50002D913C9111978081918128173907C1F7E6
:103D60000895CF93DF93EC01EE85FF85E05CFF4F74
:103D700020813181E054F0402F5F3F4F2F7330702E
:103D8000DF01AE5BBF4F8D919C91119728173907CA
:103D9000D1F3E05CFF4F80819181E054F040E80F67
:103DA000F91F6083EE85FF85E05CFF4F3183208340
:103DB000EE89FF89208181E090E00D8C02C0880FA0
:103DC000991F0A94E2F7282B208381E090E0DF918D
:103DD000CF9108951F931092330A1092320A28EE61
:103DE00033E040E050E02093340A3093350A4093AA
:103DF000360A5093370A65EE76E07093310A609385
:103E0000300A80E198E090933D0A80933C0A84E573
:103E100098E090933F0A80933E0A85EC90E090935F
:103E2000410A8093400A84EC90E09093430A809387
:103E3000420A80EC90E09093450A8093440A81EC1A
:103E400090E09093470A8093460A86EC90E0909326
:103E5000490A8093480A14E010934A0AB3E0B093E9
:103E60004B0AA7E0A0934C0AF5E0F0934D0AE1E07D
:103E7000E0934E0A1092520A1092510A2093530A6C
:103E80003093540A4093550A5093560A7093500A3F
:103E900060934F0A88E998E090935C0A80935B0AEC
:103EA0008CED98E090935E0A80935D0A8DEC90E033
:103EB0009093600A80935F0A8CEC90E09093620A82
:103EC0008093610A88EC90E09093640A8093630A7F
:103ED00089EC90E09093660A8093650A8EEC90E0FE
:103EE0009093680A8093670A1093690AB0936A0AEC
:103EF000A0936B0AF0936C0AE0936D0A1092710A1A
:103F00001092700A2093720A3093730A4093740AD5
:103F10005093750A70936F0A60936E0A80E299E07D
:103F200090937B0A80937A0A84E699E090937D0AC5
:103F300080937C0A85ED90E090937F0A80937E0ABF
:103F400084ED90E09093810A8093800A80ED90E068
:103F50009093830A8093820A81ED90E09093850A82
:103F60008093840A86ED90E09093870A8093860A76
:103F70001093880AB093890AA0938A0AF0938B0A57
:103F8000E0938C0A1092900A10928F0A2093910A63
:103F90003093920A4093930A5093940A70938E0A36
:103FA00060938D0A88EA99E090939A0A8093990A1F
:103FB0008CEE99E090939C0A80939B0A85E391E0B4
:103FC00090939E0A80939D0A84E391E09093A00AC7
:103FD00080939F0A80E391E09093A20A8093A10AC4
:103FE00081E391E09093A40A8093A30A86E391E091
:103FF0009093A60A8093A50A1093A70AB093A80AE3
:10400000A093A90AF093AA0AE093AB0A1F9108951E
:104010000895CF92DF92EF92FF920F931F93CF9369
:10402000DF937C016B018A01C0E0D0E00FC0D601B4
:104030006D916D01D701ED91FC910190F081E02D22
:10404000C7011995C80FD91F01501040011511055E
:1040500071F7CE01DF91CF911F910F91FF90EF90FB
:10406000DF90CF900895EF92FF920F931F938C01F2
:10407000DC01ED91FC910190F081E02D6DE019954E
:104080007C01D801ED91FC910190F081E02DC801F7
:104090006AE019959C012E0D3F1DC9011F910F91DA
:1040A000FF90EF900895EF92FF920F931F937C0182
:1040B000DC01ED91FC910190F081E02D19958C01CE
:1040C000C7010E943320080F191FC8011F910F91CB
:1040D000FF90EF900895CF93DF93DB010D900020C8
:1040E000E9F71197A61BB70BEC01E881F981028073
:1040F000F381E02DAD011995DF91CF9108954F9295
:104100005F927F928F929F92AF92BF92CF92DF92F7
:10411000EF92FF920F931F93DF93CF93CDB7DEB74C
:10412000A1970FB6F894DEBF0FBECDBF2C01742E41
:10413000CB01223008F42AE019A231E2C32ED12C9F
:10414000CC0EDD1E822E9924AA24BB24672D752F48
:10415000A50194010E94C14179018A01C801B701FA
:10416000A50194010E947B41472D461B0894C1087C
:10417000D1084A3014F4405D01C0495CF601408327
:10418000E114F1040105110521F07E2C5F2DC80119
:10419000DDCFC201B6010E946B20A1960FB6F89444
:1041A000DEBF0FBECDBFCF91DF911F910F91FF906A
:1041B000EF90DF90CF90BF90AF909F908F907F90C7
:1041C0005F904F900895CF92DF92EF92FF920F93FE
:1041D0001F93CF93DF93EC016A017B012115310519
:1041E00041F4E881F9810190F081E02D642F199567
:1041F0001FC02A303105D1F477FF17C0E881F9815B
:104200000190F081E02D6DE219958C01442755272E
:10421000BA014C195D096E097F09CE012AE00E949E
:104220007F209801280F391F04C02AE00E947F20B8
:104230009C01C901DF91CF911F910F91FF90EF90E9
:10424000DF90CF900895EF92FF920F931F937B0121
:104250009A010027F7FC0095102FB801A7010E94D2
:10426000E3201F910F91FF90EF900895CF92DF927E
:10427000EF92FF920F931F936C017B019A0100272D
:10428000F7FC0095102FB801A7010E94E3208C01D4
:10429000C6010E943320080F191FC8011F910F91FA
:1042A000FF90EF90DF90CF9008950E946B200895CB
:1042B000EF92FF920F931F937C010E946B208C0161
:1042C000C7010E943320080F191FC8011F910F91C9
:1042D000FF90EF900895FC011382128285EF96E023
:1042E0009183808375836483578346837187608756
:1042F00053874287158A158614861786168621E00D
:10430000248B8FEF9FEF938B828B918B808B268BEF
:1043100008952F923F924F925F926F927F928F9269
:104320009F92AF92BF92CF92DF92EF92FF920F9344
:104330001F93DF93CF9300D00F92CDB7DEB73C0130
:104340007C836B836A015901FA82E9822224332437
:104350009801241B350B37FF03C0309521953F4F43
:10436000C5014B815C81841B950B97FF03C0909521
:1043700081959F4F821793075CF481E0282E312CA2
:10438000C601CB80DC809C838B83C80185015C01E6
:104390008B819C81A816B90644F4C501AB80BC8012
:1043A0009C838B83C80186016C012501AB81BC8194
:1043B0004A1A5B0A7801EC18FD08F7FE04C0F09475
:1043C000E194F108F394C016D10624F088248A946D
:1043D000982C03C0B1E08B2E912CC20162E070E0FA
:1043E0000E94AE418B0125C0D301ED91FC912114B7
:1043F000310441F00480F581E02DC301B6014B8109
:104400005C8107C00480F581E02DC3016B817C8154
:10441000A60129813A8119950E191F0917FF04C0B9
:10442000C80CD91C040D151DEB81FC813196FC8351
:10443000EB834B815C81A416B506B4F60F900F9008
:104440000F900F90CF91DF911F910F91FF90EF9000
:10445000DF90CF90BF90AF909F908F907F906F90A4
:104460005F904F903F902F9008954F925F926F9280
:104470007F928F929F92AF92BF92CF92DF92EF92F4
:10448000FF920F931F936C015B014A0139012801D0
:10449000DC01ED91FC910284F385E02D87011995F3
:1044A000D601ED91FC91A40141505040440D551DA1
:1044B0000284F385E02DC601B50193011995D6015B
:1044C000ED91FC910084F185E02DC601B501A401B8
:1044D00092011995D601ED91FC910894A108B108BB
:1044E000A60CB71C0084F185E02DC601B501A4011E
:1044F000920119951F910F91FF90EF90DF90CF904F
:10450000BF90AF909F908F907F906F905F904F90F3
:104510000895CF92DF92EF92FF920F931F93DC01E9
:104520006B017801ED91FC918A0101501040020F5E
:10453000131F0680F781E02D960119951F910F91A9
:10454000FF90EF90DF90CF900895CF92DF92EF929F
:10455000FF920F931F93DC016A01C9017801ED916D
:10456000FC9111979B0121503040280F391F068084
:10457000F781E02DCD01860119951F910F91FF90D4
:10458000EF90DF90CF9008956F927F928F929F92DD
:10459000AF92BF92CF92DF92EF92FF920F931F9351
:1045A000CF93DF935C013A0169014801EB01C60E2C
:1045B000D71E0DC0D501ED91FC910084F185E02D51
:1045C000C501BE01A3019401870119952196CC155F
:1045D000DD0584F3DF91CF911F910F91FF90EF9054
:1045E000DF90CF90BF90AF909F908F907F906F9013
:1045F0000895EF92FF920F931F93FC017B01A0811E
:10460000B18120853185028513851E960D90BC9160
:10461000A02D60E070E040E050E0FD0119951F9191
:104620000F91FF90EF9008952F923F924F925F92DB
:104630006F927F928F929F92AF92BF92CF92DF92B2
:10464000EF92FF920F931F93DF93CF93CDB7DEB717
:1046500066970FB6F894DEBF0FBECDBF988B8F87DD
:104660002B013A0149011C8B0B8B1601BA8AA98ACE
:10467000041715073CF44B0129018B899C895C8B3D
:104680004B8B3C012B893C892216330644F4C7012D
:1046900074014C01C1012B883C889C8B8B8B4B890E
:1046A0005C894615570544F4C40142012C018B89ED
:1046B0009C897C8A6B8A3C016214730449F58414DA
:1046C00095041CF4B401920108C0481459041CF468
:1046D000B201940102C0B2019201E616F70614F489
:1046E000B70104C02E153F050CF49701AF85B889BA
:1046F000ED91FC9111972F5F3F4F261B370B0284E2
:10470000F385E02DCD01A30109891A891995BEC051
:10471000F401E419F509FC87EB872B893C892619FC
:1047200037093A872987A7014419550958874F83C4
:10473000C101861997099E838D83D701A819B909EC
:10474000BC83AB83F1012B893C89E21BF30BFA8319
:10475000E9832215330519F43E872D8706C04B895E
:104760005C89415050405E874D877301AA24BB2469
:10477000CC24DD2434C0C50169857A850E94AE4110
:104780009B01240D351DC6016D817E810E94AE41C5
:10479000DB01A40DB51DA217B3071CF4CD01D9018F
:1047A0009C018B859C85A80EB91EEF81F885CE0EE5
:1047B000DF1EEF85F889808191811196A21BB30BD2
:1047C000FC010284F385E02D8F859889B901A7014A
:1047D0009D0109891A8919950894E11CF11C2D8500
:1047E0003E852E153F053CF6C7014B895C89841B2D
:1047F000950BAB81BC818A9F60018B9FD00C9A9FE7
:10480000D00C1124C70186199709EF81F8858E9F76
:1048100030018F9F700C9E9F700C112434C0C60114
:1048200069817A810E94AE419B01280D391DC30127
:104830006D817E810E94AE41DB01A40DB51DA217E2
:10484000B3071CF4CD01D9019C014B815C81C40EDE
:10485000D51E8F819885680E791EEF85F889808135
:1048600091811196A21BB30BFC01A284B3848F85A6
:104870009889B901A7019D0109891A89F50119953E
:104880000894E11CF11C2E143F044CF666960FB6FA
:10489000F894DEBF0FBECDBFCF91DF911F910F9176
:1048A000FF90EF90DF90CF90BF90AF909F908F9050
:1048B0007F906F905F904F903F902F9008952F9230
:1048C0003F924F925F926F927F928F929F92AF92A0
:1048D000BF92CF92DF92EF92FF920F931F93DF93DD
:1048E000CF93CDB7DEB72F970FB6F894DEBF0FBECC
:1048F000CDBF5C015E834D8318870F83FA86E986FE
:10490000CB86DC0118968D919C91199768177907D1
:104910000CF0A4C01A968D919C911B9748175907CB
:104920000CF09CC0EC2DF0E0FF87EE87CF01880FE4
:10493000991F8E0F9F1F880F991F860F971F18169C
:1049400019060CF08BC0CF01F3E0880F991FFA9580
:10495000E1F7840F951F181619060CF07FC085E04B
:10496000289FA00111245A8349832B011B011C821B
:104970005C81553011F480E005C0E981FA81EC5F7B
:10498000FD4F84912C863D866D807E8043011B8285
:10499000C82EDD2480FF1CC0D501ED91FC91BB85A4
:1049A000B13049F40480F581E02DC501B201A301C5
:1049B0002F81388522C00684F785E02DC5016C85DE
:1049C0007D85A4012E853F858901EF80F88423C071
:1049D000E985FA852F813885E217F307E9F0D501DB
:1049E000ED91FC91BB85B13051F40480F581E02D4F
:1049F000C501B201A30129853A8519950DC0068428
:104A0000F785E02DC5016C857D85A4012E853F8548
:104A10008901E984FA841995EB81EF5FEB832E8598
:104A20003F85820E931E0894611C711CE83021F0B2
:104A3000D594C7948C2DACCF3C813F5F3C834E8591
:104A40005F85240E351E0894411C511C89819A8172
:104A500001969A838983363009F08ACF2F960FB654
:104A6000F894DEBF0FBECDBFCF91DF911F910F91A4
:104A7000FF90EF90DF90CF90BF90AF909F908F907E
:104A80007F906F905F904F903F902F900895CF92BE
:104A9000EF92FF920F931F93CF93DF93EC01262F9A
:104AA0006A3061F42C8930E003E0220F331F0A954D
:104AB000E1F78E859F85820F931F37C06D30C9F156
:104AC0006C857D854E855F8508891989EA88FB8814
:104AD000CC880E945F242C8986E0289FB001112495
:104AE0008C859D85680F791F7D876C878E898823CB
:104AF00001F1422F50E08AEF9FEF9C01429FC001DD
:104B0000439F900D529F900D112428853985820F67
:104B1000931F861797076CF413E0440F551F1A95DF
:104B2000E1F78E859F85840F951F9F878E871D8651
:104B30001C8681E090E0DF91CF911F910F91FF9053
:104B4000EF90CF900895FC0175876487578746875B
:104B50000895FC01662309F461E0648B0895FC016B
:104B6000738B628B718B608B0895FC01718B608BF2
:104B7000538B428B0895FC01668B08950895DC01E8
:104B800058968C915897882329F06EBD0DB407FE76
:104B9000FDCF089530E840E050E070E0832F90E0D2
:104BA000862397235996ED91FC915A9796962C91CE
:104BB0009697892B21F08081822B808304C080818D
:104BC0002095282320835B96ED91FC915C97808152
:104BD00097969C919797892B80835B96ED91FC919A
:104BE0005C97908197968C91979780958923808385
:104BF00036954F5F5F4F4830510581F608950F930A
:104C00001F938C01DC015F96ED91FC919097908150
:104C100099968C9199978095892380835D96ED91E3
:104C2000FC915E97908198968C91809589238083E2
:104C3000C8010E94BF25D8015D96ED91FC915E9759
:104C4000808198969C91892B80831F910F91089564
:104C50000F931F938C01DC015F96ED91FC9190976F
:104C6000808199969C919997892B80835D96ED918F
:104C7000FC915E97908198968C9180958923808392
:104C8000C8010E94BF25D8015D96ED91FC915E9709
:104C9000808198969C91892B80831F910F91089514
:104CA000CF92DF92EF92FF920F931F937C01162F0A
:104CB000C42ED22E6AE20E94FF25C70160E00E9446
:104CC0002826F70162A5610FC7010E942826C701A7
:104CD00060E00E942826F70162A56D0DC7010E94C1
:104CE0002826C7016BE20E94FF25C70160E00E94F1
:104CF0002826F70163A56C0DC7010E942826C7016D
:104D000060E00E942826F70163A5600FC7010E949A
:104D10002826C7016CE20E94FF251F910F91FF908A
:104D2000EF90DF90CF900895FF920F931F938C0127
:104D3000F62E672FDC015F96ED91FC9190978081B4
:104D400099969C919997892B80835D96ED91FC9122
:104D50005E97908198968C91809589238083C80175
:104D60000E94BF25C8016F2D0E94BF25D8015D9606
:104D7000ED91FC915E97808198969C91892B808320
:104D80001F910F91FF900895FF920F931F93CF9360
:104D9000DF93EC01F22E132F77FD2EC088859985C5
:104DA000681779074CF557FD27C08A859B854817FA
:104DB000590714F5262F2F5F042F0F5FCE010E9495
:104DC0005026EF8DF8A1808199A5892B8083ED8DE8
:104DD000FE8D908188A5809589238083CE01612FE7
:104DE0000E94BF25CE016F2D0E94BF25ED8DFE8D47
:104DF000808198A5892B8083DF91CF911F910F919E
:104E0000FF900895DF92EF92FF920F931F93CF933D
:104E1000DF93EC01FB017901D02E88859985681715
:104E20007907D4F52A853B8542175307ACF5C701AE
:104E3000840F951F281739071CF47901E41AF50A25
:104E4000042F01500E0DCE016E2F2E2F0E945026E2
:104E5000EF8DF8A1808199A5892B8083ED8DFE8D42
:104E6000908188A580958923808308C0CE01612F19
:104E70000E94BF25CE016D2D0E94BF250894E10838
:104E8000F1088FEFE8168FEFF80681F7ED8DFE8DB4
:104E9000808198A5892B8083DF91CF911F910F91FD
:104EA000FF90EF90DF900895DF92EF92FF920F93C3
:104EB0001F93CF93DF93EC01FA017901D02E28855F
:104EC000398562177307D4F58A859B85481759077A
:104ED000ACF5C701860F971F281739071CF4790115
:104EE000E61AF70A262F21502E0DCE014E2F0E2F37
:104EF0000E945026EF8DF8A1808199A5892B80838F
:104F0000ED8DFE8D908188A580958923808308C0D2
:104F1000CE01612F0E94BF25CE016D2D0E94BF25BD
:104F20000894E108F1088FEFE8168FEFF80681F793
:104F3000ED8DFE8D808198A5892B8083DF91CF91A7
:104F40001F910F91FF90EF90DF900895EF92FF92E5
:104F50000F931F93FC017B01A081B18120853185D6
:104F6000028513851E960D90BC91A02D60E070E027
:104F700040E050E0FD0119951F910F91FF90EF90D7
:104F80000895AF92BF92CF92DF92EF92FF920F936C
:104F90001F93CF93DF936C015901E801DC01189650
:104FA0002D913C911997621773070CF057C01A9610
:104FB000ED91FC911B974E175F070CF04FC0C50198
:104FC000860F971F281739071CF45901A61AB70A2C
:104FD000CE01840F951FE817F9071CF4EF01C41BDD
:104FE000D50B262F21502A0D042F01500C0FC6017E
:104FF0000E945026D6015F96ED91FC91909780819A
:1050000099969C919997892B80835D96ED91FC915F
:105010005E97908198968C918095892380838E01EC
:105020000EC0C6016F2D0E94BF25C6016E2D0E94C5
:10503000BF2521971C161D06A4F301501040101621
:10504000110614F4E501F6CFD6015D96ED91FC91C1
:105050005E97808198969C91892B8083DF91CF9178
:105060001F910F91FF90EF90DF90CF90BF90AF9086
:10507000089550E04C7F507033E0440F551F3A952F
:10508000E1F730E093E0359527959A95E1F7422BCB
:10509000532B70E0687F7070762F6627462B572B56
:1050A000CA010895662311F460E201C061E20E9422
:1050B000FF250895AF92BF92CF92DF92EF92FF92B9
:1050C0000F931F93CF93DF935C01FB01EB012196BC
:1050D000D49031C08E010F5F1F4FFE016491C50156
:1050E0000E94FF2578010894E11CF11CF801C4908E
:1050F0000C2D0F77E701102F08C0FE012196E491D7
:10510000C5016E2F0E94282611501123B1F7E70127
:10511000C00FD11DC7FE0EC0FE018491682F70E044
:105120006F3F710511F464EF71E0219680E090E02B
:105130000E94121ADA94DD2069F6DF91CF911F9157
:105140000F91FF90EF90DF90CF90BF90AF900895B8
:105150000F931F93CF93DF93EC018B011BA61AA62D
:105160008AA161E00E94CD1A89A161E00E94CD1A56
:10517000E9A14E2F50E0FA01EE5CFE4FE491F0E021
:10518000EE0FFF1FE250FF4F859194919E8F8D8F00
:10519000EAA12E2F30E0F901EE5CFE4FE491F0E041
:1051A000EE0FFF1FE250FF4F8591949198A38F8FD0
:1051B00048585E4FFA01849188A728583E4FF9015C
:1051C000849189A7888D882361F00E941B3E80E02E
:1051D0000E940A3E81E00E94FC3D80E00E94053E64
:1051E0003DC08DA161E00E94CD1A8CA161E00E94BA
:1051F000CD1AEDA14E2F50E0FA01EE5CFE4FE49186
:10520000F0E0EE0FFF1FE250FF4FA591B491BC8F6D
:10521000AB8FECA12E2F30E0F901EE5CFE4FE49154
:10522000F0E0EE0FFF1FE250FF4F859194919A8FAF
:10523000898F48585E4FFA0194919FA328583E4F9A
:10524000F90184918EA38C91909598239C93E98D7C
:10525000FA8D90818EA1809589238083ED8DFE8DBE
:10526000908188A58095892380838BA1882309F16B
:1052700061E00E94CD1A8BA161E00E94801B64EF67
:1052800071E080E090E00E94121A8BA160E00E9421
:10529000801B64EF71E080E090E00E94121A8BA105
:1052A00061E00E94801B64EF71E080E090E00E946A
:1052B000121A0115110521F0CE01B8010E945A28D9
:1052C000DF91CF911F910F9108951F93CF93DF939B
:1052D000EC01162F6FEF76E00E94A828112351F4FD
:1052E000CE016AE377E00E945A2882E08AA781E033
:1052F0008BA705C0CE0167E477E00E945A28CE0153
:1053000064E577E00E945A28123041F4CE0166E34A
:105310000E94FF25CE0160EC0E9428261F8BDF91A2
:10532000CF911F910895DF92EF92FF920F931F93F9
:105330008C01F62EE42ED22E60E870E040EA50E0B8
:105340000E946B218DE097E0F80191838083F1A2A8
:10535000E2A2D3A281E0808F15A214A21F910F9127
:10536000FF90EF90DF900895FC011382128288EE87
:1053700093E0A0E0B0E084839583A683B78385E2C1
:1053800097E091838083128E118E14860895FC011C
:1053900085E297E0918380830895FC01A18DB28D11
:1053A000109719F420E030E009C0ED91FC911197BD
:1053B0000190F081E02DCD0119959C01C90108955E
:1053C000DC015996ED91FC915A97309719F420E041
:1053D00030E018C0248935894689578983859485AA
:1053E000A585B685281B390B4A0B5B0B2030B0E82E
:1053F0003B07B0E04B07B0E05B0720F02FEF3FE743
:1054000040E050E0C9010895DC015996ED91FC910E
:105410005A97309711F480E008958681811181E0D8
:105420000895CF93DF93EC01898D9A8D009741F019
:105430000E94DC32898D9A8D0E94D73E1A8E198E79
:10544000DF91CF910895FC01818D928D009711F429
:1054500080E008950E94CC310895FC01818D928DE9
:10546000009711F00E9492320895FC01818D928D77
:10547000009719F420E030E003C00E94B3339C0190
:10548000C9010895DF93CF930F92CDB7DEB7FC012A
:10549000818D928D009749F0BE016F5F7F4F41E093
:1054A00050E00E94B333019719F02FEF3FEF03C094
:1054B0008981282F30E0C9010F90CF91DF910895A5
:1054C000EF92FF920F931F93DF93CF930F92CDB77D
:1054D000DEB77C01DC0159968D919C915A9700971B
:1054E00019F400E010E01FC0BE016F5F7F4F41E084
:1054F00050E00E94B333019719F00FEF1FEF13C074
:105500008981082F10E0D7015996ED91FC915A97A7
:105510004385548565857685415050406040704094
:10552000CF010E94CC31C8010F90CF91DF911F9124
:105530000F91FF90EF900895FC01818D928D00975F
:1055400019F420E030E003C00E94F8359C01C90145
:105550000895FC01818D928D009719F420E030E0D0
:1055600003C00E94B0379C01C9010895EF92FF92D9
:105570000F931F93CF93DF93EC01F62EE72E8A0152
:105580001B821A8288EE93E0A0E0B0E08C839D83BA
:10559000AE83BF8385E297E0998388838EE190E0B4
:1055A0000E943A3E9A8F898F009791F0DC018F2DEF
:1055B0009E2D9C01F9018EE101900D928150E1F741
:1055C000CE010C96B8014CE050E00E94F53F188ED9
:1055D000DF91CF911F910F91FF90EF90089582E09E
:1055E00090E0A0E0B0E08093AC0A9093AD0AA09365
:1055F000AE0AB093AF0A1092C30A1092CD0A10926D
:10560000CC0A87E397E09093CB0A8093CA0A109262
:10561000D00A1092ED0A1092EE0A1092F10A10923E
:10562000F30A08952F923F924F925F926F927F926A
:105630008F929F92AF92BF92CF92DF92EF92FF92A2
:105640000F931F93DF93CF93CDB7DEB7C954D040EC
:105650000FB6F894DEBF0FBECDBF582E492EFB010A
:105660003A01190180A191A1998B888B27E337E03A
:105670003F872E8782A18A8B83A18B8B84A18C8B01
:1056800085A196A1A7A1B0A58D8B9E8BAF8BB88F5E
:1056900081A592A5A3A5B4A5898F9A8FAB8FBC8F46
:1056A00085A596A5A7A5B0A98D8F9E8FAF8FB8A30E
:1056B00081A989A382A993A9A4A9B5A98AA39BA317
:1056C000ACA3BDA386A997A9A0ADB1AD8EA39FA39E
:1056D000A8A7B9A782AD93AD9BA78AA71FA61EA6B0
:1056E0003DA72CA71AAA7A018E01025F1F4F3CE248
:1056F000A32EB12CAC0EBD1E4E010894811C911C32
:1057000035C0D7018C918F3221F40894E11CF11C33
:105710002DC0422F4E194D3008F04CE0C42EDD2430
:10572000C401B701A6010E94F53FF401EC0DFD1D77
:105730001082C5010E94DC32C501B801A40121E03C
:105740000E943038882351F4E52DF42D1382128203
:1057500087E397E09183808316826AC0EC0CFD1C7E
:10576000C8010E94DC32C50158018C01C7016FE2FB
:1057700070E00E94EA3F9C01009719F6E618F708CE
:10578000F101F182E082E52DF42DD80112968D9180
:105790009C9113979383828387E397E0918380831F
:1057A00014968C911497848315968C911597858304
:1057B00016968C911697868317962D913D914D9153
:1057C0005C911A9727833087418752871B962D91CA
:1057D0003D914D915C911E9723873487458756876D
:1057E0001F962D913D914D915C9152972787308B5B
:1057F000418B528B53968C915397838B54962D915A
:105800003D914D915C915797248B358B468B578BEF
:1058100058962D913D914D915C915B97208F318FE2
:10582000428F538F5C968D919C915D97958F848F5D
:10583000852D942DC75BDF4F0FB6F894DEBF0FBEEA
:10584000CDBFCF91DF911F910F91FF90EF90DF902F
:10585000CF90BF90AF909F908F907F906F905F9010
:105860004F903F902F9008959F92AF92BF92CF920A
:10587000DF92EF92FF920F931F93DF93CF93CDB7F9
:10588000DEB7CA57D0400FB6F894DEBF0FBECDBF0B
:10589000C82E992E8A01D22E43E0A42EB12CAC0E34
:1058A000BD1EC501A8019E012F5F3F4F0E94122B14
:1058B000E980FA80E00EF11EF701808147E357E0AE
:1058C0002985882309F041C08D819E819CA38BA3EB
:1058D0005AA349A38F818DA388858EA32FA38A8580
:1058E0009B85AC85BD8588A799A7AAA7BBA78E85F0
:1058F0009F85A889B9898CA79DA7AEA7BFA78A89CC
:105900009B89AC89BD8988AB99ABAAABBBAB8E89AF
:105910008CAB8F89988DA98DBA8D8DAB9EABAFABBB
:10592000B8AF8B8D9C8DAD8DBE8D89AF9AAFABAF6F
:10593000BCAF8F8D98A19EAF8DAF8C2D992DBE01E0
:105940006F5D7F4F4AE556E0AAC0FE01EF5BFF4F57
:1059500011821082DE01DF9611965C934E93FE0158
:10596000EB5BFF4F10822223A9F02250223050F42B
:10597000CD016AEC7AE0A7012D2D0E9430388823F2
:1059800089F408C0CD01B501A7012D2D0E94303842
:10599000882329F48C2D992D0E94B42982C0C50139
:1059A0000E94DC32F6E0DF2259F0FE01ED5AFF4F93
:1059B0004081518162817381CE01CF960E94CC31AA
:1059C0009E01235A3F4FFE01EF5BFF4F8081918183
:1059D000F9019383828387E397E091838083FE01BB
:1059E000ED5BFF4F8081F9018483FE01EC5BFF4F8B
:1059F0008081F9018583FE01EB5BFF4F8081F90116
:105A00008683FE01EA5BFF4F80819181A281B38191
:105A1000F90187839087A187B287FE01E65BFF4F7C
:105A200080819181A281B381F90183879487A587C1
:105A3000B687FE01E25BFF4F80819181A281B38135
:105A4000F9018787908BA18BB28BFE01EE5AFF4F35
:105A50008081F901838BFE01ED5AFF4F8081918196
:105A6000A281B381F901848B958BA68BB78BFE0144
:105A7000E95AFF4F80819181A281B381F901808F22
:105A8000918FA28FB38FFE01E55AFF4F80819181E4
:105A9000F901958F848F8C2D992DB901A7010E9452
:105AA000B62A8C2D992DC658DF4F0FB6F894DEBF5D
:105AB0000FBECDBFCF91DF911F910F91FF90EF905F
:105AC000DF90CF90BF90AF909F900895CF92DF92DC
:105AD000EF920F93CF93DF93EC01362F542F722F59
