:100000000C94FE030C942A040C942A040C942A04E5
:100010000C942A040C942A040C942A040C942A04A8
:100020000C942A040C942A040C942A040C942A0498
:100030000C942A040C942A040C942A040C942A0488
:100040000C942A040C942A040C942A040C942A0478
:100050000C942A040C942A040C942A040C94B40AD8
:100060000C942A040C94DB0C0C94BB0D0C942A0405
:100070000C942A040C942A040C942A040C942A0448
:100080000C942A040C942A040C942A040C942A0438
:100090000C94130D0C94FA0D0C942A040C942A045D
:1000A0000C942A040C942A040C942A040C942A0418
:1000B0000C942A040C942A040C942A040C942A0408
:1000C0000C942A040C942A040C942A040C944B0DCE
:1000D0000C94390E0C942A040C94830D0C94780E15
:1000E0000C942A0400002100240027002A002D007F
:1000F0003000330001010000040107010A01000083
:100100002200250028002B002E00310034000201BF
:100110000000050108010B0100002000230026005B
:1001200029002C002F00320000010000030106010D
:10013000090105050505070508080808020202026D
:100140000A0A080804040404010101010101010173
:100150000303030303030303040707070C0C0C0C3E
:100160000C0C0C0C02020202060606060606060627
:100170000B0B0B0B0B0B0B0B0102102020080810B4
:100180002040102040800201020108040201010207
:1001900004081020408080402010080402018004E0
:1001A000020180402010080402010804020101023B
:1001B0000408102040800102040810204080000044
:1001C000090A02080B0C0D070603040100000000D9
:1001D000000000000000000000000000000000001F
:1001E0000000000000000000000011100F000000DF
:1001F00000000000000000000000000000000000FF
:100200000000000000000000003E5B4F5B3E3E6BC4
:100210004F6B3E1C3E7C3E1C183C7E3C181C577DA0
:10022000571C1C5E7F5E1C00183C1800FFE7C3E7EC
:10023000FF0018241800FFE7DBE7FF30483A060EFE
:100240002629792926407F050507407F05253F5A45
:100250003CE73C5A7F3E1C1C08081C1C3E7F1422B5
:100260007F22145F5F005F5F06097F017F00668960
:10027000956A606060606094A2FFA29408047E04A6
:100280000810207E201008082A1C08081C2A0808CC
:100290001E101010100C1E0C1E0C30383E3830068C
:1002A0000E3E0E06000000000000005F0000000788
:1002B000000700147F147F14242A7F2A12231308B6
:1002C000646236495620500008070300001C224192
:1002D000000041221C002A1C7F1C2A08083E080836
:1002E00000807030000808080808000060600020E6
:1002F000100804023E5149453E00427F40007249C9
:100300004949462141494D331814127F102745456C
:1003100045393C4A49493141211109073649494982
:1003200036464949291E00001400000040340000F0
:100330000008142241141414141400412214080259
:10034000015909063E415D594E7C1211127C7F49CC
:100350004949363E414141227F4141413E7F494921
:1003600049417F090909013E414151737F0808084D
:100370007F00417F41002040413F017F081422411E
:100380007F404040407F021C027F7F0408107F3E78
:100390004141413E7F090909063E4151215E7F09E5
:1003A000192946264949493203017F01033F40404C
:1003B000403F1F2040201F3F4038403F6314081437
:1003C0006303047804036159494D43007F4141416F
:1003D0000204081020004141417F04020102044050
:1003E00040404040000307080020545478407F28D4
:1003F0004444383844444428384444287F385454CA
:10040000541800087E090218A4A49C787F080404EC
:100410007800447D40002040403D007F102844008B
:1004200000417F40007C047804787C08040478381C
:1004300044444438FC1824241818242418FC7C084C
:10044000040408485454542404043F44243C4040C9
:10045000207C1C2040201C3C4030403C442810287C
:10046000444C9090907C4464544C440008364100C5
:100470000000770000004136080002010204023C3F
:100480002623263C1EA1A161123A4040207A38540E
:100490005455592155557941215454784121555489
:1004A000784020545579400C1E52721239555555DA
:1004B00059395454545939555454580000457C41C5
:1004C0000002457D420001457C40F0292429F0F0DE
:1004D000282528F07C545545002054547C547C0A2F
:1004E000097F4932494949323248484832324A48FC
:1004F00048303A4141217A3A42402078009DA0A0FC
:100500007D39444444393D4040403D3C24FF24244F
:10051000487E4943662B2FFC2F2BFF0929F620C06C
:10052000887E090320545479410000447D413048BD
:10053000484A32384040227A007A0A0A727D0D1900
:10054000317D2629292F28262929292630484D4062
:1005500020380808080808080808382F10C8ACBA5E
:100560002F102834FA00007B000008142A142222DD
:10057000142A1408AA005500AAAA55AA55AA0000D0
:1005800000FF00101010FF00141414FF001010FFE3
:1005900000FF1010F010F0141414FC001414F700F5
:1005A000FF0000FF00FF1414F404FC141417101FC4
:1005B00010101F101F1414141F00101010F0000052
:1005C00000001F101010101F10101010F01000006D
:1005D00000FF101010101010101010FF100000007D
:1005E000FF140000FF00FF00001F10170000FC04B4
:1005F000F414141710171414F404F40000FF00F797
:1006000014141414141414F700F7141414171410F9
:10061000101F101F141414F4141010F010F0000028
:100620001F101F0000001F14000000FC140000F049
:1006300010F01010FF10FF141414FF141010101FEE
:1006400000000000F010FFFFFFFFFFF0F0F0F0F0FF
:10065000FFFFFF0000000000FFFF0F0F0F0F0F381C
:10066000444438447C2A2A3E147E02020606027E56
:10067000027E0263554941633844443C04407E2075
:100680001E2006027E020299A5E7A5991C2A492A86
:100690001C4C7201724C304A4D4D30304878483015
:1006A000BC625A463D3E494949007E0101017E2A0D
:1006B0002A2A2A2A44445F444440514A4440404440
:1006C0004A51400000FF0103E080FF000008086B72
:1006D0006B083612362436060F090F06000018186C
:1006E0000000001010003040FF0101001F01011E3A
:1006F00000191D1712003C3C3C3C00000000000F9C
:100700000180961180FFB103012C2DB203012C2D25
:10071000B306012C2D012C2DB40107C003A20284C5
:10072000C101C5C2020A00C3028A2AC4028AEEC5F8
:10073000010E20003601C83A0105022A0400020019
:10074000812B04000100A0022A040000007F2B047A
:100750000000009F04E010021C07123732292D29E7
:10076000252B3900010310E110031D07062E2C294B
:100770002D2E2E373F0000021013800A29806412AC
:100780000180321180FF3A81050AB1830006030A15
:10079000360108B6021502B40100C08202700AC117
:1007A0000105C2020102C5823C380AFC021115E0B3
:1007B0001009160920211B131917151E2B040502F9
:1007C0000EE1900B14081E221D181E1B1A242B0666
:1007D00006020F0A2A04000200812B040002008195
:1007E00013800A2980FF7C3C3E5E2B3D3F2F5B5DE2
:1007F0003B2C2A225C002C04E20F931A11241FBE0A
:10080000CFEFD1E2DEBFCDBF00E00CBF16E0A0E02D
:10081000B2E0E4E5F3E600E00BBF02C007900D9202
:10082000AC35B107D9F71CE0ACE5B6E001C01D92CC
:10083000AB30B107E1F717E0CCEFD7E004C0229767
:10084000FE010E94A431C63FD107C9F70E94E90802
:100850000C947E2F0C94000086ED96E066E047E055
:1008600028E00E9437190895EF92FF920F931F938B
:10087000CF93DF93EC010CEA15E080ECE82E85E0E5
:10088000F82EF80180819181C817D907F9F48BE21D
:1008900099E064E772E00E944D128BE299E0BE019C
:1008A0004AE050E00E941B128BE299E068E872E097
:1008B0000E944D12F801608171818BE299E04AE05B
:1008C00050E00E942E12F701C081D1810E5F1F4FB0
:1008D00082E090E0E80EF91E95E0003C190789F6E9
:1008E000B4EDEB2EB5E0FB2E08EE15E0F7018081AC
:1008F0009181C817D907F9F48BE299E06DE872E0AD
:100900000E944D128BE299E0BE014AE050E00E9445
:100910001B128BE299E068E872E00E944D12F80128
:10092000608171818BE299E04AE050E00E942E12D2
:10093000F801C081D18182E090E0E80EF91E0E5FDF
:100940001F4F98EEE91695E0F90681F6CE01DF918A
:10095000CF911F910F91FF90EF90089511C088E8FB
:1009600099E00E946E0FBC018BE299E04AE050E0F2
:100970000E941B1261E070E080E090E00E940A0B90
:1009800088E899E00E943D0F1816190644F308956F
:100990002F923F924F925F926F927F928F929F928F
:1009A000AF92BF92CF92DF92EF92FF920F931F937D
:1009B000CF93DF936B017A018130910569F486ED65
:1009C00096E06FEF40E02FEF0E94DD17382E292EC2
:1009D00044E0642E712C12C0029719F0662477242B
:1009E0000DC086ED96E060E040E020E00E94DD175B
:1009F000382E292E3CEF632E3FEF732E8BE299E0C9
:100A00006DEB72E00E9450128BE299E0B6014AE071
:100A100050E00E942E128BE299E0B7014AE050E0CC
:100A20000E942E128BE299E062EC72E00E944D125D
:100A3000E7012197CC0FDD1F8E01025A194FF801F3
:100A400060817181660D771D8BE299E04AE050E08C
:100A50000E942E128BE299E06AEC72E00E944D1225
:100A60004601089481089108880C991C8EE5482E4F
:100A700086E0582E480C591CF20160817181660D88
:100A8000771D8BE299E04AE050E00E942E1280919F
:100A90005C0690915D06009761F4F8010081118178
:100AA000060D171DC656D94FE880F98080EA95E0FB
:100AB0000DC0019771F5F80100811181060D171D18
:100AC000C656D94FE880F98086EA95E066ED76E073
:100AD000A8019701B5E0CB2ED12CA5E0AA2EB12C10
:100AE0000E943209F20180819181680E791E8AE9A3
:100AF00096E0880E991EF4014081518186ED96E0C2
:100B0000B30125E030E005E010E0E32CF22C0E9478
:100B10006517DF91CF911F910F91FF90EF90DF90BC
:100B2000CF90BF90AF909F908F907F906F905F908D
:100B30004F903F902F900895AF92BF92CF92DF9247
:100B4000EF92FF920F931F9380EA95E066ED76E0B7
:100B500040E050E020E030E000E010E0EE24FF2430
:100B6000F0E8CF2ED12CE2E8AE2EB12C0E94320953
:100B700081E090E061E070E041E050E00E94C80454
:100B800082E090E061E070E041E050E00E94C80443
:100B90001F910F91FF90EF90DF90CF90BF90AF909B
:100BA00008952F923F924F925F926F927F928F9211
:100BB0009F92AF92BF92CF92DF92EF92FF920F93EC
:100BC0001F93DF93CF9300D000D0CDB7DEB7A6E060
:100BD0008A2E912CF4E52F2E312C44244A94542C47
:100BE0002AEF3FEF820E931E83E090E0841995096F
:100BF0009101442737FD4095542F5201CC24B7FC76
:100C0000C094DC2CB401660F771F7E836D83A6E051
:100C1000B0E08A0E9B1E80FF6FC0CA01B9010E941E
:100C200040300E947B307B018C01C601B5010E94DF
:100C300040309B01AC0160E070E080E291E40E94F2
:100C4000A82F9B01AC01C801B7010E94A92F0E94E7
:100C50000D307C836B839EE5692E96E0792EED81C5
:100C6000FE816E0E7F1E8AE9A82E86E0B82EAE0E9B
:100C7000BF1E29E630E03E832D830DEFC02E0FEF1F
:100C8000D02EAD81BE81BD01882777FD8095982F3C
:100C90000E9440300E947B307B018C01B601882786
:100CA00077FD8095982F0E9440309B01AC0160E059
:100CB00070E080E291E40E94A82F9B01AC01C80182
:100CC000B7010E94A92F0E940D30F3016193719327
:100CD0003F01D501EB81FC81ED93FD935D012D81F9
:100CE0003E81255130403E832D830894C11CD11C88
:100CF0002B5E3F4F31F66BC0CA01B9010E944030F4
:100D00000E947B307B018C01C601B5010E944030FE
:100D10009B01AC0160E070E080E291E40E94A82FAA
:100D20009B01AC01C801B7010E94A92F0E940D30A0
:100D30007A8369831EE5612E16E0712E8D819E8176
:100D4000680E791EBAE9AB2EB6E0BB2EA80EB91E0E
:100D50001E821D82A2E0CA2ED12CAD81BE81BD01B2
:100D6000882777FD8095982F0E9440300E947B3025
:100D70007B018C01B601882777FD8095982F0E9412
:100D800040309B01AC0160E070E080E291E40E94A1
:100D9000A82F9B01AC01C801B7010E94A92F0E9496
:100DA0000D30F301619371933F01D501E981FA811F
:100DB000ED93FD935D012D813E812B5E3F4F3E8380
:100DC0002D830894C108D1082E37310531F666E02D
:100DD00070E0860E971E8BEE9FEF280E391E08944A
:100DE000411C511C94E28916910409F0F9CE269613
:100DF0000FB6F894DEBF0FBECDBFCF91DF911F912C
:100E00000F91FF90EF90DF90CF90BF90AF909F90A9
:100E10008F907F906F905F904F903F902F900895AC
:100E2000AF92BF92CF92DF92EF92FF920F931F93F8
:100E3000CF93DF935C01C2E0D0E0B1E0CB2ED12CA8
:100E4000E12CF12C87E00E94800A80FF0CC0D701C2
:100E5000C6010C2E04C0880F991FAA1FBB1F0A943D
:100E6000D2F7080F191F62E370E080E090E00E9463
:100E70000A0B8FEFCF3ED80711F02197E3CF0E94E6
:100E80006E2F64E670E00E945231800F911FB50111
:100E90000E9452319C012F5F3F4FC901DF91CF91DA
:100EA0001F910F91FF90EF90DF90CF90BF90AF9088
:100EB0000895AF92BF92CF92DF92EF92FF920F937D
:100EC0001F93CF93DF930E94AE0486ED96E060E01F
:100ED00070E00E944A1786ED96E06FE070E04CE308
:100EE00050E00E94501586ED96E061E00E94561594
:100EF00086ED96E06FEF7FEF0E945C1586ED96E041
:100F000063ED72E00E944D1286ED96E064E170E0C0
:100F10004CE450E00E94501586ED96E065EE72E0DC
:100F20000E944D120E94D10586ED96E060E070E0CF
:100F30000E944A1786ED96E069E170E042E350E0D6
:100F40000E94501586ED96E062E00E94561586EDEF
:100F500096E064EF72E00E944D1286ED96E06CE33D
:100F600070E04BE450E00E94501586ED96E063E09F
:100F70000E94561586ED96E061E070E04AE050E090
:100F80000E941B1286ED96E065E070E048E750E0B5
:100F90000E94501586ED96E061E00E94561586EDA0
:100FA00096E06DEF72E00E944D120E949C050E9437
:100FB000AE0401E0C02ED12C11E0A12EB12CC1E075
:100FC000D0E00E94AE04229709F063C08BE299E062
:100FD0006AE173E00E944D128BE299E062E070E0FA
:100FE0004AE050E00E942E128BE299E064E273E046
:100FF0000E9450120E94AE0488E899E00E943D0FC2
:1010000018161906CCF788E899E00E946E0F7C014B
:1010100088E899E06E2D0E94A90F8BE299E064E4C4
:1010200073E00E944D128BE299E0B7014AE050E074
:101030000E942E1287010A0D1B1D82E090E0B8016C
:10104000A5010E94C80460ED77E080E090E00E9476
:101050000A0BC8010E9434045C0182E090E0B501F3
:10106000A8010E94C8048BE299E066E573E00E9443
:101070004D128BE299E0B5014AE050E00E942E1239
:101080008BE299E06AE673E00E9450120E94AE047F
:1010900096CF8BE299E06AE173E00E944D128BE2F9
:1010A00099E061E070E04AE050E00E942E1260EDAD
:1010B00077E080E090E00E940A0B8BE299E06DE718
:1010C00073E00E94501289E00E94AB0C892B81F0E2
:1010D00089E00E94AB0C892BD9F78BE299E068E993
:1010E00073E00E94501286E090E00E9410077C019D
:1010F00088E899E06E2D0E94A90F8BE299E061EAE1
:1011000073E00E944D128BE299E0B7014AE050E093
:101110000E942E1287010C0D1D1D8BE299E06CEAD6
:1011200073E00E944D128BE299E0B8014AE050E072
:101130000E942E128BE299E06AEB73E00E944D123E
:101140008BE299E0B6014AE050E00E942E1281E065
:1011500090E0B801A6010E94C80460ED77E080E04D
:1011600090E00E940A0BC8010E9434046C018BE2DB
:1011700099E06CEA73E00E944D128BE299E0B601AF
:101180004AE050E00E942E128BE299E06AEB73E095
:101190000E944D128BE299E0B8014AE050E00E94B3
:1011A0002E1281E090E0B601A8010E94C8048BE2F3
:1011B00099E065EC73E00E944D128BE299E0B60174
:1011C0004AE050E00E942E120E94AE04C2E0D0E03D
:1011D000F8CE0F930E94630B8BE299E040E855E252
:1011E00060E070E00E94B70E88E899E040E855E2C0
:1011F00060E070E00E94B70E86ED96E062E00E942B
:1012000009198BE299E063ED73E00E944D1287EAC1
:1012100099E065E04FEF2FEF0FEF0E940A1D882342
:1012200051F48BE299E06BEE73E00E94501280E083
:1012300090E00F9108958BE299E063EF73E00E94D4
:10124000501289E060E00E94C50B89E061E00E94D5
:10125000780C86ED96E060E070E00E944A170E94EC
:101260005907FDCF2F923F924F925F926F927F92DC
:101270008F929F92AF92BF92CF92DF92EF92FF92A6
:101280000F931F93DF93CF93CDB7DEB7C654D040F3
:101290000FB6F894DEBF0FBECDBF98AF8FAB7AAF5D
:1012A00069AF5CAF4BAF4901F02E1601BEAEADAEDB
:1012B0008DB79EB721969FAF8EAF2197CE01019635
:1012C0000E945819AFA9B8AD4D915C91CE014C96D2
:1012D00067EA79E021E00E94D81B8E8D9F8D9C8368
:1012E0008B8388A199A1AAA1BBA18D839E83AF8383
:1012F000B8878CA19DA1AEA1BFA189879A87AB8732
:10130000BC87DE011D96FE01B8968DE001900D921E
:101310008150E1F78DA99EA99B8F8A8F2E01089499
:10132000411C511CC2010E94A819182FCE014C96D5
:101330000E946B191123A1F48BE299E06FE675E02E
:101340000E944D12EFA9F8AD608171818BE299E0A6
:101350000E944D128BE299E067E20E944B11A9C0F6
:101360002F2D2150220D0E2D0150FDAD0F0F89ADF7
:101370009AAD6F2D4E2D0E94F4153101660C771C2D
:101380005401CC24DD2488249924C201542C492EF4
:10139000ABADBCADCD01A0E0B0E027968CAF9DAF6A
:1013A000AEAFBFAF279778C0FDB6EEB62296FFAEC0
:1013B00022972396EFAE23978DB79EB7861997098C
:1013C0000FB6F8949EBF0FBE8DBF0DB71EB70F5F4F
:1013D0001F4FAFA9B8AD12962D913C91139740E0E5
:1013E00050E0C601B5010E941F31AB01BC01279638
:1013F0008CAD9DADAEADBFAD2797480F591F6A1F8D
:101400007B1F440F551F661F771F852D942D0E944B
:10141000C719852D942DB801A3010E94D9198615ED
:10142000970519F4EE24FF2420C08BE299E060E8D0
:1014300075E00E945012852D942D0E94B5198F2DB4
:101440009E2D9C010FB6F8943EBF0FBE2DBF31C03C
:10145000D8017C9111966C9189AD9AAD0E94381695
:101460000894E11CF11C0E5F1F4FE214F30480F39B
:1014700022968FAD229723969FAD23979C010FB69E
:10148000F8943EBF0FBE2DBF0894811C911C089498
:10149000A11CB11CC11CD11CEDADFEAD8E169F066A
:1014A00008F482CF852D942D0E94B519852D942D99
:1014B00002C0CE0101960E946B1921968EAD9FADA0
:1014C00021970FB6F8949EBF0FBE8DBFCA5BDF4F4A
:1014D0000FB6F894DEBF0FBECDBFCF91DF911F9145
:1014E0000F91FF90EF90DF90CF90BF90AF909F90C3
:1014F0008F907F906F905F904F903F902F900895C6
:10150000382F863308F0365320917B00832F869541
:101510008695869590E08170907043E0880F991FC2
:101520004A95E1F7277F282B20937B003770809125
:10153000FC058295880F880F807C832B80937C002C
:1015400080917A00806480937A0080917A0086FD91
:10155000FCCF2091780040917900942F80E030E01A
:10156000282B392BC90108951F920F920FB60F92A5
:1015700011242F933F938F939F93AF93BF938091A9
:10158000060790910707A0910807B09109073091CD
:101590000A070196A11DB11D232F2D5F2D3720F0C5
:1015A0002D570196A11DB11D20930A0780930607B0
:1015B00090930707A0930807B0930907809102074B
:1015C00090910307A0910407B09105070196A11D12
:1015D000B11D8093020790930307A0930407B09373
:1015E0000507BF91AF919F918F913F912F910F90E0
:1015F0000FBE0F901F9018958FB7F8942091060793
:101600003091070740910807509109078FBFB90132
:10161000CA0108959B01AC017FB7F894809102073D
:1016200090910307A0910407B091050766B5A89BA8
:1016300005C06F3F19F00196A11DB11D7FBFBA2FE4
:10164000A92F982F8827860F911DA11DB11D62E03B
:10165000880F991FAA1FBB1F6A95D1F7BC012DC027
:10166000FFB7F8948091020790910307A0910407B7
:10167000B0910507E6B5A89B05C0EF3F19F00196AC
:10168000A11DB11DFFBFBA2FA92F982F88278E0F3C
:10169000911DA11DB11DE2E0880F991FAA1FBB1F5C
:1016A000EA95D1F7861B970B885E9340C8F22150CC
:1016B00030404040504068517C4F21153105410574
:1016C000510571F60895789484B5826084BD84B51F
:1016D000816084BD85B5826085BD85B5816085BD2D
:1016E000EEE6F0E0808181608083E1E8F0E0108246
:1016F000808182608083808181608083E0E8F0E087
:10170000808181608083E1EBF0E080818460808370
:10171000E0EBF0E0808181608083E1E9F0E08081AE
:1017200082608083808181608083E0E9F0E0808155
:1017300081608083E1EAF0E0808182608083808143
:1017400081608083E0EAF0E0808181608083E1E273
:10175000F1E0808182608083808181608083E0E22B
:10176000F1E0808181608083EAE7F0E0808184603D
:10177000808380818260808380818160808380819A
:10178000806880831092C1000895CF93DF93482F23
:1017900050E0CA0188589E4FFC0134914E5C5E4F68
:1017A000FA018491882369F190E0880F991FFC0168
:1017B000EC51FF4FA591B491FC01E250FF4FC59150
:1017C000D491662351F42FB7F8948C91932F909570
:1017D00089238C93888189230BC0623061F42FB7F1
:1017E000F8948C91932F909589238C938881832BE7
:1017F00088832FBF06C09FB7F8948C91832B8C935E
:101800009FBFDF91CF910895893009F449C08A3094
:10181000A0F4843051F1853040F4823079F1833086
:1018200000F5813009F063C026C0873079F1883037
:1018300098F5863009F05BC025C08D3009F442C0B0
:101840008E3028F48B30B1F18C30C0F52DC0803152
:1018500009F442C0813109F445C08F3009F047C016
:1018600037C0809180008F7703C0809180008F7D8A
:1018700080938000089584B58F7702C084B58F7DF2
:1018800084BD08958091B0008F7703C08091B0002F
:101890008F7D8093B0000895809190008F7707C06E
:1018A000809190008F7D03C080919000877F80930E
:1018B000900008958091A0008F7707C08091A000CC
:1018C0008F7D03C08091A000877F8093A000089542
:1018D000809120018F7703C0809120018F7D8093BC
:1018E0002001089580912001877F80932001089531
:1018F000FF920F931F93F62E482F50E0CA01825497
:101900009E4FFC012491CA0188589E4FFC011491FE
:101910004E5C5E4FFA0104910023C9F0222319F0B6
:10192000822F0E94040CE02FF0E0EE0FFF1FE25028
:10193000FF4FA591B4919FB7F894FF2021F48C91AB
:101940001095812302C08C91812B8C939FBF1F9196
:101950000F91FF9008950F931F93482F50E0CA01F5
:1019600082549E4FFC012491CA0188589E4FFC016D
:1019700004914E5C5E4FFA011491112319F420E09A
:1019800030E015C0222319F0822F0E94040C812F11
:1019900090E0880F991F885E9E4FFC01A591B4913D
:1019A0008C9120E030E0802311F021E030E0C9018B
:1019B0001F910F9108951F920F920FB60F920BB6C1
:1019C0000F9211242F933F934F938F939F93EF93F5
:1019D000FF934091C60020914B0730914C072F5F39
:1019E0003F4F2F73307080914D0790914E0728170D
:1019F000390759F0E0914B07F0914C07E55FF84F3C
:101A0000408330934C0720934B07FF91EF919F91B8
:101A10008F914F913F912F910F900BBE0F900FBE62
:101A20000F901F9018951F920F920FB60F920BB642
:101A30000F9211242F933F934F938F939F93EF9384
:101A4000FF934091CE002091D3073091D4072F5FB0
:101A50003F4F2F7330708091D5079091D60728178C
:101A6000390759F0E091D307F091D407ED56F84FBC
:101A700040833093D4072093D307FF91EF919F9138
:101A80008F914F913F912F910F900BBE0F900FBEF2
:101A90000F901F9018951F920F920FB60F920BB6D2
:101AA0000F9211242F933F934F938F939F93EF9314
:101AB000FF934091D60020915B0830915C082F5F26
:101AC0003F4F2F73307080915D0890915E0828170A
:101AD000390759F0E0915B08F0915C08E55EF74F3B
:101AE000408330935C0820935B08FF91EF919F91B6
:101AF0008F914F913F912F910F900BBE0F900FBE82
:101B00000F901F9018951F920F920FB60F920BB661
:101B10000F9211242F933F934F938F939F93EF93A3
:101B2000FF93409136012091E3083091E4082F5F44
:101B30003F4F2F7330708091E5089091E608281789
:101B4000390759F0E091E308F091E408ED55F74FBB
:101B500040833093E4082093E308FF91EF919F9135
:101B60008F914F913F912F910F900BBE0F900FBE11
:101B70000F901F9018951F920F920FB60F920BB6F1
:101B80000F9211242F933F938F939F93EF93FF9383
:101B900020918F0730919007809191079091920743
:101BA0002817390731F48091C1008F7D8093C100DF
:101BB00014C0E0919107F0919207E15BF84F20810A
:101BC000809191079091920701968F7390709093F6
:101BD0009207809391072093C600FF91EF919F9108
:101BE0008F913F912F910F900BBE0F900FBE0F90D2
:101BF0001F9018951F920F920FB60F920BB60F926F
:101C000011242F933F938F939F93EF93FF932091F2
:101C10001708309118088091190890911A08281710
:101C2000390731F48091C9008F7D8093C90014C0B9
:101C3000E0911908F0911A08E952F84F208180913B
:101C4000190890911A0801968F73907090931A0852
:101C5000809319082093CE00FF91EF919F918F916F
:101C60003F912F910F900BBE0F900FBE0F901F90C2
:101C700018951F920F920FB60F920BB60F92112468
:101C80002F933F938F939F93EF93FF9320919F0800
:101C90003091A0088091A1089091A20828173907D7
:101CA00031F48091D1008F7D8093D10014C0E091F8
:101CB000A108F091A208E15AF74F20818091A10874
:101CC0009091A20801968F7390709093A2088093D0
:101CD000A1082093D600FF91EF919F918F913F91A2
:101CE0002F910F900BBE0F900FBE0F901F90189565
:101CF0001F920F920FB60F920BB60F9211242F93D3
:101D00003F938F939F93EF93FF93209127093091F7
:101D100028098091290990912A092817390731F457
:101D2000809131018F7D8093310114C0E0912909A8
:101D3000F0912A09E951F74F20818091290990916A
:101D40002A0901968F73907090932A09809329092C
:101D500020933601FF91EF919F918F913F912F91A9
:101D60000F900BBE0F900FBE0F901F901895AF9263
:101D7000BF92DF92EF92FF920F931F93CF93DF9367
:101D8000EC017A018B01DD24403081EE580780E0C0
:101D9000680780E0780711F0DD24D39491E0A92E44
:101DA000B12CEC89FD89DD2069F0C5010E8C02C0E3
:101DB000880F991F0A94E2F7808360E079E08DE351
:101DC00090E005C0108260E874E88EE190E0A80120
:101DD00097010E9465312150304040405040569557
:101DE00047953795279580E12030380720F0DD2092
:101DF00011F0DD24D6CFE889F9893083EA89FB899F
:101E00002083EE89FF89408121E030E0C9010A8CFE
:101E100002C0880F991F0A94E2F7482B4083EE898D
:101E2000FF894081C9010B8C02C0880F991F0A9459
:101E3000E2F7482B4083EE89FF894081C9010C8C71
:101E400002C0880F991F0A94E2F7482B4083EE895D
:101E5000FF8980810D8C02C0220F331F0A94E2F7A4
:101E6000209528232083DF91CF911F910F91FF9020
:101E7000EF90DF90BF90AF900895DC011C96ED913C
:101E8000FC911D97E05CFF4F219131918081918100
:101E9000281B390B2F733070C9010895DC011C9683
:101EA000ED91FC911D97E05CFF4F20813181E05462
:101EB000F040DF01AE5BBF4F8D919C9111972817C9
:101EC000390719F42FEF3FEF07C08D919C91E80F70
:101ED000F91F8081282F30E0C9010895DC011C968C
:101EE000ED91FC911D97E05CFF4F20813181E05422
:101EF000F040DF01AE5BBF4F8D919C911197281789
:101F0000390719F42FEF3FEF10C08D919C91119775
:101F1000E80FF91F20818D919C91119701968F7385
:101F2000907011969C938E9330E0C9010895FC0146
:101F300086859785DC01A05CBF4FFC01EE5BFF4FFF
:101F40002D913C9111978081918128173907C1F714
:101F50000895CF93DF93EC01EE85FF85E05CFF4FA2
:101F600020813181E054F0402F5F3F4F2F7330705C
:101F7000DF01AE5BBF4F8D919C91119728173907F8
:101F8000D1F3E05CFF4F80819181E054F040E80F95
:101F9000F91F6083EE85FF85E05CFF4F318320836E
:101FA000EE89FF89208181E090E00D8C02C0880FCE
:101FB000991F0A94E2F7282B208381E090E0DF91BB
:101FC000CF9108951F9310922E0910922D0928EE9B
:101FD00033E040E050E020932F09309330094093E4
:101FE00031095093320965E076E070932C096093D3
:101FF0002B098BE097E090933809809337098FE4A1
:1020000097E090933A098093390985EC90E090939A
:102010003C0980933B0984EC90E090933E098093C7
:102020003D0980EC90E09093400980933F0981EC5A
:1020300090E0909342098093410986EC90E0909360
:1020400044098093430914E010934509B3E0B09329
:102050004609A7E0A0934709F5E0F0934809E1E0BD
:10206000E093490910924D0910924C0920934E09B2
:1020700030934F09409350095093510970934B0985
:1020800060934A0983E997E0909357098093560932
:1020900087ED97E090935909809358098DEC90E073
:1020A00090935B0980935A098CEC90E090935D09C2
:1020B00080935C0988EC90E090935F0980935E09BF
:1020C00089EC90E090936109809360098EEC90E038
:1020D000909363098093620910936409B093650932
:1020E000A0936609F0936709E093680910926C0960
:1020F00010926B0920936D0930936E0940936F091C
:102100005093700970936A09609369098BE198E0B4
:1021100090937609809375098FE598E090937809FC
:102120008093770985ED90E090937A0980937909FF
:1021300084ED90E090937C0980937B0980ED90E0A2
:1021400090937E0980937D0981ED90E090938009C2
:1021500080937F0986ED90E09093820980938109B6
:1021600010938309B0938409A0938509F09386099D
:10217000E093870910928B0910928A0920938C09A9
:1021800030938D0940938E0950938F09709389097C
:102190006093880983EA98E0909395098093940965
:1021A00087EE98E0909397098093960985E391E0F4
:1021B000909399098093980984E391E090939B0907
:1021C00080939A0980E391E090939D0980939C0904
:1021D00081E391E090939F0980939E0986E391E0CB
:1021E0009093A1098093A0091093A209B093A30929
:1021F000A093A409F093A509E093A6091F9108955F
:102200000895CF92DF92EF92FF920F931F93CF9397
:10221000DF937C016B018A01C0E0D0E00FC0D601E2
:102220006D916D01D701ED91FC910190F081E02D50
:10223000C7011995C80FD91F01501040011511058C
:1022400071F7CE01DF91CF911F910F91FF90EF9029
:10225000DF90CF900895EF92FF920F931F938C0120
:10226000DC01ED91FC910190F081E02D6DE019957C
:102270007C01D801ED91FC910190F081E02DC80125
:102280006AE019959C012E0D3F1DC9011F910F9108
:10229000FF90EF900895EF92FF920F931F937C01B0
:1022A000DC01ED91FC910190F081E02D19958C01FC
:1022B000C7010E942B11080F191FC8011F910F9110
:1022C000FF90EF900895CF93DF93DB010D900020F6
:1022D000E9F71197A61BB70BEC01E881F9810280A1
:1022E000F381E02DAD011995DF91CF9108954F92C3
:1022F0005F927F928F929F92AF92BF92CF92DF9226
:10230000EF92FF920F931F93DF93CF93CDB7DEB77A
:10231000A1970FB6F894DEBF0FBECDBF2C01742E6F
:10232000CB01223008F42AE019A231E2C32ED12CCD
:10233000CC0EDD1E822E9924AA24BB24672D752F76
:10234000A50194010E94653179018A01C801B70194
:10235000A50194010E941F31472D461B0894C10816
:10236000D1084A3014F4405D01C0495CF601408355
:10237000E114F1040105110521F07E2C5F2DC80147
:10238000DDCFC201B6010E946311A1960FB6F89489
:10239000DEBF0FBECDBFCF91DF911F910F91FF9098
:1023A000EF90DF90CF90BF90AF909F908F907F90F5
:1023B0005F904F900895CF92DF92EF92FF920F932C
:1023C0001F93CF93DF93EC016A017B012115310547
:1023D00041F4E881F9810190F081E02D642F199595
:1023E0001FC02A303105D1F477FF17C0E881F98189
:1023F0000190F081E02D6DE219958C01442755275D
:10240000BA014C195D096E097F09CE012AE00E94CC
:1024100077119801280F391F04C02AE00E94771114
:102420009C01C901DF91CF911F910F91FF90EF9017
:10243000DF90CF900895EF92FF920F931F937B014F
:102440009A010027F7FC0095102FB801A7010E9400
:10245000DB111F910F91FF90EF900895CF92DF92C3
:10246000EF92FF920F931F936C017B019A0100275B
:10247000F7FC0095102FB801A7010E94DB118C0119
:10248000C6010E942B11080F191FC8011F910F913F
:10249000FF90EF90DF90CF9008950E946311089510
:1024A000EF92FF920F931F937C010E9463118C01A6
:1024B000C7010E942B11080F191FC8011F910F910E
:1024C000FF90EF900895FC011382128285E196E05F
:1024D0009183808375836483578346837187608784
:1024E00053874287158A158614861786168621E03B
:1024F000248B8FEF9FEF938B828B918B808B268B1E
:1025000008952F923F924F925F926F927F928F9297
:102510009F92AF92BF92CF92DF92EF92FF920F9372
:102520001F93DF93CF9300D00F92CDB7DEB73C015E
:102530007C836B836A015901FA82E9822224332465
:102540009801241B350B37FF03C0309521953F4F71
:10255000C5014B815C81841B950B97FF03C090954F
:1025600081959F4F821793075CF481E0282E312CD0
:10257000C601CB80DC809C838B83C80185015C0114
:102580008B819C81A816B90644F4C501AB80BC8040
:102590009C838B83C80186016C012501AB81BC81C2
:1025A0004A1A5B0A7801EC18FD08F7FE04C0F094A3
:1025B000E194F108F394C016D10624F088248A949B
:1025C000982C03C0B1E08B2E912CC20162E070E028
:1025D0000E9452318B0125C0D301ED91FC91211451
:1025E000310441F00480F581E02DC301B6014B8137
:1025F0005C8107C00480F581E02DC3016B817C8183
:10260000A60129813A8119950E191F0917FF04C0E7
:10261000C80CD91C040D151DEB81FC813196FC837F
:10262000EB834B815C81A416B506B4F60F900F9036
:102630000F900F90CF91DF911F910F91FF90EF902E
:10264000DF90CF90BF90AF909F908F907F906F90D2
:102650005F904F903F902F9008954F925F926F92AE
:102660007F928F929F92AF92BF92CF92DF92EF9222
:10267000FF920F931F936C015B014A0139012801FE
:10268000DC01ED91FC910284F385E02D8701199521
:10269000D601ED91FC91A40141505040440D551DCF
:1026A0000284F385E02DC601B50193011995D60189
:1026B000ED91FC910084F185E02DC601B501A401E6
:1026C00092011995D601ED91FC910894A108B108E9
:1026D000A60CB71C0084F185E02DC601B501A4014C
:1026E000920119951F910F91FF90EF90DF90CF907D
:1026F000BF90AF909F908F907F906F905F904F9022
:102700000895CF92DF92EF92FF920F931F93DC0117
:102710006B017801ED91FC918A0101501040020F8C
:10272000131F0680F781E02D960119951F910F91D7
:10273000FF90EF90DF90CF900895CF92DF92EF92CD
:10274000FF920F931F93DC016A01C9017801ED919B
:10275000FC9111979B0121503040280F391F0680B2
:10276000F781E02DCD01860119951F910F91FF9002
:10277000EF90DF90CF9008956F927F928F929F920B
:10278000AF92BF92CF92DF92EF92FF920F931F937F
:10279000CF93DF935C013A0169014801EB01C60E5A
:1027A000D71E0DC0D501ED91FC910084F185E02D7F
:1027B000C501BE01A3019401870119952196CC158D
:1027C000DD0584F3DF91CF911F910F91FF90EF9082
:1027D000DF90CF90BF90AF909F908F907F906F9041
:1027E0000895EF92FF920F931F93FC017B01A0814C
:1027F000B18120853185028513851E960D90BC918F
:10280000A02D60E070E040E050E0FD0119951F91BF
:102810000F91FF90EF9008952F923F924F925F9209
:102820006F927F928F929F92AF92BF92CF92DF92E0
:10283000EF92FF920F931F93DF93CF93CDB7DEB745
:102840002F970FB6F894DEBF0FBECDBF5C015E833D
:102850004D8318870F83FA86E986CB86DC011896AC
:102860008D919C911997681779070CF0A4C01A965E
:102870008D919C911B97481759070CF09CC0EC2D2B
:10288000F0E0FF87EE87CF01880F991F8E0F9F1F03
:10289000880F991F860F971F181619060CF08BC00A
:1028A000CF01F3E0880F991FFA95E1F7840F951F88
:1028B000181619060CF07FC085E0289FA00111248E
:1028C0005A8349832B011B011C825C81553011F412
:1028D00080E005C0E981FA81EC5FFD4F84912C8690
:1028E0003D866D807E8043011B82C82EDD2480FFE3
:1028F0001CC0D501ED91FC91BB85B13049F4048039
:10290000F581E02DC501B201A3012F81388522C0D8
:102910000684F785E02DC5016C857D85A4012E8593
:102920003F858901EF80F88423C0E985FA852F81EE
:102930003885E217F307E9F0D501ED91FC91BB85ED
:10294000B13051F40480F581E02DC501B201A3013D
:1029500029853A8519950DC00684F785E02DC501B6
:102960006C857D85A4012E853F858901E984FA84E3
:102970001995EB81EF5FEB832E853F85820E931EC9
:102980000894611C711CE83021F0D594C7948C2DFB
:10299000ACCF3C813F5F3C834E855F85240E351E66
:1029A0000894411C511C89819A8101969A838983DC
:1029B000363009F08ACF2F960FB6F894DEBF0FBEDF
:1029C000CDBFCF91DF911F910F91FF90EF90DF90DE
:1029D000CF90BF90AF909F908F907F906F905F90BF
:1029E0004F903F902F900895CF92EF92FF920F93C8
:1029F0001F93CF93DF93EC01262F6A3061F42C896B
:102A000030E003E0220F331F0A95E1F78E859F85A2
:102A1000820F931F37C06D30C9F16C857D854E855F
:102A20005F8508891989EA88FB88CC880E940C1484
:102A30002C8986E0289FB00111248C859D85680F24
:102A4000791F7D876C878E89882301F1422F50E0A2
:102A50008AEF9FEF9C01429FC001439F900D529FC0
:102A6000900D112428853985820F931F86179707AB
:102A70006CF413E0440F551F1A95E1F78E859F857E
:102A8000840F951F9F878E871D861C8681E090E0AE
:102A9000DF91CF911F910F91FF90EF90CF9008950C
:102AA000FC0175876487578746870895FC01662374
:102AB00009F461E0648B0895FC01738B628B718B68
:102AC000608B08950895DC0158968C91589788235F
:102AD00029F06EBD0DB407FEFDCF089530E840E04B
:102AE00050E070E0832F90E0862397235996ED9174
:102AF000FC915A9796962C919697892B21F080817C
:102B0000822B808304C080812095282320835B96BC
:102B1000ED91FC915C97808197969C919797892B7A
:102B200080835B96ED91FC915C97908197968C9158
:102B3000979780958923808336954F5F5F4F483004
:102B4000510581F608950F931F938C01DC015F9668
:102B5000ED91FC919097908199968C9199978095A1
:102B6000892380835D96ED91FC915E979081989684
:102B70008C91809589238083C8010E946315D801B8
:102B80005D96ED91FC915E97808198969C91892B42
:102B900080831F910F9108950F931F938C01DC0187
:102BA0005F96ED91FC919097808199969C91999771
:102BB000892B80835D96ED91FC915E97908198962C
:102BC0008C91809589238083C8010E946315D80168
:102BD0005D96ED91FC915E97808198969C91892BF2
:102BE00080831F910F910895CF92DF92EF92FF9211
:102BF0000F931F937C01162FC42ED22E6AE20E94DF
:102C0000A315C70160E00E94CC15F70162A5610F12
:102C1000C7010E94CC15C70160E00E94CC15F701E6
:102C200062A56D0DC7010E94CC15C7016BE20E9421
:102C3000A315C70160E00E94CC15F70163A56C0DD8
:102C4000C7010E94CC15C70160E00E94CC15F701B6
:102C500063A5600FC7010E94CC15C7016CE20E94FA
:102C6000A3151F910F91FF90EF90DF90CF900895E3
:102C7000FF920F931F938C01F62E672FDC015F9656
:102C8000ED91FC919097808199969C919997892BD1
:102C900080835D96ED91FC915E97908198968C91E2
:102CA000809589238083C8010E946315C8016F2D18
:102CB0000E946315D8015D96ED91FC915E9780812D
:102CC00098969C91892B80831F910F91FF90089576
:102CD000FF920F931F93CF93DF93EC01F22E132FEC
:102CE00077FD2EC088859985681779074CF557FDC3
:102CF00027C08A859B854817590714F5262F2F5F13
:102D0000042F0F5FCE010E94F415EF8DF8A1808192
:102D100099A5892B8083ED8DFE8D908188A5809566
:102D200089238083CE01612F0E946315CE016F2D10
:102D30000E946315ED8DFE8D808198A5892B80837F
:102D4000DF91CF911F910F91FF900895DF92EF9245
:102D5000FF920F931F93CF93DF93EC01FB01790157
:102D6000D02E8885998568177907D4F52A853B8503
:102D700042175307ACF5C701840F951F2817390771
:102D80001CF47901E41AF50A042F01500E0DCE014E
:102D90006E2F2E2F0E94F415EF8DF8A1808199A53A
:102DA000892B8083ED8DFE8D908188A58095892368
:102DB000808308C0CE01612F0E946315CE016D2D66
:102DC0000E9463150894E108F1088FEFE8168FEF71
:102DD000F80681F7ED8DFE8D808198A5892B808383
:102DE000DF91CF911F910F91FF90EF90DF900895A9
:102DF000DF92EF92FF920F931F93CF93DF93EC013B
:102E0000FA017901D02E2885398562177307D4F528
:102E10008A859B8548175907ACF5C701860F971F10
:102E2000281739071CF47901E61AF70A262F2150D2
:102E30002E0DCE014E2F0E2F0E94F415EF8DF8A10E
:102E4000808199A5892B8083ED8DFE8D908188A549
:102E500080958923808308C0CE01612F0E9463156D
:102E6000CE016D2D0E9463150894E108F1088FEFE3
:102E7000E8168FEFF80681F7ED8DFE8D808198A51D
:102E8000892B8083DF91CF911F910F91FF90EF905D
:102E9000DF900895EF92FF920F931F93FC017B0147
:102EA000A081B18120853185028513851E960D9004
:102EB000BC91A02D60E070E040E050E0FD0119956C
:102EC0001F910F91FF90EF900895AF92BF92CF9214
:102ED000DF92EF92FF920F931F93CF93DF936C01DA
:102EE0005901E801DC0118962D913C911997621760
:102EF00073070CF057C01A96ED91FC911B974E1773
:102F00005F070CF04FC0C501860F971F28173907C0
:102F10001CF45901A61AB70ACE01840F951FE817B1
:102F2000F9071CF4EF01C41BD50B262F21502A0DE5
:102F3000042F01500C0FC6010E94F415D6015F96B4
:102F4000ED91FC919097808199969C919997892B0E
:102F500080835D96ED91FC915E97908198968C911F
:102F60008095892380838E010EC0C6016F2D0E943B
:102F70006315C6016E2D0E94631521971C161D0650
:102F8000A4F3015010401016110614F4E501F6CF19
:102F9000D6015D96ED91FC915E97808198969C910B
:102FA000892B8083DF91CF911F910F91FF90EF903C
:102FB000DF90CF90BF90AF90089550E04C7F50705D
:102FC00033E0440F551F3A95E1F730E093E0359533
:102FD00027959A95E1F7422B532B70E0687F70702C
:102FE000762F6627462B572BCA010895662311F4C6
:102FF00060E201C061E20E94A3150895AF92BF9202
:10300000CF92DF92EF92FF920F931F93CF93DF93B4
:103010005C01FB01EB012196D49031C08E010F5F62
:103020001F4FFE016491C5010E94A3157801089409
:10303000E11CF11CF801C4900C2D0F77E701102F53
:1030400008C0FE012196E491C5016E2F0E94CC15A7
:1030500011501123B1F7E701C00FD11DC7FE0EC0FB
:10306000FE018491682F70E06F3F710511F464EFE9
:1030700071E0219680E090E00E940A0BDA94DD2056
:1030800069F6DF91CF911F910F91FF90EF90DF9044
:10309000CF90BF90AF9008950F931F93CF93DF937E
:1030A000EC018B011BA61AA68AA161E00E94C50B48
:1030B00089A161E00E94C50BE9A14E2F50E0FA0101
:1030C000EE5CFE4FE491F0E0EE0FFF1FE250FF4F89
:1030D000859194919E8F8D8FEAA12E2F30E0F9017A
:1030E000EE5CFE4FE491F0E0EE0FFF1FE250FF4F69
:1030F0008591949198A38F8F48585E4FFA018491DF
:1031000088A728583E4FF901849189A7888D882384
:1031100061F00E94BF2D80E00E94AE2D81E00E94F0
:10312000A02D80E00E94A92D3DC08DA161E00E94EC
:10313000C50B8CA161E00E94C50BEDA14E2F50E0A4
:10314000FA01EE5CFE4FE491F0E0EE0FFF1FE2505B
:10315000FF4FA591B491BC8FAB8FECA12E2F30E027
:10316000F901EE5CFE4FE491F0E0EE0FFF1FE2503C
:10317000FF4F859194919A8F898F48585E4FFA013D
:1031800094919FA328583E4FF90184918EA38C916E
:10319000909598239C93E98DFA8D90818EA18095CE
:1031A00089238083ED8DFE8D908188A5809589236C
:1031B00080838BA1882309F161E00E94C50B8BA15C
:1031C00061E00E94780C64EF71E080E090E00E9482
:1031D0000A0B8BA160E00E94780C64EF71E080E044
:1031E00090E00E940A0B8BA161E00E94780C64EFD2
:1031F00071E080E090E00E940A0B0115110521F0BA
:10320000CE01B8010E94FE17DF91CF911F910F915F
:1032100008951F93CF93DF93EC01162F6FEF76E0A5
:103220000E944C18112351F4CE016AE377E00E940A
:10323000FE1782E08AA781E08BA705C0CE0167E474
:1032400077E00E94FE17CE0164E577E00E94FE174A
:10325000123041F4CE0166E30E94A315CE0160EC6A
:103260000E94CC151F8BDF91CF911F910895DF92A3
:10327000EF92FF920F931F938C01F62EE42ED22E25
:1032800060E870E040EA50E00E9463128DE296E050
:10329000F80191838083F1A2E2A2D3A281E0808F22
:1032A00015A214A21F910F91FF90EF90DF90089547
:1032B000FC011382128288EE93E0A0E0B0E08483E8
:1032C0009583A683B78385E496E091838083128EED
:1032D000118E14860895FC0185E496E09183808325
:1032E0000895FC01A18DB28D109719F420E030E013
:1032F00009C0ED91FC9111970190F081E02DCD0175
:1033000019959C01C9010895DC015996ED91FC9134
:103310005A97309719F420E030E018C02489358995
:103320004689578983859485A585B685281B390BE1
:103330004A0B5B0B2030B0E83B07B0E04B07B0E036
:103340005B0720F02FEF3FE740E050E0C901089510
:10335000DC015996ED91FC915A97309711F480E079
:1033600008958681811181E00895CF93DF93EC0168
:10337000898D9A8D009741F00E948022898D9A8DC7
:103380000E947B2E1A8E198EDF91CF910895FC0139
:10339000818D928D009711F480E008950E94702134
:1033A0000895FC01818D928D009711F00E943622C4
:1033B0000895FC01818D928D009719F420E030E092
:1033C00003C00E9457239C01C9010895DF93CF9346
:1033D0000F92CDB7DEB7FC01818D928D009749F039
:1033E000BE016F5F7F4F41E050E00E94572301977D
:1033F00019F02FEF3FEF03C08981282F30E0C9017A
:103400000F90CF91DF910895EF92FF920F931F934A
:10341000DF93CF930F92CDB7DEB77C01DC015996D5
:103420008D919C915A97009719F400E010E01FC00D
:10343000BE016F5F7F4F41E050E00E94572301972C
:1034400019F00FEF1FEF13C08981082F10E0D7018B
:103450005996ED91FC915A974385548565857685FB
:103460004150504060407040CF010E947021C8011F
:103470000F90CF91DF911F910F91FF90EF900895E2
:10348000FC01818D928D009719F420E030E003C09B
:103490000E949C259C01C9010895FC01818D928D9B
:1034A000009719F420E030E003C00E9454279C01EB
:1034B000C9010895EF92FF920F931F93CF93DF936B
:1034C000EC01F62EE72E8A011B821A8288EE93E029
:1034D000A0E0B0E08C839D83AE83BF8385E496E05B
:1034E000998388838EE190E00E94DE2D9A8F898FE8
:1034F000009791F0DC018F2D9E2D9C01F9018EE14A
:1035000001900D928150E1F7CE010C96B8014CE08C
:1035100050E00E94992F188EDF91CF911F910F914B
:10352000FF90EF90089582E090E0A0E0B0E08093FB
:10353000A7099093A809A093A909B093AA0910928A
:10354000BE091092C8091092C70987E596E09093CA
:10355000C6098093C5091092CB091092E809109210
:10356000E9091092EC091092EE0908952F923F920A
:103570004F925F926F927F928F929F92AF92BF9283
:10358000CF92DF92EF92FF920F931F93DF93CF932F
:10359000CDB7DEB7C954D0400FB6F894DEBF0FBE2A
:1035A000CDBF582E492EFB013A01190180A191A1EE
:1035B000998B888B27E536E03F872E8782A18A8BFF
:1035C00083A18B8B84A18C8B85A196A1A7A1B0A58B
:1035D0008D8B9E8BAF8BB88F81A592A5A3A5B4A52B
:1035E000898F9A8FAB8FBC8F85A596A5A7A5B0A90B
:1035F0008D8F9E8FAF8FB8A381A989A382A993A92C
:10360000A4A9B5A98AA39BA3ACA3BDA386A997A986
:10361000A0ADB1AD8EA39FA3A8A7B9A782AD93AD6E
:103620009BA78AA71FA61EA63DA72CA71AAA7A01A8
:103630008E01025F1F4F3CE2A32EB12CAC0EBD1ECB
:103640004E010894811C911C35C0D7018C918F329A
:1036500021F40894E11CF11C2DC0422F4E194D306D
:1036600008F04CE0C42EDD24C401B701A6010E947D
:10367000992FF401EC0DFD1D1082C5010E948022DE
:10368000C501B801A40121E00E94D427882351F488
:10369000E52DF42D1382128287E596E091838083D5
:1036A00016826AC0EC0CFD1CC8010E948022C50174
:1036B00058018C01C7016FE270E00E948E2F9C01BF
:1036C000009719F6E618F708F101F182E082E52D7E
:1036D000F42DD80112968D919C9113979383828338
:1036E00087E596E09183808314968C911497848368
:1036F00015968C911597858316968C9116978683CF
:1037000017962D913D914D915C911A9727833087A3
:10371000418752871B962D913D914D915C911E974B
:1037200023873487458756871F962D913D914D916C
:103730005C9152972787308B418B528B53968C919B
:103740005397838B54962D913D914D915C91579752
:10375000248B358B468B578B58962D913D914D91EF
:103760005C915B97208F318F428F538F5C968D9148
:103770009C915D97958F848F852D942DC75BDF4F2E
:103780000FB6F894DEBF0FBECDBFCF91DF911F9172
:103790000F91FF90EF90DF90CF90BF90AF909F90F0
:1037A0008F907F906F905F904F903F902F900895F3
:1037B0009F92AF92BF92CF92DF92EF92FF920F93C0
:1037C0001F93DF93CF93CDB7DEB7CA57D0400FB664
:1037D000F894DEBF0FBECDBFC82E992E8A01D22E1F
:1037E00043E0A42EB12CAC0EBD1EC501A8019E0164
:1037F0002F5F3F4F0E94B61AE980FA80E00EF11E5B
:10380000F701808147E556E02985882309F041C00A
:103810008D819E819CA38BA35AA349A38F818DA3E5
:1038200088858EA32FA38A859B85AC85BD8588A7B7
:1038300099A7AAA7BBA78E859F85A889B9898CA7B8
:103840009DA7AEA7BFA78A899B89AC89BD8988AB94
:1038500099ABAAABBBAB8E898CAB8F89988DA98DA8
:10386000BA8D8DAB9EABAFABB8AF8B8D9C8DAD8D54
:10387000BE8D89AF9AAFABAFBCAF8F8D98A19EAF15
:103880008DAF8C2D992DBE016F5D7F4F44E955E0C2
:10389000AAC0FE01EF5BFF4F11821082DE01DF96AE
:1038A00011965C934E93FE01EB5BFF4F1082222337
:1038B000A9F02250223050F4CD0165EC79E0A70147
:1038C0002D2D0E94D427882389F408C0CD01B5018D
:1038D000A7012D2D0E94D427882329F48C2D992D02
:1038E0000E94581982C0C5010E948022F6E0DF22A2
:1038F00059F0FE01ED5AFF4F408151816281738181
:10390000CE01CF960E9470219E01235A3F4FFE01A7
:10391000EF5BFF4F80819181F9019383828387E57B
:1039200096E091838083FE01ED5BFF4F8081F9017A
:103930008483FE01EC5BFF4F8081F9018583FE01EA
:10394000EB5BFF4F8081F9018683FE01EA5BFF4F4D
:1039500080819181A281B381F90187839087A187BA
:10396000B287FE01E65BFF4F80819181A281B38126
:10397000F90183879487A587B687FE01E25BFF4F35
:1039800080819181A281B381F9018787908BA18B7E
:10399000B28BFE01EE5AFF4F8081F901838BFE014D
:1039A000ED5AFF4F80819181A281B381F901848B0F
:1039B000958BA68BB78BFE01E95AFF4F80819181D1
:1039C000A281B381F901808F918FA28FB38FFE0105
:1039D000E55AFF4F80819181F901958F848F8C2D5D
:1039E000992DB901A7010E945A1A8C2D992DC658FC
:1039F000DF4F0FB6F894DEBF0FBECDBFCF91DF9182
:103A00001F910F91FF90EF90DF90CF90BF90AF90FC
:103A10009F900895CF92DF92EF920F93CF93DF9311
:103A2000EC01362F542F722FE02E6CE3C62ED12CD2
:103A3000C80ED91EC60161E0432F252F072F0E9413
:103A4000F81F8823D1F00C2FED2ECE01B60141E0F6
:103A50000E947529882339F4CE01B60140E00E9406
:103A60007529882351F0CE014E96602F7E2D0E943D
:103A7000B624882319F081E001C080E0DF91CF9166
:103A80000F91EF90DF90CF900895382F8091F20939
:103A90008F3F29F43EBD0DB407FEFDCF0895F89485
:103AA000A091F309B091F4095091F509252F2095C3
:103AB000E091F609F091F7094091F809642F6095BB
:103AC00090E08C9182238C9337FF03C08081842BFC
:103AD00002C08081862380838C91852B8C939F5F8D
:103AE000983011F0330FEDCF00000000000000000F
:103AF0008C9128232C93789408958091F2098F3F1C
:103B000021F40E94451D2EB530C0F894E091F609CD
:103B1000F091F70980819091F809892B8083E091D9
:103B2000F309F091F4096091F509A091F909B091B8
:103B3000FA098091FB09482F50E0762F709520E01C
:103B400030E08081862B8083220F8C9190E084234B
:103B50009523892B09F021608081872380830000D1
:103B600000003F5F383069F77894822F0895FC0198
:103B7000673020F086E1858380E00895262F30E0CD
:103B800060FD02C0663019F48DB58E7F02C08DB520
:103B900081608DBD8CB58C7F8CBD4CB522FD02C083
:103BA00090E001C092E036952795822F8170842B9A
:103BB000892B8CBD81E008950F931F93CF93DF93E2
:103BC0008B010E94FC0AEB010E947D1D8F3F11F4C6
:103BD00081E008C00E94FC0A6C1B7D0B6017710716
:103BE00098F380E0DF91CF911F910F910895FC0130
:103BF000848160E00E94780C0895FC01848161E07A
:103C00000E94780C0895CF92DF92EF92FF920F936B
:103C10001F93CF93DF937C016A01FC018485882385
:103C200019F40FEF1FEF30C000E010E040E050E06B
:103C3000212F332727FD3A95F601E40FF51F8081E8
:103C400090E0282739273070C901F4E095958795D1
:103C5000FA95E1F782279327102F002708271927C5
:103C60009C01322F22273295307F0227132725E02F
:103C7000880F991F2A95E1F7082719274F5F5F4F93
:103C8000F2E040305F07A1F6862F0E94451DC0E09C
:103C9000D0E0F601EC0FFD1F80810E94451D2196AA
:103CA00082E0C030D807A9F7812F992787FD9A9520
:103CB0000E94451D802F0E94451D0E947D1DF70119
:103CC00082878F71853011F481E007C081E1F701AF
:103CD0008583C7010E94FD1D80E0DF91CF911F9178
:103CE0000F91FF90EF90DF90CF9008950F931F9367
:103CF000CF93DF93EC010E94FC0A8B0109C00E9464
:103D0000FC0A601B710B6D52714010F08FE00AC00D
:103D10000E947D1D8A878F3F91F38E3F11F481E0D1
:103D200006C08DE08D83CE010E94FD1D80E0DF91F5
:103D3000CF911F910F910895CF93DF93EC018E8166
:103D4000882319F40FC00E947D1D8F8198850196EC
:103D500098878F83019782509240A8F3CE010E94EA
:103D6000FD1D1E82DF91CF910895DF92EF92FF92A9
:103D70000F931F93CF93DF93EC01D62E79018A0125
:103D80000E949C1ECE010E94F71DCE016CE271E0E4
:103D90000E94DC1D8D2D80640E94451D812F992776
:103DA000AA27BB270E94451DC801AA27BB270E943E
:103DB000451DBB27A12F902F8F2D0E94451D8E2DB5
:103DC0000E94451DDD2011F485E906C088E0D81663
:103DD00011F487E801C08FEF0E94451D10E00E949A
:103DE0007D1D8A8787FF02C01150C9F7DF91CF91EF
:103DF0001F910F91FF90EF90DF900895CF92DF9287
:103E0000EF92FF920F931F93CF93DF93EC017A0110
:103E10008B016901411551056105710511F482E1BC
:103E200033C08B85833039F039E0EE0CFF1C001F66
:103E3000111F3A95D1F7CE0168E1A80197010E94C0
:103E4000B51E882311F084E01FC0CE016EEFA601DD
:103E50000E94031E8823C9F0CE0168E572E00E942B
:103E6000DC1D882311F485E10FC0CE016DE020E058
:103E700030E040E050E00E94B51E882321F40E940B
:103E80007D1D882379F084E18D83CE010E94FD1D84
:103E900080E0DF91CF911F910F91FF90EF90DF9025
:103EA000CF900895CE010E94FD1D81E0F2CF6F9268
:103EB0007F928F929F92AF92BF92CF92DF92EF92BA
:103EC000FF920F931F93CF93DF93EC015A016B0185
:103ED000390148010115110509F46AC0C801820FB2
:103EE000931F8150924008F05EC08E81882371F04C
:103EF00088819981AA81BB81481759076A077B0786
:103F000029F48F8198856816790650F5A882B982C0
:103F1000CA82DB828B85833039F0E9E0AA0CBB1CB6
:103F2000CC1CDD1CEA95D1F7CE0161E1A60195011B
:103F30000E94B51E882319F083E08D8334C0CE0122
:103F40000E94761E882379F118861F8281E08E8375
:103F500007C00E947D1D8F819885019698878F8369
:103F60008F81988586159705A0F300E010E008C0C2
:103F70000E947D1DF701E00FF11F80830F5F1F4F2F
:103F800008151905A8F32F813885280D391D3887A4
:103F90002F838985882319F02050324048F0CE01C4
:103FA0000E949C1E05C0CE010E94FD1D80E001C044
:103FB00081E0DF91CF911F910F91FF90EF90DF9003
:103FC000CF90BF90AF909F908F907F906F9008950B
:103FD000EF92FF920F931F93790120E030E000E011
:103FE00012E00E94571F1F910F91FF90EF900895CC
:103FF000BF92CF92DF92EF92FF920F931F93CF93D6
:10400000DF93EC01B62E1E2D1B8619861E821D82A3
:104010001C864C832093FC090093FD09E092F20971
:104020000E94FC0A6B018C8161E00E94C50BCE01ED
:104030000E94FD1D1F3F09F461C08091FD0960E0F1
:104040000E94C50B8091FC0961E00E94C50B809124
:10405000F20961E00E94C50BE091F2092E2F33278F
:1040600027FD3095F901EE5CFE4FE491F0E0EE0F94
:10407000FF1FE250FF4F859194919093F409809334
:10408000F30928583E4FF90184918093F509E09196
:10409000FC092E2F332727FD3095F901EE5CFE4FEA
:1040A000E491F0E0EE0FFF1FE250FF4F85919491F5
:1040B0009093F7098093F60928583E4FF9018491AF
:1040C0008093F809E091FD092E2F332727FD3095C5
:1040D000F901EE5CFE4FE491F0E0EE0FFF1FE85EA9
:1040E000FE4F859194919093FA098093F90928588D
:1040F0003E4FF90184918093FB0919C082E360E08F
:104100000E94C50B83E361E00E94C50B84E361E07C
:104110000E94C50B85E361E00E94C50B85E361E069
:104120000E94780C83E58CBD8DB58E7F8DBD10E02F
:104130008FEF0E94451D1F5F1A30D1F7CE010E94FC
:10414000F71D09C00E94FC0A6C197D09615D77406A
:1041500010F081E05AC0CE0160E020E030E040E0A5
:1041600050E00E94B51E182F8A87813059F7CE0182
:1041700068E02AEA31E040E050E00E94B51E82FF8C
:1041800002C01B870DC010E00E947D1D8A871F5F43
:104190001430D1F78A3A11F082E037C082E08B8781
:1041A0008B85823021F0EE24FF2487010FC0E12CA3
:1041B000F12C012DB0E41B2F09C00E94FC0A6C19E0
:1041C0007D09615D774010F088E01FC0CE0167E394
:1041D00020E030E040E050E00E94B51ECE0169E2F0
:1041E000A80197010E94B51E8A87882331F78B8525
:1041F0008230F1F4CE016AE320E030E040E050E0AC
:104200000E94B51E882339F086E08D83CE010E947E
:10421000FD1D80E01AC00E947D1D807C803C11F451
:1042200083E08B870E947D1D0E947D1D0E947D1D65
:10423000CE010E94FD1D8091F2098F3F11F081E0B7
:1042400004C0CE016B2D0E94B71DDF91CF911F914D
:104250000F91FF90EF90DF90CF90BF900895CF9394
:10426000DF93EC01DB0180E090E020E2FD01E80F4C
:10427000F91F208301968B309105C1F757E040E08C
:1042800021C02E3219F086EE97E007C05A3019F19E
:104290005AE048E017C03217F1F0FC010196349162
:1042A0003323C9F75417B8F02132A8F02F3798F408
:1042B000822F81568A3108F42052FD01E40FF11D4E
:1042C00020834F5F29912223E1F690E08C91803288
:1042D00019F091E001C090E0892FDF91CF9108950E
:1042E0006F927F928F929F92AF92BF92CF92DF9206
:1042F000EF92FF920F931F93CF93DF93EC017A011C
:104300008B012E81222309F480C08C899D89AE897E
:10431000BF8984179507A607B70708F476C085C03C
:10432000E114F1040105110549F41F82188619866C
:104330001A861B861C861D861E8665C02B853C85BD
:104340004D855E85EC8DFD8D858590E0099621502B
:1043500030404040504039014A01082E04C0969434
:104360008794779467940A94D2F72F5F3F4F4F4F0B
:104370005F4F0894E108F10801091109570168012C
:1043800004C0D694C794B794A7948A95D2F708949A
:10439000E11CF11C011D111DA614B704C804D904A9
:1043A00028F0211531054105510549F4888D998D75
:1043B000AA8DBB8D8F839887A987BA8716C0A61848
:1043C000B708C808D90811C04F81588569857A8512
:1043D0008C8D9D8D94010E94562B0894A108B108E4
:1043E000C108D108882331F410C087E0882E912CB1
:1043F0008C0E9D1EA114B104C104D10429F7EB86D3
:10440000FC860D871E8781E001C080E0DF91CF919F
:104410001F910F91FF90EF90DF90CF90BF90AF90E2
:104420009F908F907F906F900895223009F078CF01
:10443000E6CFCF93DF93EC01462F6F85788989898A
:104440009A890E943A29882319F420E030E00AC0B2
:104450008B89282F30E095E0220F331F9A95E1F7E2
:104460002050364FC901DF91CF9108950F931F93CC
:10447000CF93DF938C01FC0186818823D9F185815C
:1044800087FF35C0C80161E00E941922EC01009746
:1044900089F1F8018681823040F484899589A68962
:1044A000B7898C8F9D8FAE8FBF8FF801808D918DD6
:1044B0009B8F8A8F808D918DA28DB38DCD01AA2780
:1044C000BB279D8B8C8BE091FE09F091FF09309703
:1044D00051F0BE016A5E7F4FCE0148961995888DD6
:1044E000998D9B8B8A8BF80185818F7785830E94BC
:1044F000DB2801C080E0DF91CF911F910F910895DB
:10450000CF93DF93EC010E943622882311F01E82A4
:1045100081E0DF91CF9108956F927F928F929F9269
:10452000AF92BF92CF92DF92EF92FF920F931F93C1
:10453000DF93CF9300D00F92CDB7DEB77C015A0145
:104540006B01DC0116968C911697813009F08FC0B3
:1045500015968C9181FF8BC09EC00097A105B10577
:1045600011F481E085C0F7016384748485849684A6
:10457000C701B601A5010E947021882309F477C004
:10458000D7015C968D919C915D97A114B104C104F3
:10459000D10489F458964D915D916D917C915B9712
:1045A0000E94C92B882309F462C0F701108E118E76
:1045B000128E138E3DC0D70117964D915D916D916E
:1045C0007C911A979E012F5F3F4F0E94562B8823A4
:1045D00009F44DC0D7015C96ED91FC915D9749813E
:1045E0005A816B817C818789803129F088EF9FEF28
:1045F000AFEFBFE004C088EF9FEFA0E0B0E0481746
:1046000059076A077B07A0F4CF010E94C92B8823B2
:1046100071F1F7014781508561857285848D958D93
:104620000FEF1FEF2FEF3FE00E94BA2A8823F9F027
:10463000D7015496AD92BD92CD92DC9257971596C4
:104640008C911597806815968C93C7010E9436222D
:10465000882369F0B601A5016A147B048C049D04CB
:1046600010F4B401A301C7010E94702101C080E0D1
:104670000F900F900F900F90CF91DF911F910F919E
:10468000FF90EF90DF90CF90BF90AF909F908F9072
:104690007F906F900895F70184899589A689B789DD
:1046A00084179507A607B70708F057CFE0CF2F92DA
:1046B0003F924F925F926F927F928F929F92AF92B2
:1046C000BF92CF92DF92EF92FF920F931F93CF93FF
:1046D000DF93EC012A018E81882309F4C6C08D8105
:1046E00080FFC3C0D8C025014E185F084B0177E09A
:1046F000272E312C2C0E3D1E3201B1C02B853C855E
:104700004D855E856FEFA62E61E0B62EA222B32204
:104710008E8179018A0199E016950795F794E794BF
:104720009A95D1F7EC8DFD8D823049F4428D538DF1
:10473000648D758D4E0D5F1D601F711F3FC0D4804D
:10474000DA94DE20A114B104D9F4DD20C9F42115D6
:1047500031054105510549F4888D998DAA8DBB8D90
:104760008F839887A987BA870BC04F815885698541
:104770007A85CF0191010E94562B882309F475C0D8
:10478000EC8DFD8D4F81588569857A85425050406A
:1047900060407040058404C0440F551F661F771F9A
:1047A0000A94D2F786859785A089B189480F591F49
:1047B0006A1F7B1F4D0D511D611D711D80E092E030
:1047C0008A199B0963018615970508F46C018D8190
:1047D00086FD06C080E0C81682E0D80609F073C0E6
:1047E0008091FD059091FE05A091FF05B091000616
:1047F000481759076A077B0709F465C08091000CC8
:104800009091010C9501860174010E94571F882325
:1048100061F18C0C9D1C12C095012050364FA901EE
:104820004C0D5D1DD401F90102C081918D93E417F7
:10483000F507D9F7E21BF30B8E0E9F1E960140E0A1
:1048400050E08B859C85AD85BE85820F931FA41F8C
:10485000B51F8B879C87AD87BE876C187D08611458
:10486000710409F04BCFA20102C04FEF5FEFCA0104
:10487000DF91CF911F910F91FF90EF90DF90CF903C
:10488000BF90AF909F908F907F906F905F904F9070
:104890003F902F900895AC88BD88CE88DF88EB8448
:1048A000FC840D851E859A0140E050E0D601C501CB
:1048B0008E199F09A00BB10B82179307A407B507A8
:1048C00008F411CF13CFCB01BA0140E00E943A297E
:1048D000882309F0A1CFC9CFCF92DF92EF92FF9248
:1048E0000F931F93DF93CF930F92CDB7DEB76C0179
:1048F000FC018681823070F0E384F484058516859E
:10490000C601BE016F5F7F4F41E050E00E94572318
:10491000019769F020E030E0C9010F90CF91DF915D
:104920001F910F91FF90EF90DF90CF900895F601C7
:1049300083859485A585B6854F96A11DB11D838776
:104940009487A587B687F5E016950795F794E794C1
:10495000FA95D1F78E2D8F70282F30E0E5E0220FE9
:10496000331FEA95E1F72050364FD6CF0F931F93B0
:10497000CF93DF93EC018B018E81882309F041C036
:10498000FB0187898031B1F482E08E83188E198E05
:104990001A8E1B8E808D918DA0E0B0E045E0880FCF
:1049A000991FAA1FBB1F4A95D1F78C8B9D8BAE8B8D
:1049B000BF8B15C0803229F583E08E83FB01428DC9
:1049C000538D648D758D488F598F6A8F7B8F9E01B3
:1049D0002C5E3F4FC8010E94222C882391F01D8F2E
:1049E0000C8F81E08D831F82188619861A861B869C
:1049F0001C861D861E861F86188A198A1A8A1B8A9B
:104A000001C080E0DF91CF911F910F9108951F9316
:104A1000CF93DF93EC01142FE62FF0E075E0EE0F5B
:104A2000FF1F7A95E1F7E050F64F8385817121F001
:104A3000842F827409F054C06B8B8091FD05909196
:104A4000FE05A091FF05B09100068F87988BA98B7A
:104A5000BA8B84899589A0E0B0E0BC015527442732
:104A6000828D938DA0E0B0E0482B592B6A2B7B2BD5
:104A7000488F598F6A8F7B8F838590E08871907003
:104A8000009751F4848D958DA68DB78D8C8B9D8B61
:104A9000AE8BBF8B81E00CC0409711F59E012C5E60
:104AA0003F4F8C8D9D8D0E94222C8823C9F084E07D
:104AB0008E83812F8F708D831F82188619861A86A8
:104AC0001B861C861D861E8616FD02C081E009C05D
:104AD000CE0140E050E060E070E00E948C2201C016
:104AE00080E0DF91CF911F910895CF93DF93EC0188
:104AF0009C01295F3F4F8C8D9D8D41E050E060E02F
:104B000070E00E94912C8823A1F0888D998DAA8D48
:104B1000BB8D0097A105B10559F48F819885A985B2
:104B2000BA85888F998FAA8FBB8F8D8180688D837E
:104B300081E0DF91CF9108952F923F924F925F9243
:104B40007F928F929F92AF92BF92CF92DF92EF921D
:104B5000FF920F931F93DF93CF9300D000D0CDB778
:104B6000DEB76C01162F072F5E834D83DC0116968E
:104B70008C911697813009F072C115968C9181FF46
:104B80006EC18FC1F601448955896689778983850D
:104B90009485A585B68584179507A607B70731F0D4
:104BA000C6010E947021882309F459C1812F902FDA
:104BB0009C0129012D803E8019C1D6015C96ED91A2
:104BC000FC915D97DA01C90119E0B695A795979513
:104BD00087951A95D1F774807A9478227FEF872E83
:104BE00071E0972E82229322772009F050C0811421
:104BF000910409F04CC0D60117964D915D916D91CD
:104C00007C911A97411551056105710581F45896FB
:104C10008D919D910D90BC91A02D0097A105B1059E
:104C200059F1F60187839087A187B28730C0CF0101
:104C30009E012F5F3F4F0E94562B882319F41E823E
:104C40001D8215C129813A814B815C81D6015C9618
:104C5000ED91FC915D978789803129F088EF9FEF76
:104C6000AFEFBFE004C088EF9FEFA0E0B0E02817EF
:104C700039074A075B0730F0C6010E947525882373
:104C800031F4EDC0F601278330874187528780E0F9
:104C900092E08819990951018215930508F45C0185
:104CA000D6015C96ED91FC915D971796ED90FD9085
:104CB0000D911C911A978EEF9FEFAFEFBFEFE80EAB
:104CC000F91E0A1F1B1F058404C0EE0CFF1C001FE9
:104CD000111F0A94D2F786859785A089B189E80EBD
:104CE000F91E0A1F1B1FE70CF11C011D111D90E08E
:104CF000A91692E0B90651F58091FD059091FE0547
:104D0000A091FF05B09100068E159F05A007B10781
:104D100061F48FEF9FEFAFEFBFEF8093FD059093AE
:104D2000FE05A093FF05B09300068091000C9091C2
:104D3000010CB801A70192010E94FE1E882309F40C
:104D40008EC0A0E0B2E04A0E5B1E3EC0811491040A
:104D500009F5F6012385348545855685848995892D
:104D6000A689B789281739074A075B0798F00E9478
:104D7000DB28882309F473C0E092FD05F092FE055C
:104D80000093FF05109300068091020C81608093D0
:104D9000020C08C0C801B70141E00E943A298823EB
:104DA00009F45DC094012050364FA9014A0D5B1DE6
:104DB000D201F90102C08D918193E417F507D9F76B
:104DC000E21BF30B4E0E5F1E2A183B08950140E0D4
:104DD00050E0F60183859485A585B685820F931FE3
:104DE000A41FB51F83879487A587B687D6011B9616
:104DF0002D913D914D915C911E972114310409F044
:104E0000DCCE54968D919D910D90BC91A02D821772
:104E10009307A407B50748F4F601248B358B468B1E
:104E2000578B85818068858311C08091FE099091A0
:104E3000FF09892B59F08D819E81892B39F0D6018C
:104E400015968C911597806815968C93F60185813F
:104E500083FF0DC0C6010E943622882341F481E001
:104E6000D60114968C93EFEFFFEFFE83ED838D81D7
:104E70009E8126960FB6F894DEBF0FBECDBFCF91B0
:104E8000DF911F910F91FF90EF90DF90CF90BF9037
:104E9000AF909F908F907F905F904F903F902F901A
:104EA000089582FD6FCE82CEDB010D900020E9F7E0
:104EB0001197A61BB70BAD010E949C250895DF93A7
:104EC000CF930F92CDB7DEB76983BE016F5F7F4F7F
:104ED00041E050E00E949C250F90CF91DF91089512
:104EE000DF92EF92FF920F931F93CF93DF93EC012A
:104EF0000E947525882309F44EC0EC8DFD8DEF804E
:104F0000F88409851A858EEF9FEFAFEFBFEFE80EAB
:104F1000F91E0A1F1B1F058404C0EE0CFF1C001F96
:104F2000111F0A94D2F786859785A089B189E80E6A
:104F3000F91E0A1F1B1FD4800894E108F10801091B
:104F400011090BC0C801B7016D0D711D811D911DA7
:104F50000E9416298823F9F0DA94DD2099F7EC8D68
:104F6000FD8D20E032E040E050E0058404C0220FD7
:104F7000331F441F551F0A94D2F78C899D89AE892F
:104F8000BF89820F931FA41FB51F8C8B9D8BAE8B87
:104F9000BF8B81E001C080E0DF91CF911F910F9125
:104FA000FF90EF90DF9008956F927F928F929F9283
:104FB000AF92BF92CF92DF92EF92FF920F931F9327
:104FC000DF93CF93CDB7DEB72B970FB6F894DEBF44
:104FD0000FBECDBF5C016B01822EDC0116968C9159
:104FE000882309F0D2C0CA018E010F5F1F4FB8019C
:104FF0000E942F21882309F4C8C0F601848D958D65
:10500000D5015D969C938E935C97178210861186CE
:105010001286D6011B961D921D921D921C921E9700
:105020009924380141C0C6010E946C24FC010097FC
:1050300009F4ABC085E016950795F794E7948A9537
:10504000D1F71E2D1F708081882311F0853ED1F489
:10505000992091F4D50153961C9353972091FD0507
:105060003091FE054091FF05509100061F962D934B
:105070003D934D935C9352978081882399F49924B2
:10508000939421C0C301BF014BE050E00E94812FE7
:10509000009751F4882D8073803309F476C0C501E0
:1050A000612F6FC099249394F601E384F4840585FD
:1050B000168584899589A689B789E816F9060A07AD
:1050C0001B0708F4B0CF882D8271823109F05DC0D2
:1050D000992041F0C50161E00E9419228C010097DE
:1050E00089F453C0D60116968C91823009F44DC0D4
:1050F000C6010E947027882309F447C0F501138A6E
:1051000000E01AE080E2D8011D928A95E9F7D80103
:10511000FE0131968BE001900D928150E1F7E09114
:10512000FE09F091FF09309739F0B801625F7F4FB7
:10513000C8014096199509C081E298E2F801918B67
:10514000808B80E098E097878687D80150968D9174
:105150009C91519753969C938E93529759969C93FA
:105160008E9358971E968D919C911F9757969C935E
:105170008E9356970E94DB28882339F0C501F501EC
:105180006389482D0E94072501C080E02B960FB649
:10519000F894DEBF0FBECDBFCF91DF911F910F916D
:1051A000FF90EF90DF90CF90BF90AF909F908F9047
:1051B0007F906F9008958091020C882399F140911F
:1051C000FD055091FE056091FF05709100068091EC
:1051D000000C9091010C20E03AE00E94FE1E882312
:1051E00019F14091030C5091040C6091050C7091E1
:1051F000060C411551056105710591F08091000C77
:105200009091010C20E03AE00E94FE1E882361F09C
:105210001092030C1092040C1092050C1092060CC4
:105220001092020C81E0089580E00895EF92FF92C1
:105230000F931F937B018C010E94DB288823A9F028
:10524000E0E0FAE011928CE0E030F807D9F7E09264
:10525000FD05F092FE050093FF0510930006809176
:10526000020C81608093020C81E01F910F91FF90EE
:10527000EF900895DF92EF92FF920F931F937B01BF
:105280008C01D42E8091FD059091FE05A091FF0523
:10529000B09100068E159F05A007B107C1F00E94CE
:1052A000DB288823D9F08091000C9091010CB80183
:1052B000A70120E03AE00E94E81F882379F0E092FD
:1052C000FD05F092FE050093FF0510930006809106
:1052D000020C8D298093020C81E001C080E01F91B7
:1052E0000F91FF90EF90DF9008958F929F92AF9271
:1052F000BF92CF92DF92EF92FF920F931F93CF93C3
:10530000DF936C01142F7093010C6093000C442305
:1053100021F488249924540140C0453008F01CC170
:1053200060E070E080E090E040E00E943A2988234D
:1053300009F412C1C12FD0E02197FE0174E0EE0FF5
:10534000FF1F7A95E1F7E050F64FE254FE4F80815F
:10535000EE5BF14090E08F779070892B09F0FCC0F4
:10536000E653FE4F80819181A281B38184369105FD
:10537000A105B10508F4F0C064E0CC0FDD1F6A950B
:10538000E1F7CA53D44F88809980AA80BB808114EA
:105390009104A104B10409F4DFC0C501B40140E0E7
:1053A0000E943A29882309F4D7C080910B0A909172
:1053B0000C0A8050924009F0CFC02091100A22239D
:1053C00009F4CAC080910E0A90910F0A892B09F442
:1053D000C3C080910D0A882309F4BEC0F601228B58
:1053E00080910D0A8483158661E070E007C04F5FED
:1053F000F60145874150483008F0AEC0F6014585BA
:10540000848190E09B01042E02C0220F331F0A9476
:10541000E2F78217930759F72091160A3091170A7D
:105420002115310519F040E050E008C02091240A10
:105430003091250A4091260A5091270AF6012583CA
:10544000368347835087E0900E0AF0900F0A00E001
:1054500010E0E80CF91C0A1D1B1DE38AF48A058B79
:10546000168B8091110A9091120A918F808F609112
:10547000100A70E080E090E00E941F316E0D7F1DE9
:10548000801F911FF601628F738F848F958F2091FB
:10549000110A3091120A55E0220F331F5A95E1F795
:1054A00021503E4F232F3327269540E050E0260F12
:1054B000371F481F591F26873787408B518B809194
:1054C000130A9091140A009719F0A0E0B0E008C008
:1054D0008091200A9091210AA091220AB091230A7A
:1054E00085017401E21AF30A040B150BA801970158
:1054F000280F391F4A1F5B1FF601058404C056950B
:105500004795379527950A94D2F7218732874387A5
:105510005487253FFFE03F07F0E04F07F0E05F07CB
:1055200010F48CE006C0255F3F4F4040504028F407
:1055300080E1F601878B81E010C080912C0A909168
:105540002D0AA0912E0AB0912F0AF601828F938F17
:10555000A48FB58F80E2EECF80E0DF91CF911F91D5
:105560000F91FF90EF90DF90CF90BF90AF909F9002
:105570008F9008954F925F926F927F928F929F9239
:10558000AF92BF92CF92DF92EF92FF920F931F9351
:10559000CF93DF93EC016A017B012801390142308E
:1055A00051056105710508F46FC089859A85AB8541
:1055B000BC850196A11DB11D84179507A607B707E5
:1055C00008F462C02B893C894D895E898F898031BE
:1055D00029F499278F2D7E2D6D2D09C0C701B601A5
:1055E00017E096958795779567951A95D1F74B01B2
:1055F0005C01820E931EA41EB51E8091FD05909144
:10560000FE05A091FF05B091000688169906AA062E
:10561000BB0639F0C501B40140E00E943A29882355
:1056200099F18F89803149F4F601F070EE0FFF1F78
:10563000E050F64F518240820DC0F601EF77F070D6
:10564000EE0FFF1FEE0FFF1FE050F64F408251821A
:10565000628273828091020C81608093020C8A893D
:10566000823080F08D819E81AF81B885880E991E31
:10567000AA1EBB1E8092030C9092040CA092050CF3
:10568000B092060C81E001C080E0DF91CF911F91C4
:105690000F91FF90EF90DF90CF90BF90AF909F90D1
:1056A0008F907F906F905F904F900895CF92DF9290
:1056B000EF92FF920F931F93CF93DF93EC017A0148
:1056C0008B01690189859A85AB85BC850196A11DF1
:1056D000B11D84179507A607B70708F450C02B899A
:1056E0003C894D895E898F89803129F49927812FE2
:1056F000702F6F2D09C0C801B701E7E09695879517
:1057000077956795EA95D1F7260F371F481F591FE0
:105710008091FD059091FE05A091FF05B0910006D6
:10572000281739074A075B0739F0CA01B90140E079
:105730000E943A29882319F18F89803159F4F701A1
:10574000F070EE0FFF1FE050F64F80819181A0E0D6
:10575000B0E00EC0F701EF77F070EE0FFF1FEE0F15
:10576000FF1FE050F64F80819181A281B381BF700D
:10577000F60180839183A283B38381E001C080E03E
:10578000DF91CF911F910F91FF90EF90DF90CF901D
:105790000895AF92BF92CF92DF92EF92FF920F9354
:1057A0001F93DF93CF9300D00F92CDB7DEB76C017C
:1057B0007A018B0182E090E0A0E0B0E0F601808306
:1057C0009183A283B3835E010894A11CB11CC6011E
:1057D000B801A70195010E94562B882319F1C60133
:1057E000B801A70100E010E020E030E00E94BA2AF2
:1057F0008823C1F0E980FA800B811C81F60187893A
:10580000803129F088EF9FEFAFEFBFE004C088EF51
:105810009FEFA0E0B0E0E816F9060A071B07B8F210
:1058200081E001C080E00F900F900F900F90CF911A
:10583000DF911F910F91FF90EF90DF90CF90BF907D
:10584000AF9008954F925F926F927F928F929F9246
:10585000AF92BF92CF92DF92EF92FF920F931F937E
:10586000DF93CF9300D00F92CDB7DEB76C014983A1
:105870005A836B837C833901EE24FF2487012E0138
:105880000894411C511C812CA2E09A2EA12CB12C11
:1058900049815A816B817C81C60192010E94562BFD
:1058A000882351F1D501C401F601058404C0880F95
:1058B000991FAA1FBB1F0A94D2F7E80EF91E0A1FF0
:1058C0001B1F29813A814B815C818789803129F0B6
:1058D00088EF9FEFAFEFBFE004C088EF9FEFA0E03D
:1058E000B0E0281739074A075B0790F2F301E0821E
:1058F000F1820283138381E00F900F900F900F903D
:10590000CF91DF911F910F91FF90EF90DF90CF909B
:10591000BF90AF909F908F907F906F905F904F90CF
:1059200008952F923F924F925F926F927F928F9243
:105930009F92AF92BF92CF92DF92EF92FF920F931E
:105940001F93DF93CF93CDB7DEB72F970FB6F894A1
:10595000DEBF0FBECDBF1C014A875B876C877D878A
:105960003F872E87D9010D911D912D913C910115F5
:1059700011052105310549F0480159010894811CA0
:10598000911CA11CB11C198610C0FC018080918063
:10599000A280B38019868A859B85AC85BD850197D9
:1059A000A105B10511F491E09987D10119968D9166
:1059B0009D910D90BC91A02D0196A11DB11D8D83CF
:1059C0009E83AF83B8877501640144245524320156
:1059D0008E010F5F1F4FF10181859285A385B485EC
:1059E000481659066A067B0608F090C08D819E8194
:1059F000AF81B8858C159D05AE05BF0550F482E0DA
:105A0000882E912CA12CB12CB2E0CB2ED12CE12CE4
:105A1000F12CC101B701A60198010E94562B8823E1
:105A200009F474C089819A81AB81BC81A701960178
:105A30002F5F3F4F4F4F5F4F0097A105B10519F002
:105A400049015A010DC0281939094A095B098A859B
:105A50009B85AC85BD85281739074A075B0759F038
:105A60000894411C511C611C711C0894C11CD11C60
:105A7000E11CF11CB0CFC101A601B7010FEF1FEF70
:105A80002FEF3FE00E94BA2A882399F43FC02601F5
:105A9000370108944108510861087108C101B30138
:105AA000A201970186010E94BA2A882379F1730125
:105AB00062018C149D04AE04BF0448F3AE85BF851B
:105AC0004D915D916D917C91411551056105710577
:105AD00039F0C101950184010E94BA2A8823B1F0EE
