:100000000C9403010C942F010C942F010C942F01DC
:100010000C942F010C942F010C942F010C942F01A0
:100020000C942F010C942F010C942F010C942F0190
:100030000C942F010C942F010C942F010C942F0180
:100040000C942F010C942F010C942F010C942F0170
:100050000C942F010C942F010C942F010C94AC05DF
:100060000C942F010C9451090C94310A0C942F011B
:100070000C942F010C942F010C942F010C942F0140
:100080000C942F010C942F010C942F010C942F0130
:100090000C9489090C94700A0C942F010C942F0174
:1000A0000C942F010C942F010C942F010C942F0110
:1000B0000C942F010C942F010C942F010C942F0100
:1000C0000C942F010C942F010C942F010C94C10956
:1000D0000C94AF0A0C942F010C94F9090C94EE0ABD
:1000E0000C942F0100002100240027002A002D007D
:1000F0003000330001010000040107010A01000083
:100100002200250028002B002E00310034000201BF
:100110000000050108010B0100002000230026005B
:1001200029002C002F00320000010000030106010D
:10013000090105050505070508080808020202026D
:100140000A0A080804040404010101010101010173
:100150000303030303030303040707070C0C0C0C3E
:100160000C0C0C0C02020202060606060606060627
:100170000B0B0B0B0B0B0B0B0102102020080810B4
:100180002040102040800201020108040201010207
:1001900004081020408080402010080402018004E0
:1001A000020180402010080402010804020101023B
:1001B0000408102040800102040810204080000044
:1001C000090A02080B0C0D070603040100000000D9
:1001D000000000000000000000000000000000001F
:1001E0000000000000000000000011100F000000DF
:1001F00000000000000000000000000000000000FF
:1002000000000000BE0C11241FBECFEFD1E2DEBF04
:10021000CDBF00E00CBF13E0A0E0B2E0EAEAFDE1F0
:1002200000E00BBF02C007900D92A23AB107D9F7C8
:1002300016E0A2EAB3E001C01D92A734B107E1F7CE
:1002400012E0C6E0D2E004C02297FE010E94CF0E69
:10025000C430D107C9F70E949B050C94470E0C943B
:1002600000002F923F924F925F926F927F928F92F7
:100270009F92AF92BF92CF92DF92EF92FF920F9335
:100280001F93CF93DF931B012C0137014801CA0153
:10029000B901A80197010E94900EAC01CB01DA01CF
:1002A0005C016D01C0E0D0E0EE24FF248701D201A3
:1002B000C1010C2E04C0B695A795979587950A9411
:1002C000D2F780FF0FC0EA0CFB1C0C1D1D1DC801DE
:1002D000B701A40193010E94900EAC01CB01DA0199
:1002E0007C018D012196C032D10581F0AA0CBB1C86
:1002F000CC1CDD1CC601B501A40193010E94900E27
:10030000AC01CB01DA015C016D01D1CFB701C801AD
:10031000DF91CF911F910F91FF90EF90DF90CF90E1
:10032000BF90AF909F908F907F906F905F904F9015
:100330003F902F9008952F923F924F925F926F922D
:100340007F928F929F92AF92BF92CF92DF92EF9265
:10035000FF920F931F93DF93CF9300D000D0CDB7C0
:10036000DEB75B016C0129833A834B835C833701E1
:10037000480161E070E080E090E0A80197010E94F0
:10038000900E562E472E382E292EC601B501A801F3
:1003900097010E94900EB62EC72ED82EA92E1E822F
:1003A0001D8289819A81AB81BC810D8004C0B69584
:1003B000A795979587950A94D2F780FF10C0652D71
:1003C000742D832D922D2B2D3C2D4D2D5A2D8401D6
:1003D00073010E943101562E472E382E292E6B2D87
:1003E0007C2D8D2D9A2D2B2D3C2D4D2D5A2D84019C
:1003F00073010E943101B62EC72ED82EA92E8D81F1
:100400009E8101969E838D83809759F6652D742D6C
:10041000832D922D26960FB6F894DEBF0FBECDBF6A
:10042000CF91DF911F910F91FF90EF90DF90CF90D0
:10043000BF90AF909F908F907F906F905F904F9004
:100440003F902F9008958BEC95E040E855E260E0F6
:1004500070E00E942D0B88E296E040E855E260E0F3
:1004600070E00E942D0B89E060E00E94BD0689E0EB
:1004700061E00E9470070895CF92DF92EF92FF92A1
:100480000F931F937B018C0128E2C22E26E0D22E0F
:10049000C6016E2D0E94850C5527412F302F2F2D20
:1004A000C601622F0E94850C980144275527C6017A
:1004B000622F0E94850CE12EFF2400271127C60120
:1004C0006E2D0E94850C1F910F91FF90EF90DF9091
:1004D000CF9008954F925F926F927F928F929F92EA
:1004E000AF92BF92CF92DF92EF92FF920F931F9342
:1004F00068E2462E66E0562EC2010E944A0C3C017C
:10050000C2010E944A0C7C01C2010E944A0C5C019B
:10051000C2010E944A0C0027F7FC0095102F102FF3
:100520000F2DFE2CEE24CC24B7FCC094DC2C6501EE
:10053000BB24AA24EA28FB280C291D29882477FC3F
:100540008094982CE628F72808291929AA2797FDCE
:10055000A095BA2FB82FAA2799278827E82AF92A21
:100560000A2B1B2BB701C8011F910F91FF90EF9031
:10057000DF90CF90BF90AF909F908F907F906F90C3
:100580005F904F900895AF92BF92CF92DF92EF921B
:10059000FF920F931F93CF93DF93EE24FF248701E5
:1005A000CFE1D0E071E0A72EB12CC12CD12C81E09D
:1005B0000E94D30780FF0EC0D601C5010C2E04C0D7
:1005C000880F991FAA1FBB1F0A94D2F7E80EF91EC5
:1005D0000A1F1B1F62E370E080E090E00E940206A9
:1005E00021978FEFCF3FD80711F7B701C801DF91EF
:1005F000CF911F910F91FF90EF90DF90CF90BF9020
:10060000AF900895AF92BF92CF92DF92EF92FF9298
:100610000F931F93CF93DF935C01C2E0D0E0E1E042
:10062000CE2ED12CE12CF12C87E00E94D30780FF45
:100630000CC0D701C6010C2E04C0880F991FAA1F39
:10064000BB1F0A94D2F7080F191F62E370E080E025
:1006500090E00E9402068FEFCF3ED80711F021975D
:10066000E3CF0E94370E64E670E00E947D0E800F9B
:10067000911FB5010E947D0E9C012F5F3F4FC90164
:10068000DF91CF911F910F91FF90EF90DF90CF906E
:10069000BF90AF900895CF93DF938BEC95E060E02F
:1006A00072E00E943E0960ED77E080E090E00E94F9
:1006B00002068DE061E00E94BD068DE00E94A30766
:1006C000892BD9F48BEC95E066E272E00E943E093A
:1006D00082E090E00E940203EC018130910521F458
:1006E00088E296E062E006C08230910591F488E2EB
:1006F00096E061E00E94850C0CC088E296E00E94C2
:10070000190C18161906CCF788E296E00E944A0CDC
:10071000EC018BEC95E06EE272E00E943B098BEC01
:1007200095E0BE014AE050E00E941C09CE01DF9135
:10073000CF9108958F929F92AF92BF92CF92DF9206
:10074000EF92FF921F93CF93DF93182F4A015B0123
:100750000E94F4056B017C01C80CD91CEA1CFB1C2F
:10076000C12FD0E088E296E00E94190C8C179D07FB
:1007700084F4B7FC07C00E94F4056C157D058E0556
:100780009F0538F461E070E080E090E00E9402068E
:10079000E9CF88E296E00E94190C20E08C179D07B3
:1007A0000CF021E0822FDF91CF911F91FF90EF900D
:1007B000DF90CF90BF90AF909F908F900895AF92B1
:1007C000BF92CF92DF92EF92FF920F931F93CF933E
:1007D000DF937B018C01C1E0D0E0C130D105C9F4C9
:1007E0008BEC95E06CE372E00E943E0981E04FEFF4
:1007F0005FEF6FEF7FEF0E949A03882371F388E227
:1008000096E00E944A0C8334910539F7C2E0D0E0AB
:10081000E4CFC230D105F9F48BEC95E069E472E0E5
:100820000E943E0984E048EE53E060E070E00E94E0
:100830009A03882381F20E946A025B016C0188E2BC
:1008400096E061E40E94850CC801B7010E943C0259
:10085000C3E0D0E0C2CFC330D10509F070C081E061
:1008600048EE53E060E070E00E949A03882309F4A8
:1008700066C08BEC95E06CE572E00E943E0904C016
:10088000833411F4C2E0D0E088E296E00E94190CB3
:10089000181619060CF0A1CFC330D10509F09DCF71
:1008A00088E296E00E944A0C813451F7C6E0D0E01D
:1008B000EBCF8BEC95E069E472E00E943E0984E0A6
:1008C00048EE53E060E070E00E949A03882309F448
:1008D00082CF0E946A025B016C01C801B7010E94CD
:1008E0003C02C5E0D0E079CFC530D10561F581E0AB
:1008F00048EE53E060E070E00E949A03882309F418
:100900006ACF8BEC95E06CE572E00E943E0988E2CC
:1009100096E00E94190C61CF8BEC95E06FE672E0D7
:100920000E943E09B501C601DF91CF911F910F9141
:10093000FF90EF90DF90CF90BF90AF900895C430BC
:10094000D10591F6B6CF269709F045CFE5CFAF9206
:10095000BF92CF92DF92EF92FF920F931F937B0192
:100960008C0181E090E08130910591F48BEC95E071
:100970006DE772E00E943E0988E296E063E40E941F
:10098000850CC801B7010E943C0282E090E0EBCFE9
:10099000029769F581E048EE53E060E070E00E9464
:1009A0009A038823F1F288E296E00E944A0C81348F
:1009B0009105B9F68BEC95E063E872E00E943E0980
:1009C00084E048EE53E060E070E00E949A038823E0
:1009D00041F20E946A02D62EC72EB82EA92E88E2B6
:1009E00096E061E40E94850C83E090E0BCCF6D2D21
:1009F0007C2D8B2D9A2D1F910F91FF90EF90DF9002
:100A0000CF90BF90AF900895AF92BF92CF92DF92F8
:100A1000EF92FF920F931F938BEC95E067E872E0E3
:100A20000E943E098BEC95E069E972E00E943E0964
:100A30000E94C3025B016C018BEC95E06EEB72E0EF
:100A40000E943E0967EA71E480E090E0A60195010A
:100A5000AFEFEA2EAFEFFA2EAFEF0A2FAFE71A2F64
:100A60000E949B017B018C018DE061E00E94BD062C
:100A70008DE00E94A307892B59F48BEC95E069EE79
:100A800072E00E943E09C801B7010E94A7040AC093
:100A90008BEC95E064E173E00E943E09C801B70168
:100AA0000E94DF03A6019501FFEFEF2EFFEFFF2E5F
:100AB000FFEF0F2FFFE71F2F0E949B018BEC95E0AC
:100AC0006FE373E00E943E0911C088E296E00E9445
:100AD0004A0CBC018BEC95E04AE050E00E94090909
:100AE00061E070E080E090E00E94020688E296E01B
:100AF0000E94190C1816190644F38BEC95E062E578
:100B000073E00E943E098BEC95E061E673E00E9481
:100B10003E0980E090E01F910F91FF90EF90DF90F1
:100B2000CF90BF90AF9008950E9404050E944B03A0
:100B300080E090E008950E945B060E9423020E94DC
:100B400094058BEC95E00E94B30B88E296E00E943E
:100B5000B30B80E090E008951F920F920FB60F92B2
:100B600011242F933F938F939F93AF93BF938091C3
:100B7000A6039091A703A091A803B091A903309177
:100B8000AA030196A11DB11D232F2D5F2D3720F043
:100B90002D570196A11DB11D2093AA038093A60392
:100BA0009093A703A093A803B093A9038091A203F5
:100BB0009091A303A091A403B091A5030196A11D58
:100BC000B11D8093A2039093A303A093A403B093B9
:100BD000A503BF91AF919F918F913F912F910F905E
:100BE0000FBE0F901F9018958FB7F8942091A60311
:100BF0003091A7034091A8035091A9038FBFB90179
:100C0000CA0108959B01AC017FB7F8948091A203BB
:100C10009091A303A091A403B091A50366B5A89BEE
:100C200005C06F3F19F00196A11DB11D7FBFBA2FFE
:100C3000A92F982F8827860F911DA11DB11D62E055
:100C4000880F991FAA1FBB1F6A95D1F7BC012DC041
:100C5000FFB7F8948091A2039091A303A091A403FD
:100C6000B091A503E6B5A89B05C0EF3F19F001962A
:100C7000A11DB11DFFBFBA2FA92F982F88278E0F56
:100C8000911DA11DB11DE2E0880F991FAA1FBB1F76
:100C9000EA95D1F7861B970B885E9340C8F22150E6
:100CA00030404040504068517C4F2115310541058E
:100CB000510571F60895789484B5826084BD84B539
:100CC000816084BD85B5826085BD85B5816085BD47
:100CD000EEE6F0E0808181608083E1E8F0E0108260
:100CE000808182608083808181608083E0E8F0E0A1
:100CF000808181608083E1EBF0E08081846080838B
:100D0000E0EBF0E0808181608083E1E9F0E08081C8
:100D100082608083808181608083E0E9F0E080816F
:100D200081608083E1EAF0E080818260808380815D
:100D300081608083E0EAF0E0808181608083E1E28D
:100D4000F1E0808182608083808181608083E0E245
:100D5000F1E0808181608083EAE7F0E08081846057
:100D600080838081826080838081816080838081B4
:100D7000806880831092C1000895CF93DF93482F3D
:100D800050E0CA0188589E4FFC0134914E5C5E4F82
:100D9000FA018491882369F190E0880F991FFC0182
:100DA000EC51FF4FA591B491FC01E250FF4FC5916A
:100DB000D491662351F42FB7F8948C91932F90958A
:100DC00089238C93888189230BC0623061F42FB70B
:100DD000F8948C91932F909589238C938881832B01
:100DE00088832FBF06C09FB7F8948C91832B8C9378
:100DF0009FBFDF91CF910895893009F449C08A30AF
:100E0000A0F4843051F1853040F4823079F18330A0
:100E100000F5813009F063C026C0873079F1883051
:100E200098F5863009F05BC025C08D3009F442C0CA
:100E30008E3028F48B30B1F18C30C0F52DC080316C
:100E400009F442C0813109F445C08F3009F047C030
:100E500037C0809180008F7703C0809180008F7DA4
:100E600080938000089584B58F7702C084B58F7D0C
:100E700084BD08958091B0008F7703C08091B00049
:100E80008F7D8093B0000895809190008F7707C088
:100E9000809190008F7D03C080919000877F809328
:100EA000900008958091A0008F7707C08091A000E6
:100EB0008F7D03C08091A000877F8093A00008955C
:100EC000809120018F7703C0809120018F7D8093D6
:100ED0002001089580912001877F8093200108954B
:100EE000FF920F931F93F62E482F50E0CA018254B1
:100EF0009E4FFC012491CA0188589E4FFC01149119
:100F00004E5C5E4FFA0104910023C9F0222319F0D0
:100F1000822F0E94FC06E02FF0E0EE0FFF1FE25050
:100F2000FF4FA591B4919FB7F894FF2021F48C91C5
:100F30001095812302C08C91812B8C939FBF1F91B0
:100F40000F91FF9008950F931F93482F50E0CA010F
:100F500082549E4FFC012491CA0188589E4FFC0187
:100F600004914E5C5E4FFA011491112319F420E0B4
:100F700030E015C0222319F0822F0E94FC06812F39
:100F800090E0880F991F885E9E4FFC01A591B49157
:100F90008C9120E030E0802311F021E030E0C901A5
:100FA0001F910F910895382F863308F03653209102
:100FB0007B00832F86958695869590E08170907052
:100FC00043E0880F991F4A95E1F7277F282B20934C
:100FD0007B003770809191038295880F880F807C09
:100FE000832B80937C0080917A00806480937A00C8
:100FF00080917A0086FDFCCF2091780040917900A5
:10100000942F80E030E0282B392BC9010895CF922E
:10101000DF92EF92FF920F931F93CF93DF937C01A8
:101020006B018A01C0E0D0E00FC0D6016D916D0167
:10103000D701ED91FC910190F081E02DC701199548
:10104000C80FD91F015010400115110571F7CE01CD
:10105000DF91CF911F910F91FF90EF90DF90CF9094
:101060000895EF92FF920F931F938C01DC01ED9195
:10107000FC910190F081E02D6DE019957C01D80183
:10108000ED91FC910190F081E02DC8016AE0199585
:101090009C012E0D3F1DC9011F910F91FF90EF90F4
:1010A0000895CF93DF93DB010D900020E9F71197AE
:1010B000A61BB70BEC01E881F9810280F381E02DDA
:1010C000AD011995DF91CF9108954F925F927F9274
:1010D0008F929F92AF92BF92CF92DF92EF92FF9248
:1010E0000F931F93DF93CF93CDB7DEB7A1970FB6C2
:1010F000F894DEBF0FBECDBF2C01742ECB01223081
:1011000008F42AE019A231E2C32ED12CCC0EDD1E48
:10111000822E9924AA24BB24672D752FA501940142
:101120000E94900E79018A01C801B701A5019401BE
:101130000E944A0E472D461B0894C108D1084A3028
:1011400014F4405D01C0495CF6014083E114F104F0
:101150000105110521F07E2C5F2DC801DDCFC201F4
:10116000B6010E945108A1960FB6F894DEBF0FBEDB
:10117000CDBFCF91DF911F910F91FF90EF90DF9046
:10118000CF90BF90AF909F908F907F905F904F9047
:101190000895CF92DF92EF92FF920F931F93CF9318
:1011A000DF93EC016A017B012115310541F4E881EF
:1011B000F9810190F081E02D642F19951FC02A302C
:1011C0003105D1F477FF17C0E881F9810190F081F2
:1011D000E02D6DE219958C0144275527BA014C1971
:1011E0005D096E097F09CE012AE00E946508980119
:1011F000280F391F04C02AE00E9465089C01C9011C
:10120000DF91CF911F910F91FF90EF90DF90CF90E2
:101210000895EF92FF920F931F937B019A0100278D
:10122000F7FC0095102FB801A7010E94C9081F9173
:101230000F91FF90EF900895CF92DF92EF92FF927F
:101240000F931F936C017B019A010027F7FC009517
:10125000102FB801A7010E94C9088C01C6010E9485
:101260003108080F191FC8011F910F91FF90EF90CF
:10127000DF90CF9008950E9451080895EF92FF9259
:101280000F931F937C010E9451088C01C7010E949B
:101290003108080F191FC8011F910F91FF90EF909F
:1012A00008951F920F920FB60F920BB60F92112452
:1012B0002F933F934F938F939F93EF93FF9340917F
:1012C000C6002091EB033091EC032F5F3F4F2F734B
:1012D00030708091ED039091EE032817390759F093
:1012E000E091EB03F091EC03E555FC4F4083309324
:1012F000EC032093EB03FF91EF919F918F914F911E
:101300003F912F910F900BBE0F900FBE0F901F902B
:1013100018951F920F920FB60F920BB60F921124D1
:101320002F933F934F938F939F93EF93FF9340910E
:10133000CE0020917304309174042F5F3F4F2F73C0
:10134000307080917504909176042817390759F010
:10135000E0917304F0917404ED5CFB4F4083309393
:10136000740420937304FF91EF919F918F914F919B
:101370003F912F910F900BBE0F900FBE0F901F90BB
:1013800018951F920F920FB60F920BB60F92112461
:101390002F933F934F938F939F93EF93FF9340919E
:1013A000D6002091FB043091FC042F5F3F4F2F7338
:1013B00030708091FD049091FE042817390759F090
:1013C000E091FB04F091FC04E554FB4F4083309323
:1013D000FC042093FB04FF91EF919F918F914F911B
:1013E0003F912F910F900BBE0F900FBE0F901F904B
:1013F00018951F920F920FB60F920BB60F921124F1
:101400002F933F934F938F939F93EF93FF9340912D
:10141000360120918305309184052F5F3F4F2F7354
:10142000307080918505909186052817390759F00D
:10143000E0918305F0918405ED5BFA4F4083309392
:10144000840520938305FF91EF919F918F914F9198
:101450003F912F910F900BBE0F900FBE0F901F90DA
:1014600018951F920F920FB60F920BB60F92112480
:101470002F933F938F939F93EF93FF9320912F048C
:10148000309130048091310490913204281739074B
:1014900031F48091C1008F7D8093C10014C0E09130
:1014A0003104F0913204E151FC4F208180913104EC
:1014B0009091320401968F739070909332048093D0
:1014C00031042093C600FF91EF919F918F913F913E
:1014D0002F910F900BBE0F900FBE0F901F9018957D
:1014E0001F920F920FB60F920BB60F9211242F93EB
:1014F0003F938F939F93EF93FF932091B704309185
:10150000B8048091B9049091BA042817390731F4CE
:101510008091C9008F7D8093C90014C0E091B90407
:10152000F091BA04E958FB4F20818091B904909161
:10153000BA0401968F7390709093BA048093B904A3
:101540002093CE00FF91EF919F918F913F912F912A
:101550000F900BBE0F900FBE0F901F9018951F920B
:101560000F920FB60F920BB60F9211242F933F9349
:101570008F939F93EF93FF9320913F053091400508
:1015800080914105909142052817390731F48091E7
:10159000D1008F7D8093D10014C0E0914105F0917E
:1015A0004205E150FB4F2081809141059091420519
:1015B00001968F739070909342058093410520931C
:1015C000D600FF91EF919F918F913F912F910F90B6
:1015D0000BBE0F900FBE0F901F9018951F920F9289
:1015E0000FB60F920BB60F9211242F933F938F9348
:1015F0009F93EF93FF932091C7053091C805809189
:10160000C9059091CA052817390731F48091310135
:101610008F7D8093310114C0E091C905F091CA0516
:10162000E957FA4F20818091C9059091CA0501962A
:101630008F7390709093CA058093C90520933601EB
:10164000FF91EF919F918F913F912F910F900BBE42
:101650000F900FBE0F901F901895AF92BF92DF9220
:10166000EF92FF920F931F93CF93DF93EC017A01D8
:101670008B01DD24403081EE580780E0680780E070
:10168000780711F0DD24D39491E0A92EB12CEC89D8
:10169000FD89DD2069F0C5010E8C02C0880F991FFD
:1016A0000A94E2F7808360E079E08DE390E005C082
:1016B000108260E874E88EE190E0A80197010E9432
:1016C000900E2150304040405040569547953795F8
:1016D000279580E12030380720F0DD2011F0DD244F
:1016E000D6CFE889F9893083EA89FB892083EE899E
:1016F000FF89408121E030E0C9010A8C02C0880FD7
:10170000991F0A94E2F7482B4083EE89FF894081B4
:10171000C9010B8C02C0880F991F0A94E2F7482B6D
:101720004083EE89FF894081C9010C8C02C0880F7B
:10173000991F0A94E2F7482B4083EE89FF89808144
:101740000D8C02C0220F331F0A94E2F72095282344
:101750002083DF91CF911F910F91FF90EF90DF9049
:10176000BF90AF900895CF93DF93DC011E968D91CB
:101770009C911F97EC01C05CDF4FFC01EE5BFF4FBB
:10178000288139818081918128173907C9F75696B8
:10179000ED91FC915797408121E030E0C9015A96C4
:1017A0000C905A9702C0880F991F0A94E2F780950F
:1017B000842380835696ED91FC9157974081C9010F
:1017C0005B960C905B9702C0880F991F0A94E2F712
:1017D0008095842380835696ED91FC9157974081A4
:1017E000C9015C960C905C9702C0880F991F0A94FF
:1017F000E2F78095842380835696ED91FC9157976C
:1018000080815D960C905D9702C0220F331F0A9471
:10181000E2F72095282320831C96ED91FC911D97DB
:10182000EE5BFF4F8081918192938293DF91CF9104
:101830000895DC011C96ED91FC911D97E05CFF4F33
:101840002191319180819181281B390B2F73307048
:10185000C9010895DC011C96ED91FC911D97E05C97
:10186000FF4F20813181E054F040DF01AE5BBF4F7C
:101870008D919C9111972817390719F42FEF3FEF9D
:1018800007C08D919C91E80FF91F8081282F30E0CF
:10189000C9010895DC011C96ED91FC911D97E05C57
:1018A000FF4F20813181E054F040DF01AE5BBF4F3C
:1018B0008D919C9111972817390719F42FEF3FEF5D
:1018C00010C08D919C911197E80FF91F20818D9187
:1018D0009C91119701968F73907011969C938E93A3
:1018E00030E0C9010895FC0186859785DC01A05C84
:1018F000BF4FFC01EE5BFF4F2D913C911197808112
:10190000918128173907C1F70895CF93DF93EC0130
:10191000EE85FF85E05CFF4F20813181E054F0408F
:101920002F5F3F4F2F733070DF01AE5BBF4F8D9144
:101930009C91119728173907D1F3E05CFF4F808104
:101940009181E054F040E80FF91F6083EE85FF8538
:10195000E05CFF4F31832083EE89FF89208181E0A5
:1019600090E00D8C02C0880F991F0A94E2F7282B93
:10197000208381E090E0DF91CF9108951F93109232
:10198000CE051092CD0528EE33E040E050E02093E4
:10199000CF053093D0054093D1055093D20566E929
:1019A00073E07093CC056093CB058BEA93E0909342
:1019B000D8058093D7058FEE93E09093DA05809356
:1019C000D90585EC90E09093DC058093DB0584ECF1
:1019D00090E09093DE058093DD0580EC90E090939D
:1019E000E0058093DF0581EC90E09093E205809321
:1019F000E10586EC90E09093E4058093E30514E024
:101A00001093E505B3E0B093E605A7E0A093E705E2
:101A1000F5E0F093E805E1E0E093E9051092ED05CB
:101A20001092EC052093EE053093EF054093F005FE
:101A30005093F1057093EB056093EA0583E394E01E
:101A40009093F7058093F60587E794E09093F90566
:101A50008093F8058DEC90E09093FB058093FA0558
:101A60008CEC90E09093FD058093FC0588EC90E071
:101A70009093FF058093FE0589EC90E0909301061A
:101A8000809300068EEC90E090930306809302060C
:101A900010930406B0930506A0930606F09307067C
:101AA000E093080610920C0610920B0620930D0688
:101AB00030930E0640930F065093100670930A065B
:101AC000609309068BEB94E09093160680931506BD
:101AD0008FEF94E0909318068093170685ED90E0C1
:101AE00090931A068093190684ED90E090931C065B
:101AF00080931B0680ED90E090931E0680931D0658
:101B000081ED90E09093200680931F0686ED90E093
:101B1000909322068093210610932306B093240607
:101B2000A0932506F0932606E093270610922B0635
:101B300010922A0620932C0630932D0640932E06F1
:101B400050932F06709329066093280683E495E04E
:101B5000909335068093340687E895E09093370696
:101B60008093360685E391E090933906809338069A
:101B700084E391E090933B0680933A0680E391E002
:101B800090933D0680933C0681E391E090933F065D
:101B900080933E0686E391E0909341068093400651
:101BA00010934206B0934306A0934406F093450673
:101BB000E09346061F910895AF92BF92CF92DF92B5
:101BC000EF92FF920F931F93CF93DF93EC01A880C6
:101BD000B980CA80DB80A114B104C104D10441F4EE
:101BE00084E2A82E89EDB82E8BE5C82E87E0D82E8A
:101BF000C601B5012DE133EF41E050E00E94B20E85
:101C000027EA31E440E050E00E944A0E7B018C015B
:101C1000C601B5012DE133EF41E050E00E94B20E64
:101C2000CA01B9012CEE34EF4FEF5FEF0E944A0E6C
:101C30006E0D7F1D801F911F97FF04C06150704083
:101C400080409048688379838A839B839B013F7798
:101C5000C901DF91CF911F910F91FF90EF90DF901D
:101C6000CF90BF90AF9008950E94DC0D08958DE84D
:101C700093E00E94DC0D0895A0E0B0E080938D0316
:101C800090938E03A0938F03B09390030895F894DC
:101C90000C94D30E629FD001739FF001829FE00DE0
:101CA000F11D649FE00DF11D929FF00D839FF00DDB
:101CB000749FF00D659FF00D9927729FB00DE11D87
:101CC000F91F639FB00DE11DF91FBD01CF01112464
:101CD0000895AA1BBB1B51E107C0AA1FBB1FA61773
:101CE000B70710F0A61BB70B881F991F5A95A9F7C5
:101CF00080959095BC01CD01089597FB092E07268C
:101D00000AD077FD04D0E5DF06D000201AF47095E4
:101D100061957F4F0895F6F7909581959F4F0895AF
:101D2000A1E21A2EAA1BBB1BFD010DC0AA1FBB1FDF
:101D3000EE1FFF1FA217B307E407F50720F0A21B51
:101D4000B30BE40BF50B661F771F881F991F1A94BE
:101D500069F760957095809590959B01AC01BD01E8
:101D6000CF01089597FB092E05260ED057FD04D00C
:101D7000D7DF0AD0001C38F4509540953095219556
:101D80003F4F4F4F5F4F0895F6F7909580957095B0
:101D900061957F4F8F4F9F4F0895EE0FFF1F059066
:0A1DA000F491E02D1994F894FFCFA0
:101DAA0052616E646F6D6C79206465636964696EF3
:101DBA00672077686F2077696C6C20676F20666987
:101DCA007273742E2E00436C69656E7421004D790E
:101DDA00204F726465722069733A20004C697374EB
:101DEA00656E696E672E2E2E0057616974696E677B
:101DFA0020466F72204B65792E2E2E00576169742A
:101E0A00696E6720466F722041636B2E2E2E004446
:101E1A0061746145786368616E6765210053746116
:101E2A0072740057464100426567696E6E696E6753
:101E3A002047616D652E2E2E0045737461626C69B0
:101E4A007368696E672053656375726520436F6DA9
:101E5A006D756E69636174696F6E2E2E2E0047650B
:101E6A006E65726174696E672052616E646F6D206F
:101E7A004B657920666F72204B65792045786368D7
:101E8A00616E67652E2E2E20005374617274696E1E
:101E9A00672053656375726520436F6D6D756E6952
:101EAA00636174696F6E20617320436C69656E7437
:101EBA002E2E2E005374617274696E672053656307
:101ECA0075726520436F6D6D756E69636174696FB4
:101EDA006E206173205365727665722E2E2E004431
:101EEA00756D70696E6720427566666572732E2E0F
:101EFA002E004275666665722044756D70656421B0
:101F0A0000436F6D6D756E69636174696F6E20450C
:101F1A00737461626C69736865642120456E6A6FC7
:101F2A007920596F75722047616D652100010000A3
:101F3A00000100000000850C0708190C4A0C2A0C45
:021F4A00730C16
:00000001FF
